{
	"Proga/Solidity/AtomicSwap/contracts/Petro.sol": {
		"Petro": {
			"abi": [
				{
					"inputs": [
						{
							"internalType": "address",
							"name": "_petroAddress",
							"type": "address"
						},
						{
							"internalType": "bytes32",
							"name": "_hash",
							"type": "bytes32"
						}
					],
					"stateMutability": "nonpayable",
					"type": "constructor"
				},
				{
					"inputs": [],
					"name": "ammount",
					"outputs": [
						{
							"internalType": "uint256",
							"name": "",
							"type": "uint256"
						}
					],
					"stateMutability": "view",
					"type": "function"
				},
				{
					"inputs": [],
					"name": "dmytroAddress",
					"outputs": [
						{
							"internalType": "address",
							"name": "",
							"type": "address"
						}
					],
					"stateMutability": "view",
					"type": "function"
				},
				{
					"inputs": [],
					"name": "hash",
					"outputs": [
						{
							"internalType": "bytes32",
							"name": "",
							"type": "bytes32"
						}
					],
					"stateMutability": "view",
					"type": "function"
				},
				{
					"inputs": [],
					"name": "lockTime",
					"outputs": [
						{
							"internalType": "uint256",
							"name": "",
							"type": "uint256"
						}
					],
					"stateMutability": "view",
					"type": "function"
				},
				{
					"inputs": [],
					"name": "petroAddress",
					"outputs": [
						{
							"internalType": "address",
							"name": "",
							"type": "address"
						}
					],
					"stateMutability": "view",
					"type": "function"
				},
				{
					"inputs": [],
					"name": "refund",
					"outputs": [],
					"stateMutability": "nonpayable",
					"type": "function"
				},
				{
					"inputs": [],
					"name": "secret",
					"outputs": [
						{
							"internalType": "string",
							"name": "",
							"type": "string"
						}
					],
					"stateMutability": "view",
					"type": "function"
				},
				{
					"inputs": [],
					"name": "status",
					"outputs": [
						{
							"internalType": "bool",
							"name": "",
							"type": "bool"
						}
					],
					"stateMutability": "view",
					"type": "function"
				},
				{
					"inputs": [],
					"name": "timeTo",
					"outputs": [
						{
							"internalType": "uint256",
							"name": "",
							"type": "uint256"
						}
					],
					"stateMutability": "view",
					"type": "function"
				},
				{
					"inputs": [
						{
							"internalType": "string",
							"name": "_secret",
							"type": "string"
						}
					],
					"name": "withdraw",
					"outputs": [],
					"stateMutability": "nonpayable",
					"type": "function"
				},
				{
					"stateMutability": "payable",
					"type": "receive"
				}
			],
			"devdoc": {
				"kind": "dev",
				"methods": {},
				"version": 1
			},
			"evm": {
				"assembly": "    /* \"Proga/Solidity/AtomicSwap/contracts/Petro.sol\":57:1360  contract Petro {... */\n  mstore(0x40, 0x80)\n    /* \"Proga/Solidity/AtomicSwap/contracts/Petro.sol\":102:109  1 ether */\n  0x0de0b6b3a7640000\n    /* \"Proga/Solidity/AtomicSwap/contracts/Petro.sol\":77:109  uint256 public ammount = 1 ether */\n  0x00\n  sstore\n    /* \"Proga/Solidity/AtomicSwap/contracts/Petro.sol\":138:143  43200 */\n  0xa8c0\n    /* \"Proga/Solidity/AtomicSwap/contracts/Petro.sol\":112:143  uint256 public lockTime = 43200 */\n  0x01\n  sstore\n    /* \"Proga/Solidity/AtomicSwap/contracts/Petro.sol\":416:570  constructor(address _petroAddress, bytes32 _hash) {... */\n  callvalue\n  dup1\n  iszero\n  tag_1\n  jumpi\n  0x00\n  dup1\n  revert\ntag_1:\n  pop\n  mload(0x40)\n  sub(codesize, bytecodeSize)\n  dup1\n  bytecodeSize\n  dup4\n  codecopy\n  dup2\n  dup2\n  add\n  0x40\n  mstore\n  dup2\n  add\n  swap1\n  tag_2\n  swap2\n  swap1\n  tag_3\n  jump\t// in\ntag_2:\n    /* \"Proga/Solidity/AtomicSwap/contracts/Petro.sol\":486:496  msg.sender */\n  caller\n    /* \"Proga/Solidity/AtomicSwap/contracts/Petro.sol\":470:483  dmytroAddress */\n  0x05\n  0x00\n    /* \"Proga/Solidity/AtomicSwap/contracts/Petro.sol\":470:496  dmytroAddress = msg.sender */\n  0x0100\n  exp\n  dup2\n  sload\n  dup2\n  0xffffffffffffffffffffffffffffffffffffffff\n  mul\n  not\n  and\n  swap1\n  dup4\n  0xffffffffffffffffffffffffffffffffffffffff\n  and\n  mul\n  or\n  swap1\n  sstore\n  pop\n    /* \"Proga/Solidity/AtomicSwap/contracts/Petro.sol\":515:528  _petroAddress */\n  dup2\n    /* \"Proga/Solidity/AtomicSwap/contracts/Petro.sol\":500:512  petroAddress */\n  0x04\n  0x00\n    /* \"Proga/Solidity/AtomicSwap/contracts/Petro.sol\":500:528  petroAddress = _petroAddress */\n  0x0100\n  exp\n  dup2\n  sload\n  dup2\n  0xffffffffffffffffffffffffffffffffffffffff\n  mul\n  not\n  and\n  swap1\n  dup4\n  0xffffffffffffffffffffffffffffffffffffffff\n  and\n  mul\n  or\n  swap1\n  sstore\n  pop\n    /* \"Proga/Solidity/AtomicSwap/contracts/Petro.sol\":541:546  false */\n  0x00\n    /* \"Proga/Solidity/AtomicSwap/contracts/Petro.sol\":532:538  status */\n  0x07\n  0x00\n    /* \"Proga/Solidity/AtomicSwap/contracts/Petro.sol\":532:546  status = false */\n  0x0100\n  exp\n  dup2\n  sload\n  dup2\n  0xff\n  mul\n  not\n  and\n  swap1\n  dup4\n  iszero\n  iszero\n  mul\n  or\n  swap1\n  sstore\n  pop\n    /* \"Proga/Solidity/AtomicSwap/contracts/Petro.sol\":559:564  _hash */\n  dup1\n    /* \"Proga/Solidity/AtomicSwap/contracts/Petro.sol\":552:556  hash */\n  0x03\n    /* \"Proga/Solidity/AtomicSwap/contracts/Petro.sol\":552:564  hash = _hash */\n  dup2\n  swap1\n  sstore\n  pop\n    /* \"Proga/Solidity/AtomicSwap/contracts/Petro.sol\":416:570  constructor(address _petroAddress, bytes32 _hash) {... */\n  pop\n  pop\n    /* \"Proga/Solidity/AtomicSwap/contracts/Petro.sol\":57:1360  contract Petro {... */\n  jump(tag_6)\n    /* \"#utility.yul\":88:205   */\ntag_8:\n    /* \"#utility.yul\":197:198   */\n  0x00\n    /* \"#utility.yul\":194:195   */\n  dup1\n    /* \"#utility.yul\":187:199   */\n  revert\n    /* \"#utility.yul\":334:460   */\ntag_10:\n    /* \"#utility.yul\":371:378   */\n  0x00\n    /* \"#utility.yul\":411:453   */\n  0xffffffffffffffffffffffffffffffffffffffff\n    /* \"#utility.yul\":404:409   */\n  dup3\n    /* \"#utility.yul\":400:454   */\n  and\n    /* \"#utility.yul\":389:454   */\n  swap1\n  pop\n    /* \"#utility.yul\":334:460   */\n  swap2\n  swap1\n  pop\n  jump\t// out\n    /* \"#utility.yul\":466:562   */\ntag_11:\n    /* \"#utility.yul\":503:510   */\n  0x00\n    /* \"#utility.yul\":532:556   */\n  tag_23\n    /* \"#utility.yul\":550:555   */\n  dup3\n    /* \"#utility.yul\":532:556   */\n  tag_10\n  jump\t// in\ntag_23:\n    /* \"#utility.yul\":521:556   */\n  swap1\n  pop\n    /* \"#utility.yul\":466:562   */\n  swap2\n  swap1\n  pop\n  jump\t// out\n    /* \"#utility.yul\":568:690   */\ntag_12:\n    /* \"#utility.yul\":641:665   */\n  tag_25\n    /* \"#utility.yul\":659:664   */\n  dup2\n    /* \"#utility.yul\":641:665   */\n  tag_11\n  jump\t// in\ntag_25:\n    /* \"#utility.yul\":634:639   */\n  dup2\n    /* \"#utility.yul\":631:666   */\n  eq\n    /* \"#utility.yul\":621:684   */\n  tag_26\n  jumpi\n    /* \"#utility.yul\":680:681   */\n  0x00\n    /* \"#utility.yul\":677:678   */\n  dup1\n    /* \"#utility.yul\":670:682   */\n  revert\n    /* \"#utility.yul\":621:684   */\ntag_26:\n    /* \"#utility.yul\":568:690   */\n  pop\n  jump\t// out\n    /* \"#utility.yul\":696:839   */\ntag_13:\n    /* \"#utility.yul\":753:758   */\n  0x00\n    /* \"#utility.yul\":784:790   */\n  dup2\n    /* \"#utility.yul\":778:791   */\n  mload\n    /* \"#utility.yul\":769:791   */\n  swap1\n  pop\n    /* \"#utility.yul\":800:833   */\n  tag_28\n    /* \"#utility.yul\":827:832   */\n  dup2\n    /* \"#utility.yul\":800:833   */\n  tag_12\n  jump\t// in\ntag_28:\n    /* \"#utility.yul\":696:839   */\n  swap3\n  swap2\n  pop\n  pop\n  jump\t// out\n    /* \"#utility.yul\":845:922   */\ntag_14:\n    /* \"#utility.yul\":882:889   */\n  0x00\n    /* \"#utility.yul\":911:916   */\n  dup2\n    /* \"#utility.yul\":900:916   */\n  swap1\n  pop\n    /* \"#utility.yul\":845:922   */\n  swap2\n  swap1\n  pop\n  jump\t// out\n    /* \"#utility.yul\":928:1050   */\ntag_15:\n    /* \"#utility.yul\":1001:1025   */\n  tag_31\n    /* \"#utility.yul\":1019:1024   */\n  dup2\n    /* \"#utility.yul\":1001:1025   */\n  tag_14\n  jump\t// in\ntag_31:\n    /* \"#utility.yul\":994:999   */\n  dup2\n    /* \"#utility.yul\":991:1026   */\n  eq\n    /* \"#utility.yul\":981:1044   */\n  tag_32\n  jumpi\n    /* \"#utility.yul\":1040:1041   */\n  0x00\n    /* \"#utility.yul\":1037:1038   */\n  dup1\n    /* \"#utility.yul\":1030:1042   */\n  revert\n    /* \"#utility.yul\":981:1044   */\ntag_32:\n    /* \"#utility.yul\":928:1050   */\n  pop\n  jump\t// out\n    /* \"#utility.yul\":1056:1199   */\ntag_16:\n    /* \"#utility.yul\":1113:1118   */\n  0x00\n    /* \"#utility.yul\":1144:1150   */\n  dup2\n    /* \"#utility.yul\":1138:1151   */\n  mload\n    /* \"#utility.yul\":1129:1151   */\n  swap1\n  pop\n    /* \"#utility.yul\":1160:1193   */\n  tag_34\n    /* \"#utility.yul\":1187:1192   */\n  dup2\n    /* \"#utility.yul\":1160:1193   */\n  tag_15\n  jump\t// in\ntag_34:\n    /* \"#utility.yul\":1056:1199   */\n  swap3\n  swap2\n  pop\n  pop\n  jump\t// out\n    /* \"#utility.yul\":1205:1712   */\ntag_3:\n    /* \"#utility.yul\":1284:1290   */\n  0x00\n    /* \"#utility.yul\":1292:1298   */\n  dup1\n    /* \"#utility.yul\":1341:1343   */\n  0x40\n    /* \"#utility.yul\":1329:1338   */\n  dup4\n    /* \"#utility.yul\":1320:1327   */\n  dup6\n    /* \"#utility.yul\":1316:1339   */\n  sub\n    /* \"#utility.yul\":1312:1344   */\n  slt\n    /* \"#utility.yul\":1309:1428   */\n  iszero\n  tag_36\n  jumpi\n    /* \"#utility.yul\":1347:1426   */\n  tag_37\n  tag_8\n  jump\t// in\ntag_37:\n    /* \"#utility.yul\":1309:1428   */\ntag_36:\n    /* \"#utility.yul\":1467:1468   */\n  0x00\n    /* \"#utility.yul\":1492:1556   */\n  tag_38\n    /* \"#utility.yul\":1548:1555   */\n  dup6\n    /* \"#utility.yul\":1539:1545   */\n  dup3\n    /* \"#utility.yul\":1528:1537   */\n  dup7\n    /* \"#utility.yul\":1524:1546   */\n  add\n    /* \"#utility.yul\":1492:1556   */\n  tag_13\n  jump\t// in\ntag_38:\n    /* \"#utility.yul\":1482:1556   */\n  swap3\n  pop\n    /* \"#utility.yul\":1438:1566   */\n  pop\n    /* \"#utility.yul\":1605:1607   */\n  0x20\n    /* \"#utility.yul\":1631:1695   */\n  tag_39\n    /* \"#utility.yul\":1687:1694   */\n  dup6\n    /* \"#utility.yul\":1678:1684   */\n  dup3\n    /* \"#utility.yul\":1667:1676   */\n  dup7\n    /* \"#utility.yul\":1663:1685   */\n  add\n    /* \"#utility.yul\":1631:1695   */\n  tag_16\n  jump\t// in\ntag_39:\n    /* \"#utility.yul\":1621:1695   */\n  swap2\n  pop\n    /* \"#utility.yul\":1576:1705   */\n  pop\n    /* \"#utility.yul\":1205:1712   */\n  swap3\n  pop\n  swap3\n  swap1\n  pop\n  jump\t// out\n    /* \"Proga/Solidity/AtomicSwap/contracts/Petro.sol\":57:1360  contract Petro {... */\ntag_6:\n  dataSize(sub_0)\n  dup1\n  dataOffset(sub_0)\n  0x00\n  codecopy\n  0x00\n  return\nstop\n\nsub_0: assembly {\n        /* \"Proga/Solidity/AtomicSwap/contracts/Petro.sol\":57:1360  contract Petro {... */\n      mstore(0x40, 0x80)\n      jumpi(tag_1, lt(calldatasize, 0x04))\n      shr(0xe0, calldataload(0x00))\n      dup1\n      0x5b889ab8\n      gt\n      tag_13\n      jumpi\n      dup1\n      0x5b889ab8\n      eq\n      tag_8\n      jumpi\n      dup1\n      0x8bfafd8b\n      eq\n      tag_9\n      jumpi\n      dup1\n      0xae4af217\n      eq\n      tag_10\n      jumpi\n      dup1\n      0xd1efd30d\n      eq\n      tag_11\n      jumpi\n      dup1\n      0xda1d55e1\n      eq\n      tag_12\n      jumpi\n      jump(tag_2)\n    tag_13:\n      dup1\n      0x09bd5a60\n      eq\n      tag_3\n      jumpi\n      dup1\n      0x0d668087\n      eq\n      tag_4\n      jumpi\n      dup1\n      0x200d2ed2\n      eq\n      tag_5\n      jumpi\n      dup1\n      0x31fb67c2\n      eq\n      tag_6\n      jumpi\n      dup1\n      0x590e1ae3\n      eq\n      tag_7\n      jumpi\n      jump(tag_2)\n    tag_1:\n      jumpi(tag_2, calldatasize)\n        /* \"Proga/Solidity/AtomicSwap/contracts/Petro.sol\":692:698  status */\n      0x07\n      0x00\n      swap1\n      sload\n      swap1\n      0x0100\n      exp\n      swap1\n      div\n      0xff\n      and\n        /* \"Proga/Solidity/AtomicSwap/contracts/Petro.sol\":684:708  require(status, \"no-no\") */\n      tag_16\n      jumpi\n      mload(0x40)\n      0x08c379a000000000000000000000000000000000000000000000000000000000\n      dup2\n      mstore\n      0x04\n      add\n      tag_17\n      swap1\n      tag_18\n      jump\t// in\n    tag_17:\n      mload(0x40)\n      dup1\n      swap2\n      sub\n      swap1\n      revert\n    tag_16:\n        /* \"Proga/Solidity/AtomicSwap/contracts/Petro.sol\":383:391  lockTime */\n      sload(0x01)\n        /* \"Proga/Solidity/AtomicSwap/contracts/Petro.sol\":365:380  block.timestamp */\n      timestamp\n        /* \"Proga/Solidity/AtomicSwap/contracts/Petro.sol\":365:391  block.timestamp + lockTime */\n      tag_20\n      swap2\n      swap1\n      tag_21\n      jump\t// in\n    tag_20:\n        /* \"Proga/Solidity/AtomicSwap/contracts/Petro.sol\":356:362  timeTo */\n      0x06\n        /* \"Proga/Solidity/AtomicSwap/contracts/Petro.sol\":356:391  timeTo = block.timestamp + lockTime */\n      dup2\n      swap1\n      sstore\n      pop\n        /* \"Proga/Solidity/AtomicSwap/contracts/Petro.sol\":404:408  true */\n      0x01\n        /* \"Proga/Solidity/AtomicSwap/contracts/Petro.sol\":395:401  status */\n      0x07\n      0x00\n        /* \"Proga/Solidity/AtomicSwap/contracts/Petro.sol\":395:408  status = true */\n      0x0100\n      exp\n      dup2\n      sload\n      dup2\n      0xff\n      mul\n      not\n      and\n      swap1\n      dup4\n      iszero\n      iszero\n      mul\n      or\n      swap1\n      sstore\n      stop\n        /* \"Proga/Solidity/AtomicSwap/contracts/Petro.sol\":57:1360  contract Petro {... */\n    tag_2:\n      0x00\n      dup1\n      revert\n        /* \"Proga/Solidity/AtomicSwap/contracts/Petro.sol\":185:204  bytes32 public hash */\n    tag_3:\n      callvalue\n      dup1\n      iszero\n      tag_22\n      jumpi\n      0x00\n      dup1\n      revert\n    tag_22:\n      pop\n      tag_23\n      tag_24\n      jump\t// in\n    tag_23:\n      mload(0x40)\n      tag_25\n      swap2\n      swap1\n      tag_26\n      jump\t// in\n    tag_25:\n      mload(0x40)\n      dup1\n      swap2\n      sub\n      swap1\n      return\n        /* \"Proga/Solidity/AtomicSwap/contracts/Petro.sol\":112:143  uint256 public lockTime = 43200 */\n    tag_4:\n      callvalue\n      dup1\n      iszero\n      tag_27\n      jumpi\n      0x00\n      dup1\n      revert\n    tag_27:\n      pop\n      tag_28\n      tag_29\n      jump\t// in\n    tag_28:\n      mload(0x40)\n      tag_30\n      swap2\n      swap1\n      tag_31\n      jump\t// in\n    tag_30:\n      mload(0x40)\n      dup1\n      swap2\n      sub\n      swap1\n      return\n        /* \"Proga/Solidity/AtomicSwap/contracts/Petro.sol\":292:310  bool public status */\n    tag_5:\n      callvalue\n      dup1\n      iszero\n      tag_32\n      jumpi\n      0x00\n      dup1\n      revert\n    tag_32:\n      pop\n      tag_33\n      tag_34\n      jump\t// in\n    tag_33:\n      mload(0x40)\n      tag_35\n      swap2\n      swap1\n      tag_36\n      jump\t// in\n    tag_35:\n      mload(0x40)\n      dup1\n      swap2\n      sub\n      swap1\n      return\n        /* \"Proga/Solidity/AtomicSwap/contracts/Petro.sol\":910:1178  function withdraw(string memory _secret) external onlyPetro {... */\n    tag_6:\n      callvalue\n      dup1\n      iszero\n      tag_37\n      jumpi\n      0x00\n      dup1\n      revert\n    tag_37:\n      pop\n      tag_38\n      0x04\n      dup1\n      calldatasize\n      sub\n      dup2\n      add\n      swap1\n      tag_39\n      swap2\n      swap1\n      tag_40\n      jump\t// in\n    tag_39:\n      tag_41\n      jump\t// in\n    tag_38:\n      stop\n        /* \"Proga/Solidity/AtomicSwap/contracts/Petro.sol\":1181:1357  function refund() external onlyDmytro {... */\n    tag_7:\n      callvalue\n      dup1\n      iszero\n      tag_42\n      jumpi\n      0x00\n      dup1\n      revert\n    tag_42:\n      pop\n      tag_43\n      tag_44\n      jump\t// in\n    tag_43:\n      stop\n        /* \"Proga/Solidity/AtomicSwap/contracts/Petro.sol\":77:109  uint256 public ammount = 1 ether */\n    tag_8:\n      callvalue\n      dup1\n      iszero\n      tag_45\n      jumpi\n      0x00\n      dup1\n      revert\n    tag_45:\n      pop\n      tag_46\n      tag_47\n      jump\t// in\n    tag_46:\n      mload(0x40)\n      tag_48\n      swap2\n      swap1\n      tag_31\n      jump\t// in\n    tag_48:\n      mload(0x40)\n      dup1\n      swap2\n      sub\n      swap1\n      return\n        /* \"Proga/Solidity/AtomicSwap/contracts/Petro.sol\":268:289  uint256 public timeTo */\n    tag_9:\n      callvalue\n      dup1\n      iszero\n      tag_49\n      jumpi\n      0x00\n      dup1\n      revert\n    tag_49:\n      pop\n      tag_50\n      tag_51\n      jump\t// in\n    tag_50:\n      mload(0x40)\n      tag_52\n      swap2\n      swap1\n      tag_31\n      jump\t// in\n    tag_52:\n      mload(0x40)\n      dup1\n      swap2\n      sub\n      swap1\n      return\n        /* \"Proga/Solidity/AtomicSwap/contracts/Petro.sol\":237:265  address public dmytroAddress */\n    tag_10:\n      callvalue\n      dup1\n      iszero\n      tag_53\n      jumpi\n      0x00\n      dup1\n      revert\n    tag_53:\n      pop\n      tag_54\n      tag_55\n      jump\t// in\n    tag_54:\n      mload(0x40)\n      tag_56\n      swap2\n      swap1\n      tag_57\n      jump\t// in\n    tag_56:\n      mload(0x40)\n      dup1\n      swap2\n      sub\n      swap1\n      return\n        /* \"Proga/Solidity/AtomicSwap/contracts/Petro.sol\":162:182  string public secret */\n    tag_11:\n      callvalue\n      dup1\n      iszero\n      tag_58\n      jumpi\n      0x00\n      dup1\n      revert\n    tag_58:\n      pop\n      tag_59\n      tag_60\n      jump\t// in\n    tag_59:\n      mload(0x40)\n      tag_61\n      swap2\n      swap1\n      tag_62\n      jump\t// in\n    tag_61:\n      mload(0x40)\n      dup1\n      swap2\n      sub\n      swap1\n      return\n        /* \"Proga/Solidity/AtomicSwap/contracts/Petro.sol\":207:234  address public petroAddress */\n    tag_12:\n      callvalue\n      dup1\n      iszero\n      tag_63\n      jumpi\n      0x00\n      dup1\n      revert\n    tag_63:\n      pop\n      tag_64\n      tag_65\n      jump\t// in\n    tag_64:\n      mload(0x40)\n      tag_66\n      swap2\n      swap1\n      tag_57\n      jump\t// in\n    tag_66:\n      mload(0x40)\n      dup1\n      swap2\n      sub\n      swap1\n      return\n        /* \"Proga/Solidity/AtomicSwap/contracts/Petro.sol\":185:204  bytes32 public hash */\n    tag_24:\n      sload(0x03)\n      dup2\n      jump\t// out\n        /* \"Proga/Solidity/AtomicSwap/contracts/Petro.sol\":112:143  uint256 public lockTime = 43200 */\n    tag_29:\n      sload(0x01)\n      dup2\n      jump\t// out\n        /* \"Proga/Solidity/AtomicSwap/contracts/Petro.sol\":292:310  bool public status */\n    tag_34:\n      0x07\n      0x00\n      swap1\n      sload\n      swap1\n      0x0100\n      exp\n      swap1\n      div\n      0xff\n      and\n      dup2\n      jump\t// out\n        /* \"Proga/Solidity/AtomicSwap/contracts/Petro.sol\":910:1178  function withdraw(string memory _secret) external onlyPetro {... */\n    tag_41:\n        /* \"Proga/Solidity/AtomicSwap/contracts/Petro.sol\":863:875  petroAddress */\n      0x04\n      0x00\n      swap1\n      sload\n      swap1\n      0x0100\n      exp\n      swap1\n      div\n      0xffffffffffffffffffffffffffffffffffffffff\n      and\n        /* \"Proga/Solidity/AtomicSwap/contracts/Petro.sol\":849:875  msg.sender == petroAddress */\n      0xffffffffffffffffffffffffffffffffffffffff\n      and\n        /* \"Proga/Solidity/AtomicSwap/contracts/Petro.sol\":849:859  msg.sender */\n      caller\n        /* \"Proga/Solidity/AtomicSwap/contracts/Petro.sol\":849:875  msg.sender == petroAddress */\n      0xffffffffffffffffffffffffffffffffffffffff\n      and\n      eq\n        /* \"Proga/Solidity/AtomicSwap/contracts/Petro.sol\":841:897  require(msg.sender == petroAddress, \"you are not Petro\") */\n      tag_68\n      jumpi\n      mload(0x40)\n      0x08c379a000000000000000000000000000000000000000000000000000000000\n      dup2\n      mstore\n      0x04\n      add\n      tag_69\n      swap1\n      tag_70\n      jump\t// in\n    tag_69:\n      mload(0x40)\n      dup1\n      swap2\n      sub\n      swap1\n      revert\n    tag_68:\n        /* \"Proga/Solidity/AtomicSwap/contracts/Petro.sol\":1000:1006  timeTo */\n      sload(0x06)\n        /* \"Proga/Solidity/AtomicSwap/contracts/Petro.sol\":982:997  block.timestamp */\n      timestamp\n        /* \"Proga/Solidity/AtomicSwap/contracts/Petro.sol\":982:1006  block.timestamp < timeTo */\n      lt\n        /* \"Proga/Solidity/AtomicSwap/contracts/Petro.sol\":974:1025  require(block.timestamp < timeTo, \"period expired\") */\n      tag_72\n      jumpi\n      mload(0x40)\n      0x08c379a000000000000000000000000000000000000000000000000000000000\n      dup2\n      mstore\n      0x04\n      add\n      tag_73\n      swap1\n      tag_74\n      jump\t// in\n    tag_73:\n      mload(0x40)\n      dup1\n      swap2\n      sub\n      swap1\n      revert\n    tag_72:\n        /* \"Proga/Solidity/AtomicSwap/contracts/Petro.sol\":1077:1081  hash */\n      sload(0x03)\n        /* \"Proga/Solidity/AtomicSwap/contracts/Petro.sol\":1064:1071  _secret */\n      dup2\n        /* \"Proga/Solidity/AtomicSwap/contracts/Petro.sol\":1047:1072  abi.encodePacked(_secret) */\n      add(0x20, mload(0x40))\n      tag_75\n      swap2\n      swap1\n      tag_76\n      jump\t// in\n    tag_75:\n      mload(0x40)\n      0x20\n      dup2\n      dup4\n      sub\n      sub\n      dup2\n      mstore\n      swap1\n      0x40\n      mstore\n        /* \"Proga/Solidity/AtomicSwap/contracts/Petro.sol\":1037:1073  keccak256(abi.encodePacked(_secret)) */\n      dup1\n      mload\n      swap1\n      0x20\n      add\n      keccak256\n        /* \"Proga/Solidity/AtomicSwap/contracts/Petro.sol\":1037:1081  keccak256(abi.encodePacked(_secret)) == hash */\n      eq\n        /* \"Proga/Solidity/AtomicSwap/contracts/Petro.sol\":1029:1100  require(keccak256(abi.encodePacked(_secret)) == hash, \"Invalid secret\") */\n      tag_77\n      jumpi\n      mload(0x40)\n      0x08c379a000000000000000000000000000000000000000000000000000000000\n      dup2\n      mstore\n      0x04\n      add\n      tag_78\n      swap1\n      tag_79\n      jump\t// in\n    tag_78:\n      mload(0x40)\n      dup1\n      swap2\n      sub\n      swap1\n      revert\n    tag_77:\n        /* \"Proga/Solidity/AtomicSwap/contracts/Petro.sol\":1112:1124  petroAddress */\n      0x04\n      0x00\n      swap1\n      sload\n      swap1\n      0x0100\n      exp\n      swap1\n      div\n      0xffffffffffffffffffffffffffffffffffffffff\n      and\n        /* \"Proga/Solidity/AtomicSwap/contracts/Petro.sol\":1104:1134  payable(petroAddress).transfer */\n      0xffffffffffffffffffffffffffffffffffffffff\n      and\n        /* \"Proga/Solidity/AtomicSwap/contracts/Petro.sol\":1104:1157  payable(petroAddress).transfer(address(this).balance) */\n      0x08fc\n        /* \"Proga/Solidity/AtomicSwap/contracts/Petro.sol\":1135:1156  address(this).balance */\n      selfbalance\n        /* \"Proga/Solidity/AtomicSwap/contracts/Petro.sol\":1104:1157  payable(petroAddress).transfer(address(this).balance) */\n      swap1\n      dup2\n      iszero\n      mul\n      swap1\n      mload(0x40)\n      0x00\n      mload(0x40)\n      dup1\n      dup4\n      sub\n      dup2\n      dup6\n      dup9\n      dup9\n      call\n      swap4\n      pop\n      pop\n      pop\n      pop\n      iszero\n      dup1\n      iszero\n      tag_81\n      jumpi\n      returndatasize\n      0x00\n      dup1\n      returndatacopy\n      revert(0x00, returndatasize)\n    tag_81:\n      pop\n        /* \"Proga/Solidity/AtomicSwap/contracts/Petro.sol\":1170:1174  true */\n      0x01\n        /* \"Proga/Solidity/AtomicSwap/contracts/Petro.sol\":1161:1167  status */\n      0x07\n      0x00\n        /* \"Proga/Solidity/AtomicSwap/contracts/Petro.sol\":1161:1174  status = true */\n      0x0100\n      exp\n      dup2\n      sload\n      dup2\n      0xff\n      mul\n      not\n      and\n      swap1\n      dup4\n      iszero\n      iszero\n      mul\n      or\n      swap1\n      sstore\n      pop\n        /* \"Proga/Solidity/AtomicSwap/contracts/Petro.sol\":910:1178  function withdraw(string memory _secret) external onlyPetro {... */\n      pop\n      jump\t// out\n        /* \"Proga/Solidity/AtomicSwap/contracts/Petro.sol\":1181:1357  function refund() external onlyDmytro {... */\n    tag_44:\n        /* \"Proga/Solidity/AtomicSwap/contracts/Petro.sol\":768:781  dmytroAddress */\n      0x05\n      0x00\n      swap1\n      sload\n      swap1\n      0x0100\n      exp\n      swap1\n      div\n      0xffffffffffffffffffffffffffffffffffffffff\n      and\n        /* \"Proga/Solidity/AtomicSwap/contracts/Petro.sol\":754:781  msg.sender == dmytroAddress */\n      0xffffffffffffffffffffffffffffffffffffffff\n      and\n        /* \"Proga/Solidity/AtomicSwap/contracts/Petro.sol\":754:764  msg.sender */\n      caller\n        /* \"Proga/Solidity/AtomicSwap/contracts/Petro.sol\":754:781  msg.sender == dmytroAddress */\n      0xffffffffffffffffffffffffffffffffffffffff\n      and\n      eq\n        /* \"Proga/Solidity/AtomicSwap/contracts/Petro.sol\":746:804  require(msg.sender == dmytroAddress, \"you are not Dmytro\") */\n      tag_83\n      jumpi\n      mload(0x40)\n      0x08c379a000000000000000000000000000000000000000000000000000000000\n      dup2\n      mstore\n      0x04\n      add\n      tag_84\n      swap1\n      tag_85\n      jump\t// in\n    tag_84:\n      mload(0x40)\n      dup1\n      swap2\n      sub\n      swap1\n      revert\n    tag_83:\n        /* \"Proga/Solidity/AtomicSwap/contracts/Petro.sol\":1249:1255  timeTo */\n      sload(0x06)\n        /* \"Proga/Solidity/AtomicSwap/contracts/Petro.sol\":1231:1246  block.timestamp */\n      timestamp\n        /* \"Proga/Solidity/AtomicSwap/contracts/Petro.sol\":1231:1255  block.timestamp > timeTo */\n      gt\n        /* \"Proga/Solidity/AtomicSwap/contracts/Petro.sol\":1223:1278  require(block.timestamp > timeTo, \"it is not time yet\") */\n      tag_87\n      jumpi\n      mload(0x40)\n      0x08c379a000000000000000000000000000000000000000000000000000000000\n      dup2\n      mstore\n      0x04\n      add\n      tag_88\n      swap1\n      tag_89\n      jump\t// in\n    tag_88:\n      mload(0x40)\n      dup1\n      swap2\n      sub\n      swap1\n      revert\n    tag_87:\n        /* \"Proga/Solidity/AtomicSwap/contracts/Petro.sol\":1290:1303  dmytroAddress */\n      0x05\n      0x00\n      swap1\n      sload\n      swap1\n      0x0100\n      exp\n      swap1\n      div\n      0xffffffffffffffffffffffffffffffffffffffff\n      and\n        /* \"Proga/Solidity/AtomicSwap/contracts/Petro.sol\":1282:1313  payable(dmytroAddress).transfer */\n      0xffffffffffffffffffffffffffffffffffffffff\n      and\n        /* \"Proga/Solidity/AtomicSwap/contracts/Petro.sol\":1282:1336  payable(dmytroAddress).transfer(address(this).balance) */\n      0x08fc\n        /* \"Proga/Solidity/AtomicSwap/contracts/Petro.sol\":1314:1335  address(this).balance */\n      selfbalance\n        /* \"Proga/Solidity/AtomicSwap/contracts/Petro.sol\":1282:1336  payable(dmytroAddress).transfer(address(this).balance) */\n      swap1\n      dup2\n      iszero\n      mul\n      swap1\n      mload(0x40)\n      0x00\n      mload(0x40)\n      dup1\n      dup4\n      sub\n      dup2\n      dup6\n      dup9\n      dup9\n      call\n      swap4\n      pop\n      pop\n      pop\n      pop\n      iszero\n      dup1\n      iszero\n      tag_91\n      jumpi\n      returndatasize\n      0x00\n      dup1\n      returndatacopy\n      revert(0x00, returndatasize)\n    tag_91:\n      pop\n        /* \"Proga/Solidity/AtomicSwap/contracts/Petro.sol\":1349:1353  true */\n      0x01\n        /* \"Proga/Solidity/AtomicSwap/contracts/Petro.sol\":1340:1346  status */\n      0x07\n      0x00\n        /* \"Proga/Solidity/AtomicSwap/contracts/Petro.sol\":1340:1353  status = true */\n      0x0100\n      exp\n      dup2\n      sload\n      dup2\n      0xff\n      mul\n      not\n      and\n      swap1\n      dup4\n      iszero\n      iszero\n      mul\n      or\n      swap1\n      sstore\n      pop\n        /* \"Proga/Solidity/AtomicSwap/contracts/Petro.sol\":1181:1357  function refund() external onlyDmytro {... */\n      jump\t// out\n        /* \"Proga/Solidity/AtomicSwap/contracts/Petro.sol\":77:109  uint256 public ammount = 1 ether */\n    tag_47:\n      sload(0x00)\n      dup2\n      jump\t// out\n        /* \"Proga/Solidity/AtomicSwap/contracts/Petro.sol\":268:289  uint256 public timeTo */\n    tag_51:\n      sload(0x06)\n      dup2\n      jump\t// out\n        /* \"Proga/Solidity/AtomicSwap/contracts/Petro.sol\":237:265  address public dmytroAddress */\n    tag_55:\n      0x05\n      0x00\n      swap1\n      sload\n      swap1\n      0x0100\n      exp\n      swap1\n      div\n      0xffffffffffffffffffffffffffffffffffffffff\n      and\n      dup2\n      jump\t// out\n        /* \"Proga/Solidity/AtomicSwap/contracts/Petro.sol\":162:182  string public secret */\n    tag_60:\n      0x02\n      dup1\n      sload\n      tag_92\n      swap1\n      tag_93\n      jump\t// in\n    tag_92:\n      dup1\n      0x1f\n      add\n      0x20\n      dup1\n      swap2\n      div\n      mul\n      0x20\n      add\n      mload(0x40)\n      swap1\n      dup2\n      add\n      0x40\n      mstore\n      dup1\n      swap3\n      swap2\n      swap1\n      dup2\n      dup2\n      mstore\n      0x20\n      add\n      dup3\n      dup1\n      sload\n      tag_94\n      swap1\n      tag_93\n      jump\t// in\n    tag_94:\n      dup1\n      iszero\n      tag_95\n      jumpi\n      dup1\n      0x1f\n      lt\n      tag_96\n      jumpi\n      0x0100\n      dup1\n      dup4\n      sload\n      div\n      mul\n      dup4\n      mstore\n      swap2\n      0x20\n      add\n      swap2\n      jump(tag_95)\n    tag_96:\n      dup3\n      add\n      swap2\n      swap1\n      0x00\n      mstore\n      keccak256(0x00, 0x20)\n      swap1\n    tag_97:\n      dup2\n      sload\n      dup2\n      mstore\n      swap1\n      0x01\n      add\n      swap1\n      0x20\n      add\n      dup1\n      dup4\n      gt\n      tag_97\n      jumpi\n      dup3\n      swap1\n      sub\n      0x1f\n      and\n      dup3\n      add\n      swap2\n    tag_95:\n      pop\n      pop\n      pop\n      pop\n      pop\n      dup2\n      jump\t// out\n        /* \"Proga/Solidity/AtomicSwap/contracts/Petro.sol\":207:234  address public petroAddress */\n    tag_65:\n      0x04\n      0x00\n      swap1\n      sload\n      swap1\n      0x0100\n      exp\n      swap1\n      div\n      0xffffffffffffffffffffffffffffffffffffffff\n      and\n      dup2\n      jump\t// out\n        /* \"#utility.yul\":7:176   */\n    tag_98:\n        /* \"#utility.yul\":91:102   */\n      0x00\n        /* \"#utility.yul\":125:131   */\n      dup3\n        /* \"#utility.yul\":120:123   */\n      dup3\n        /* \"#utility.yul\":113:132   */\n      mstore\n        /* \"#utility.yul\":165:169   */\n      0x20\n        /* \"#utility.yul\":160:163   */\n      dup3\n        /* \"#utility.yul\":156:170   */\n      add\n        /* \"#utility.yul\":141:170   */\n      swap1\n      pop\n        /* \"#utility.yul\":7:176   */\n      swap3\n      swap2\n      pop\n      pop\n      jump\t// out\n        /* \"#utility.yul\":182:337   */\n    tag_99:\n        /* \"#utility.yul\":322:329   */\n      0x6e6f2d6e6f000000000000000000000000000000000000000000000000000000\n        /* \"#utility.yul\":318:319   */\n      0x00\n        /* \"#utility.yul\":310:316   */\n      dup3\n        /* \"#utility.yul\":306:320   */\n      add\n        /* \"#utility.yul\":299:330   */\n      mstore\n        /* \"#utility.yul\":182:337   */\n      pop\n      jump\t// out\n        /* \"#utility.yul\":343:708   */\n    tag_100:\n        /* \"#utility.yul\":485:488   */\n      0x00\n        /* \"#utility.yul\":506:572   */\n      tag_144\n        /* \"#utility.yul\":570:571   */\n      0x05\n        /* \"#utility.yul\":565:568   */\n      dup4\n        /* \"#utility.yul\":506:572   */\n      tag_98\n      jump\t// in\n    tag_144:\n        /* \"#utility.yul\":499:572   */\n      swap2\n      pop\n        /* \"#utility.yul\":581:674   */\n      tag_145\n        /* \"#utility.yul\":670:673   */\n      dup3\n        /* \"#utility.yul\":581:674   */\n      tag_99\n      jump\t// in\n    tag_145:\n        /* \"#utility.yul\":699:701   */\n      0x20\n        /* \"#utility.yul\":694:697   */\n      dup3\n        /* \"#utility.yul\":690:702   */\n      add\n        /* \"#utility.yul\":683:702   */\n      swap1\n      pop\n        /* \"#utility.yul\":343:708   */\n      swap2\n      swap1\n      pop\n      jump\t// out\n        /* \"#utility.yul\":714:1133   */\n    tag_18:\n        /* \"#utility.yul\":880:884   */\n      0x00\n        /* \"#utility.yul\":918:920   */\n      0x20\n        /* \"#utility.yul\":907:916   */\n      dup3\n        /* \"#utility.yul\":903:921   */\n      add\n        /* \"#utility.yul\":895:921   */\n      swap1\n      pop\n        /* \"#utility.yul\":967:976   */\n      dup2\n        /* \"#utility.yul\":961:965   */\n      dup2\n        /* \"#utility.yul\":957:977   */\n      sub\n        /* \"#utility.yul\":953:954   */\n      0x00\n        /* \"#utility.yul\":942:951   */\n      dup4\n        /* \"#utility.yul\":938:955   */\n      add\n        /* \"#utility.yul\":931:978   */\n      mstore\n        /* \"#utility.yul\":995:1126   */\n      tag_147\n        /* \"#utility.yul\":1121:1125   */\n      dup2\n        /* \"#utility.yul\":995:1126   */\n      tag_100\n      jump\t// in\n    tag_147:\n        /* \"#utility.yul\":987:1126   */\n      swap1\n      pop\n        /* \"#utility.yul\":714:1133   */\n      swap2\n      swap1\n      pop\n      jump\t// out\n        /* \"#utility.yul\":1139:1216   */\n    tag_101:\n        /* \"#utility.yul\":1176:1183   */\n      0x00\n        /* \"#utility.yul\":1205:1210   */\n      dup2\n        /* \"#utility.yul\":1194:1210   */\n      swap1\n      pop\n        /* \"#utility.yul\":1139:1216   */\n      swap2\n      swap1\n      pop\n      jump\t// out\n        /* \"#utility.yul\":1222:1402   */\n    tag_102:\n        /* \"#utility.yul\":1270:1347   */\n      0x4e487b7100000000000000000000000000000000000000000000000000000000\n        /* \"#utility.yul\":1267:1268   */\n      0x00\n        /* \"#utility.yul\":1260:1348   */\n      mstore\n        /* \"#utility.yul\":1367:1371   */\n      0x11\n        /* \"#utility.yul\":1364:1365   */\n      0x04\n        /* \"#utility.yul\":1357:1372   */\n      mstore\n        /* \"#utility.yul\":1391:1395   */\n      0x24\n        /* \"#utility.yul\":1388:1389   */\n      0x00\n        /* \"#utility.yul\":1381:1396   */\n      revert\n        /* \"#utility.yul\":1408:1599   */\n    tag_21:\n        /* \"#utility.yul\":1448:1451   */\n      0x00\n        /* \"#utility.yul\":1467:1487   */\n      tag_151\n        /* \"#utility.yul\":1485:1486   */\n      dup3\n        /* \"#utility.yul\":1467:1487   */\n      tag_101\n      jump\t// in\n    tag_151:\n        /* \"#utility.yul\":1462:1487   */\n      swap2\n      pop\n        /* \"#utility.yul\":1501:1521   */\n      tag_152\n        /* \"#utility.yul\":1519:1520   */\n      dup4\n        /* \"#utility.yul\":1501:1521   */\n      tag_101\n      jump\t// in\n    tag_152:\n        /* \"#utility.yul\":1496:1521   */\n      swap3\n      pop\n        /* \"#utility.yul\":1544:1545   */\n      dup3\n        /* \"#utility.yul\":1541:1542   */\n      dup3\n        /* \"#utility.yul\":1537:1546   */\n      add\n        /* \"#utility.yul\":1530:1546   */\n      swap1\n      pop\n        /* \"#utility.yul\":1565:1568   */\n      dup1\n        /* \"#utility.yul\":1562:1563   */\n      dup3\n        /* \"#utility.yul\":1559:1569   */\n      gt\n        /* \"#utility.yul\":1556:1592   */\n      iszero\n      tag_153\n      jumpi\n        /* \"#utility.yul\":1572:1590   */\n      tag_154\n      tag_102\n      jump\t// in\n    tag_154:\n        /* \"#utility.yul\":1556:1592   */\n    tag_153:\n        /* \"#utility.yul\":1408:1599   */\n      swap3\n      swap2\n      pop\n      pop\n      jump\t// out\n        /* \"#utility.yul\":1605:1682   */\n    tag_103:\n        /* \"#utility.yul\":1642:1649   */\n      0x00\n        /* \"#utility.yul\":1671:1676   */\n      dup2\n        /* \"#utility.yul\":1660:1676   */\n      swap1\n      pop\n        /* \"#utility.yul\":1605:1682   */\n      swap2\n      swap1\n      pop\n      jump\t// out\n        /* \"#utility.yul\":1688:1806   */\n    tag_104:\n        /* \"#utility.yul\":1775:1799   */\n      tag_157\n        /* \"#utility.yul\":1793:1798   */\n      dup2\n        /* \"#utility.yul\":1775:1799   */\n      tag_103\n      jump\t// in\n    tag_157:\n        /* \"#utility.yul\":1770:1773   */\n      dup3\n        /* \"#utility.yul\":1763:1800   */\n      mstore\n        /* \"#utility.yul\":1688:1806   */\n      pop\n      pop\n      jump\t// out\n        /* \"#utility.yul\":1812:2034   */\n    tag_26:\n        /* \"#utility.yul\":1905:1909   */\n      0x00\n        /* \"#utility.yul\":1943:1945   */\n      0x20\n        /* \"#utility.yul\":1932:1941   */\n      dup3\n        /* \"#utility.yul\":1928:1946   */\n      add\n        /* \"#utility.yul\":1920:1946   */\n      swap1\n      pop\n        /* \"#utility.yul\":1956:2027   */\n      tag_159\n        /* \"#utility.yul\":2024:2025   */\n      0x00\n        /* \"#utility.yul\":2013:2022   */\n      dup4\n        /* \"#utility.yul\":2009:2026   */\n      add\n        /* \"#utility.yul\":2000:2006   */\n      dup5\n        /* \"#utility.yul\":1956:2027   */\n      tag_104\n      jump\t// in\n    tag_159:\n        /* \"#utility.yul\":1812:2034   */\n      swap3\n      swap2\n      pop\n      pop\n      jump\t// out\n        /* \"#utility.yul\":2040:2158   */\n    tag_105:\n        /* \"#utility.yul\":2127:2151   */\n      tag_161\n        /* \"#utility.yul\":2145:2150   */\n      dup2\n        /* \"#utility.yul\":2127:2151   */\n      tag_101\n      jump\t// in\n    tag_161:\n        /* \"#utility.yul\":2122:2125   */\n      dup3\n        /* \"#utility.yul\":2115:2152   */\n      mstore\n        /* \"#utility.yul\":2040:2158   */\n      pop\n      pop\n      jump\t// out\n        /* \"#utility.yul\":2164:2386   */\n    tag_31:\n        /* \"#utility.yul\":2257:2261   */\n      0x00\n        /* \"#utility.yul\":2295:2297   */\n      0x20\n        /* \"#utility.yul\":2284:2293   */\n      dup3\n        /* \"#utility.yul\":2280:2298   */\n      add\n        /* \"#utility.yul\":2272:2298   */\n      swap1\n      pop\n        /* \"#utility.yul\":2308:2379   */\n      tag_163\n        /* \"#utility.yul\":2376:2377   */\n      0x00\n        /* \"#utility.yul\":2365:2374   */\n      dup4\n        /* \"#utility.yul\":2361:2378   */\n      add\n        /* \"#utility.yul\":2352:2358   */\n      dup5\n        /* \"#utility.yul\":2308:2379   */\n      tag_105\n      jump\t// in\n    tag_163:\n        /* \"#utility.yul\":2164:2386   */\n      swap3\n      swap2\n      pop\n      pop\n      jump\t// out\n        /* \"#utility.yul\":2392:2482   */\n    tag_106:\n        /* \"#utility.yul\":2426:2433   */\n      0x00\n        /* \"#utility.yul\":2469:2474   */\n      dup2\n        /* \"#utility.yul\":2462:2475   */\n      iszero\n        /* \"#utility.yul\":2455:2476   */\n      iszero\n        /* \"#utility.yul\":2444:2476   */\n      swap1\n      pop\n        /* \"#utility.yul\":2392:2482   */\n      swap2\n      swap1\n      pop\n      jump\t// out\n        /* \"#utility.yul\":2488:2597   */\n    tag_107:\n        /* \"#utility.yul\":2569:2590   */\n      tag_166\n        /* \"#utility.yul\":2584:2589   */\n      dup2\n        /* \"#utility.yul\":2569:2590   */\n      tag_106\n      jump\t// in\n    tag_166:\n        /* \"#utility.yul\":2564:2567   */\n      dup3\n        /* \"#utility.yul\":2557:2591   */\n      mstore\n        /* \"#utility.yul\":2488:2597   */\n      pop\n      pop\n      jump\t// out\n        /* \"#utility.yul\":2603:2813   */\n    tag_36:\n        /* \"#utility.yul\":2690:2694   */\n      0x00\n        /* \"#utility.yul\":2728:2730   */\n      0x20\n        /* \"#utility.yul\":2717:2726   */\n      dup3\n        /* \"#utility.yul\":2713:2731   */\n      add\n        /* \"#utility.yul\":2705:2731   */\n      swap1\n      pop\n        /* \"#utility.yul\":2741:2806   */\n      tag_168\n        /* \"#utility.yul\":2803:2804   */\n      0x00\n        /* \"#utility.yul\":2792:2801   */\n      dup4\n        /* \"#utility.yul\":2788:2805   */\n      add\n        /* \"#utility.yul\":2779:2785   */\n      dup5\n        /* \"#utility.yul\":2741:2806   */\n      tag_107\n      jump\t// in\n    tag_168:\n        /* \"#utility.yul\":2603:2813   */\n      swap3\n      swap2\n      pop\n      pop\n      jump\t// out\n        /* \"#utility.yul\":2819:2894   */\n    tag_108:\n        /* \"#utility.yul\":2852:2858   */\n      0x00\n        /* \"#utility.yul\":2885:2887   */\n      0x40\n        /* \"#utility.yul\":2879:2888   */\n      mload\n        /* \"#utility.yul\":2869:2888   */\n      swap1\n      pop\n        /* \"#utility.yul\":2819:2894   */\n      swap1\n      jump\t// out\n        /* \"#utility.yul\":2900:3017   */\n    tag_109:\n        /* \"#utility.yul\":3009:3010   */\n      0x00\n        /* \"#utility.yul\":3006:3007   */\n      dup1\n        /* \"#utility.yul\":2999:3011   */\n      revert\n        /* \"#utility.yul\":3023:3140   */\n    tag_110:\n        /* \"#utility.yul\":3132:3133   */\n      0x00\n        /* \"#utility.yul\":3129:3130   */\n      dup1\n        /* \"#utility.yul\":3122:3134   */\n      revert\n        /* \"#utility.yul\":3146:3263   */\n    tag_111:\n        /* \"#utility.yul\":3255:3256   */\n      0x00\n        /* \"#utility.yul\":3252:3253   */\n      dup1\n        /* \"#utility.yul\":3245:3257   */\n      revert\n        /* \"#utility.yul\":3269:3386   */\n    tag_112:\n        /* \"#utility.yul\":3378:3379   */\n      0x00\n        /* \"#utility.yul\":3375:3376   */\n      dup1\n        /* \"#utility.yul\":3368:3380   */\n      revert\n        /* \"#utility.yul\":3392:3494   */\n    tag_113:\n        /* \"#utility.yul\":3433:3439   */\n      0x00\n        /* \"#utility.yul\":3484:3486   */\n      0x1f\n        /* \"#utility.yul\":3480:3487   */\n      not\n        /* \"#utility.yul\":3475:3477   */\n      0x1f\n        /* \"#utility.yul\":3468:3473   */\n      dup4\n        /* \"#utility.yul\":3464:3478   */\n      add\n        /* \"#utility.yul\":3460:3488   */\n      and\n        /* \"#utility.yul\":3450:3488   */\n      swap1\n      pop\n        /* \"#utility.yul\":3392:3494   */\n      swap2\n      swap1\n      pop\n      jump\t// out\n        /* \"#utility.yul\":3500:3680   */\n    tag_114:\n        /* \"#utility.yul\":3548:3625   */\n      0x4e487b7100000000000000000000000000000000000000000000000000000000\n        /* \"#utility.yul\":3545:3546   */\n      0x00\n        /* \"#utility.yul\":3538:3626   */\n      mstore\n        /* \"#utility.yul\":3645:3649   */\n      0x41\n        /* \"#utility.yul\":3642:3643   */\n      0x04\n        /* \"#utility.yul\":3635:3650   */\n      mstore\n        /* \"#utility.yul\":3669:3673   */\n      0x24\n        /* \"#utility.yul\":3666:3667   */\n      0x00\n        /* \"#utility.yul\":3659:3674   */\n      revert\n        /* \"#utility.yul\":3686:3967   */\n    tag_115:\n        /* \"#utility.yul\":3769:3796   */\n      tag_177\n        /* \"#utility.yul\":3791:3795   */\n      dup3\n        /* \"#utility.yul\":3769:3796   */\n      tag_113\n      jump\t// in\n    tag_177:\n        /* \"#utility.yul\":3761:3767   */\n      dup2\n        /* \"#utility.yul\":3757:3797   */\n      add\n        /* \"#utility.yul\":3899:3905   */\n      dup2\n        /* \"#utility.yul\":3887:3897   */\n      dup2\n        /* \"#utility.yul\":3884:3906   */\n      lt\n        /* \"#utility.yul\":3863:3881   */\n      0xffffffffffffffff\n        /* \"#utility.yul\":3851:3861   */\n      dup3\n        /* \"#utility.yul\":3848:3882   */\n      gt\n        /* \"#utility.yul\":3845:3907   */\n      or\n        /* \"#utility.yul\":3842:3930   */\n      iszero\n      tag_178\n      jumpi\n        /* \"#utility.yul\":3910:3928   */\n      tag_179\n      tag_114\n      jump\t// in\n    tag_179:\n        /* \"#utility.yul\":3842:3930   */\n    tag_178:\n        /* \"#utility.yul\":3950:3960   */\n      dup1\n        /* \"#utility.yul\":3946:3948   */\n      0x40\n        /* \"#utility.yul\":3939:3961   */\n      mstore\n        /* \"#utility.yul\":3729:3967   */\n      pop\n        /* \"#utility.yul\":3686:3967   */\n      pop\n      pop\n      jump\t// out\n        /* \"#utility.yul\":3973:4102   */\n    tag_116:\n        /* \"#utility.yul\":4007:4013   */\n      0x00\n        /* \"#utility.yul\":4034:4054   */\n      tag_181\n      tag_108\n      jump\t// in\n    tag_181:\n        /* \"#utility.yul\":4024:4054   */\n      swap1\n      pop\n        /* \"#utility.yul\":4063:4096   */\n      tag_182\n        /* \"#utility.yul\":4091:4095   */\n      dup3\n        /* \"#utility.yul\":4083:4089   */\n      dup3\n        /* \"#utility.yul\":4063:4096   */\n      tag_115\n      jump\t// in\n    tag_182:\n        /* \"#utility.yul\":3973:4102   */\n      swap2\n      swap1\n      pop\n      jump\t// out\n        /* \"#utility.yul\":4108:4416   */\n    tag_117:\n        /* \"#utility.yul\":4170:4174   */\n      0x00\n        /* \"#utility.yul\":4260:4278   */\n      0xffffffffffffffff\n        /* \"#utility.yul\":4252:4258   */\n      dup3\n        /* \"#utility.yul\":4249:4279   */\n      gt\n        /* \"#utility.yul\":4246:4302   */\n      iszero\n      tag_184\n      jumpi\n        /* \"#utility.yul\":4282:4300   */\n      tag_185\n      tag_114\n      jump\t// in\n    tag_185:\n        /* \"#utility.yul\":4246:4302   */\n    tag_184:\n        /* \"#utility.yul\":4320:4349   */\n      tag_186\n        /* \"#utility.yul\":4342:4348   */\n      dup3\n        /* \"#utility.yul\":4320:4349   */\n      tag_113\n      jump\t// in\n    tag_186:\n        /* \"#utility.yul\":4312:4349   */\n      swap1\n      pop\n        /* \"#utility.yul\":4404:4408   */\n      0x20\n        /* \"#utility.yul\":4398:4402   */\n      dup2\n        /* \"#utility.yul\":4394:4409   */\n      add\n        /* \"#utility.yul\":4386:4409   */\n      swap1\n      pop\n        /* \"#utility.yul\":4108:4416   */\n      swap2\n      swap1\n      pop\n      jump\t// out\n        /* \"#utility.yul\":4422:4568   */\n    tag_118:\n        /* \"#utility.yul\":4519:4525   */\n      dup3\n        /* \"#utility.yul\":4514:4517   */\n      dup2\n        /* \"#utility.yul\":4509:4512   */\n      dup4\n        /* \"#utility.yul\":4496:4526   */\n      calldatacopy\n        /* \"#utility.yul\":4560:4561   */\n      0x00\n        /* \"#utility.yul\":4551:4557   */\n      dup4\n        /* \"#utility.yul\":4546:4549   */\n      dup4\n        /* \"#utility.yul\":4542:4558   */\n      add\n        /* \"#utility.yul\":4535:4562   */\n      mstore\n        /* \"#utility.yul\":4422:4568   */\n      pop\n      pop\n      pop\n      jump\t// out\n        /* \"#utility.yul\":4574:4999   */\n    tag_119:\n        /* \"#utility.yul\":4652:4657   */\n      0x00\n        /* \"#utility.yul\":4677:4743   */\n      tag_189\n        /* \"#utility.yul\":4693:4742   */\n      tag_190\n        /* \"#utility.yul\":4735:4741   */\n      dup5\n        /* \"#utility.yul\":4693:4742   */\n      tag_117\n      jump\t// in\n    tag_190:\n        /* \"#utility.yul\":4677:4743   */\n      tag_116\n      jump\t// in\n    tag_189:\n        /* \"#utility.yul\":4668:4743   */\n      swap1\n      pop\n        /* \"#utility.yul\":4766:4772   */\n      dup3\n        /* \"#utility.yul\":4759:4764   */\n      dup2\n        /* \"#utility.yul\":4752:4773   */\n      mstore\n        /* \"#utility.yul\":4804:4808   */\n      0x20\n        /* \"#utility.yul\":4797:4802   */\n      dup2\n        /* \"#utility.yul\":4793:4809   */\n      add\n        /* \"#utility.yul\":4842:4845   */\n      dup5\n        /* \"#utility.yul\":4833:4839   */\n      dup5\n        /* \"#utility.yul\":4828:4831   */\n      dup5\n        /* \"#utility.yul\":4824:4840   */\n      add\n        /* \"#utility.yul\":4821:4846   */\n      gt\n        /* \"#utility.yul\":4818:4930   */\n      iszero\n      tag_191\n      jumpi\n        /* \"#utility.yul\":4849:4928   */\n      tag_192\n      tag_112\n      jump\t// in\n    tag_192:\n        /* \"#utility.yul\":4818:4930   */\n    tag_191:\n        /* \"#utility.yul\":4939:4993   */\n      tag_193\n        /* \"#utility.yul\":4986:4992   */\n      dup5\n        /* \"#utility.yul\":4981:4984   */\n      dup3\n        /* \"#utility.yul\":4976:4979   */\n      dup6\n        /* \"#utility.yul\":4939:4993   */\n      tag_118\n      jump\t// in\n    tag_193:\n        /* \"#utility.yul\":4658:4999   */\n      pop\n        /* \"#utility.yul\":4574:4999   */\n      swap4\n      swap3\n      pop\n      pop\n      pop\n      jump\t// out\n        /* \"#utility.yul\":5019:5359   */\n    tag_120:\n        /* \"#utility.yul\":5075:5080   */\n      0x00\n        /* \"#utility.yul\":5124:5127   */\n      dup3\n        /* \"#utility.yul\":5117:5121   */\n      0x1f\n        /* \"#utility.yul\":5109:5115   */\n      dup4\n        /* \"#utility.yul\":5105:5122   */\n      add\n        /* \"#utility.yul\":5101:5128   */\n      slt\n        /* \"#utility.yul\":5091:5213   */\n      tag_195\n      jumpi\n        /* \"#utility.yul\":5132:5211   */\n      tag_196\n      tag_111\n      jump\t// in\n    tag_196:\n        /* \"#utility.yul\":5091:5213   */\n    tag_195:\n        /* \"#utility.yul\":5249:5255   */\n      dup2\n        /* \"#utility.yul\":5236:5256   */\n      calldataload\n        /* \"#utility.yul\":5274:5353   */\n      tag_197\n        /* \"#utility.yul\":5349:5352   */\n      dup5\n        /* \"#utility.yul\":5341:5347   */\n      dup3\n        /* \"#utility.yul\":5334:5338   */\n      0x20\n        /* \"#utility.yul\":5326:5332   */\n      dup7\n        /* \"#utility.yul\":5322:5339   */\n      add\n        /* \"#utility.yul\":5274:5353   */\n      tag_119\n      jump\t// in\n    tag_197:\n        /* \"#utility.yul\":5265:5353   */\n      swap2\n      pop\n        /* \"#utility.yul\":5081:5359   */\n      pop\n        /* \"#utility.yul\":5019:5359   */\n      swap3\n      swap2\n      pop\n      pop\n      jump\t// out\n        /* \"#utility.yul\":5365:5874   */\n    tag_40:\n        /* \"#utility.yul\":5434:5440   */\n      0x00\n        /* \"#utility.yul\":5483:5485   */\n      0x20\n        /* \"#utility.yul\":5471:5480   */\n      dup3\n        /* \"#utility.yul\":5462:5469   */\n      dup5\n        /* \"#utility.yul\":5458:5481   */\n      sub\n        /* \"#utility.yul\":5454:5486   */\n      slt\n        /* \"#utility.yul\":5451:5570   */\n      iszero\n      tag_199\n      jumpi\n        /* \"#utility.yul\":5489:5568   */\n      tag_200\n      tag_109\n      jump\t// in\n    tag_200:\n        /* \"#utility.yul\":5451:5570   */\n    tag_199:\n        /* \"#utility.yul\":5637:5638   */\n      0x00\n        /* \"#utility.yul\":5626:5635   */\n      dup3\n        /* \"#utility.yul\":5622:5639   */\n      add\n        /* \"#utility.yul\":5609:5640   */\n      calldataload\n        /* \"#utility.yul\":5667:5685   */\n      0xffffffffffffffff\n        /* \"#utility.yul\":5659:5665   */\n      dup2\n        /* \"#utility.yul\":5656:5686   */\n      gt\n        /* \"#utility.yul\":5653:5770   */\n      iszero\n      tag_201\n      jumpi\n        /* \"#utility.yul\":5689:5768   */\n      tag_202\n      tag_110\n      jump\t// in\n    tag_202:\n        /* \"#utility.yul\":5653:5770   */\n    tag_201:\n        /* \"#utility.yul\":5794:5857   */\n      tag_203\n        /* \"#utility.yul\":5849:5856   */\n      dup5\n        /* \"#utility.yul\":5840:5846   */\n      dup3\n        /* \"#utility.yul\":5829:5838   */\n      dup6\n        /* \"#utility.yul\":5825:5847   */\n      add\n        /* \"#utility.yul\":5794:5857   */\n      tag_120\n      jump\t// in\n    tag_203:\n        /* \"#utility.yul\":5784:5857   */\n      swap2\n      pop\n        /* \"#utility.yul\":5580:5867   */\n      pop\n        /* \"#utility.yul\":5365:5874   */\n      swap3\n      swap2\n      pop\n      pop\n      jump\t// out\n        /* \"#utility.yul\":5880:6006   */\n    tag_121:\n        /* \"#utility.yul\":5917:5924   */\n      0x00\n        /* \"#utility.yul\":5957:5999   */\n      0xffffffffffffffffffffffffffffffffffffffff\n        /* \"#utility.yul\":5950:5955   */\n      dup3\n        /* \"#utility.yul\":5946:6000   */\n      and\n        /* \"#utility.yul\":5935:6000   */\n      swap1\n      pop\n        /* \"#utility.yul\":5880:6006   */\n      swap2\n      swap1\n      pop\n      jump\t// out\n        /* \"#utility.yul\":6012:6108   */\n    tag_122:\n        /* \"#utility.yul\":6049:6056   */\n      0x00\n        /* \"#utility.yul\":6078:6102   */\n      tag_206\n        /* \"#utility.yul\":6096:6101   */\n      dup3\n        /* \"#utility.yul\":6078:6102   */\n      tag_121\n      jump\t// in\n    tag_206:\n        /* \"#utility.yul\":6067:6102   */\n      swap1\n      pop\n        /* \"#utility.yul\":6012:6108   */\n      swap2\n      swap1\n      pop\n      jump\t// out\n        /* \"#utility.yul\":6114:6232   */\n    tag_123:\n        /* \"#utility.yul\":6201:6225   */\n      tag_208\n        /* \"#utility.yul\":6219:6224   */\n      dup2\n        /* \"#utility.yul\":6201:6225   */\n      tag_122\n      jump\t// in\n    tag_208:\n        /* \"#utility.yul\":6196:6199   */\n      dup3\n        /* \"#utility.yul\":6189:6226   */\n      mstore\n        /* \"#utility.yul\":6114:6232   */\n      pop\n      pop\n      jump\t// out\n        /* \"#utility.yul\":6238:6460   */\n    tag_57:\n        /* \"#utility.yul\":6331:6335   */\n      0x00\n        /* \"#utility.yul\":6369:6371   */\n      0x20\n        /* \"#utility.yul\":6358:6367   */\n      dup3\n        /* \"#utility.yul\":6354:6372   */\n      add\n        /* \"#utility.yul\":6346:6372   */\n      swap1\n      pop\n        /* \"#utility.yul\":6382:6453   */\n      tag_210\n        /* \"#utility.yul\":6450:6451   */\n      0x00\n        /* \"#utility.yul\":6439:6448   */\n      dup4\n        /* \"#utility.yul\":6435:6452   */\n      add\n        /* \"#utility.yul\":6426:6432   */\n      dup5\n        /* \"#utility.yul\":6382:6453   */\n      tag_123\n      jump\t// in\n    tag_210:\n        /* \"#utility.yul\":6238:6460   */\n      swap3\n      swap2\n      pop\n      pop\n      jump\t// out\n        /* \"#utility.yul\":6466:6565   */\n    tag_124:\n        /* \"#utility.yul\":6518:6524   */\n      0x00\n        /* \"#utility.yul\":6552:6557   */\n      dup2\n        /* \"#utility.yul\":6546:6558   */\n      mload\n        /* \"#utility.yul\":6536:6558   */\n      swap1\n      pop\n        /* \"#utility.yul\":6466:6565   */\n      swap2\n      swap1\n      pop\n      jump\t// out\n        /* \"#utility.yul\":6571:6817   */\n    tag_125:\n        /* \"#utility.yul\":6652:6653   */\n      0x00\n        /* \"#utility.yul\":6662:6775   */\n    tag_213:\n        /* \"#utility.yul\":6676:6682   */\n      dup4\n        /* \"#utility.yul\":6673:6674   */\n      dup2\n        /* \"#utility.yul\":6670:6683   */\n      lt\n        /* \"#utility.yul\":6662:6775   */\n      iszero\n      tag_215\n      jumpi\n        /* \"#utility.yul\":6761:6762   */\n      dup1\n        /* \"#utility.yul\":6756:6759   */\n      dup3\n        /* \"#utility.yul\":6752:6763   */\n      add\n        /* \"#utility.yul\":6746:6764   */\n      mload\n        /* \"#utility.yul\":6742:6743   */\n      dup2\n        /* \"#utility.yul\":6737:6740   */\n      dup5\n        /* \"#utility.yul\":6733:6744   */\n      add\n        /* \"#utility.yul\":6726:6765   */\n      mstore\n        /* \"#utility.yul\":6698:6700   */\n      0x20\n        /* \"#utility.yul\":6695:6696   */\n      dup2\n        /* \"#utility.yul\":6691:6701   */\n      add\n        /* \"#utility.yul\":6686:6701   */\n      swap1\n      pop\n        /* \"#utility.yul\":6662:6775   */\n      jump(tag_213)\n    tag_215:\n        /* \"#utility.yul\":6809:6810   */\n      0x00\n        /* \"#utility.yul\":6800:6806   */\n      dup5\n        /* \"#utility.yul\":6795:6798   */\n      dup5\n        /* \"#utility.yul\":6791:6807   */\n      add\n        /* \"#utility.yul\":6784:6811   */\n      mstore\n        /* \"#utility.yul\":6633:6817   */\n      pop\n        /* \"#utility.yul\":6571:6817   */\n      pop\n      pop\n      pop\n      jump\t// out\n        /* \"#utility.yul\":6823:7200   */\n    tag_126:\n        /* \"#utility.yul\":6911:6914   */\n      0x00\n        /* \"#utility.yul\":6939:6978   */\n      tag_217\n        /* \"#utility.yul\":6972:6977   */\n      dup3\n        /* \"#utility.yul\":6939:6978   */\n      tag_124\n      jump\t// in\n    tag_217:\n        /* \"#utility.yul\":6994:7065   */\n      tag_218\n        /* \"#utility.yul\":7058:7064   */\n      dup2\n        /* \"#utility.yul\":7053:7056   */\n      dup6\n        /* \"#utility.yul\":6994:7065   */\n      tag_98\n      jump\t// in\n    tag_218:\n        /* \"#utility.yul\":6987:7065   */\n      swap4\n      pop\n        /* \"#utility.yul\":7074:7139   */\n      tag_219\n        /* \"#utility.yul\":7132:7138   */\n      dup2\n        /* \"#utility.yul\":7127:7130   */\n      dup6\n        /* \"#utility.yul\":7120:7124   */\n      0x20\n        /* \"#utility.yul\":7113:7118   */\n      dup7\n        /* \"#utility.yul\":7109:7125   */\n      add\n        /* \"#utility.yul\":7074:7139   */\n      tag_125\n      jump\t// in\n    tag_219:\n        /* \"#utility.yul\":7164:7193   */\n      tag_220\n        /* \"#utility.yul\":7186:7192   */\n      dup2\n        /* \"#utility.yul\":7164:7193   */\n      tag_113\n      jump\t// in\n    tag_220:\n        /* \"#utility.yul\":7159:7162   */\n      dup5\n        /* \"#utility.yul\":7155:7194   */\n      add\n        /* \"#utility.yul\":7148:7194   */\n      swap2\n      pop\n        /* \"#utility.yul\":6915:7200   */\n      pop\n        /* \"#utility.yul\":6823:7200   */\n      swap3\n      swap2\n      pop\n      pop\n      jump\t// out\n        /* \"#utility.yul\":7206:7519   */\n    tag_62:\n        /* \"#utility.yul\":7319:7323   */\n      0x00\n        /* \"#utility.yul\":7357:7359   */\n      0x20\n        /* \"#utility.yul\":7346:7355   */\n      dup3\n        /* \"#utility.yul\":7342:7360   */\n      add\n        /* \"#utility.yul\":7334:7360   */\n      swap1\n      pop\n        /* \"#utility.yul\":7406:7415   */\n      dup2\n        /* \"#utility.yul\":7400:7404   */\n      dup2\n        /* \"#utility.yul\":7396:7416   */\n      sub\n        /* \"#utility.yul\":7392:7393   */\n      0x00\n        /* \"#utility.yul\":7381:7390   */\n      dup4\n        /* \"#utility.yul\":7377:7394   */\n      add\n        /* \"#utility.yul\":7370:7417   */\n      mstore\n        /* \"#utility.yul\":7434:7512   */\n      tag_222\n        /* \"#utility.yul\":7507:7511   */\n      dup2\n        /* \"#utility.yul\":7498:7504   */\n      dup5\n        /* \"#utility.yul\":7434:7512   */\n      tag_126\n      jump\t// in\n    tag_222:\n        /* \"#utility.yul\":7426:7512   */\n      swap1\n      pop\n        /* \"#utility.yul\":7206:7519   */\n      swap3\n      swap2\n      pop\n      pop\n      jump\t// out\n        /* \"#utility.yul\":7525:7692   */\n    tag_127:\n        /* \"#utility.yul\":7665:7684   */\n      0x796f7520617265206e6f7420506574726f000000000000000000000000000000\n        /* \"#utility.yul\":7661:7662   */\n      0x00\n        /* \"#utility.yul\":7653:7659   */\n      dup3\n        /* \"#utility.yul\":7649:7663   */\n      add\n        /* \"#utility.yul\":7642:7685   */\n      mstore\n        /* \"#utility.yul\":7525:7692   */\n      pop\n      jump\t// out\n        /* \"#utility.yul\":7698:8064   */\n    tag_128:\n        /* \"#utility.yul\":7840:7843   */\n      0x00\n        /* \"#utility.yul\":7861:7928   */\n      tag_225\n        /* \"#utility.yul\":7925:7927   */\n      0x11\n        /* \"#utility.yul\":7920:7923   */\n      dup4\n        /* \"#utility.yul\":7861:7928   */\n      tag_98\n      jump\t// in\n    tag_225:\n        /* \"#utility.yul\":7854:7928   */\n      swap2\n      pop\n        /* \"#utility.yul\":7937:8030   */\n      tag_226\n        /* \"#utility.yul\":8026:8029   */\n      dup3\n        /* \"#utility.yul\":7937:8030   */\n      tag_127\n      jump\t// in\n    tag_226:\n        /* \"#utility.yul\":8055:8057   */\n      0x20\n        /* \"#utility.yul\":8050:8053   */\n      dup3\n        /* \"#utility.yul\":8046:8058   */\n      add\n        /* \"#utility.yul\":8039:8058   */\n      swap1\n      pop\n        /* \"#utility.yul\":7698:8064   */\n      swap2\n      swap1\n      pop\n      jump\t// out\n        /* \"#utility.yul\":8070:8489   */\n    tag_70:\n        /* \"#utility.yul\":8236:8240   */\n      0x00\n        /* \"#utility.yul\":8274:8276   */\n      0x20\n        /* \"#utility.yul\":8263:8272   */\n      dup3\n        /* \"#utility.yul\":8259:8277   */\n      add\n        /* \"#utility.yul\":8251:8277   */\n      swap1\n      pop\n        /* \"#utility.yul\":8323:8332   */\n      dup2\n        /* \"#utility.yul\":8317:8321   */\n      dup2\n        /* \"#utility.yul\":8313:8333   */\n      sub\n        /* \"#utility.yul\":8309:8310   */\n      0x00\n        /* \"#utility.yul\":8298:8307   */\n      dup4\n        /* \"#utility.yul\":8294:8311   */\n      add\n        /* \"#utility.yul\":8287:8334   */\n      mstore\n        /* \"#utility.yul\":8351:8482   */\n      tag_228\n        /* \"#utility.yul\":8477:8481   */\n      dup2\n        /* \"#utility.yul\":8351:8482   */\n      tag_128\n      jump\t// in\n    tag_228:\n        /* \"#utility.yul\":8343:8482   */\n      swap1\n      pop\n        /* \"#utility.yul\":8070:8489   */\n      swap2\n      swap1\n      pop\n      jump\t// out\n        /* \"#utility.yul\":8495:8659   */\n    tag_129:\n        /* \"#utility.yul\":8635:8651   */\n      0x706572696f642065787069726564000000000000000000000000000000000000\n        /* \"#utility.yul\":8631:8632   */\n      0x00\n        /* \"#utility.yul\":8623:8629   */\n      dup3\n        /* \"#utility.yul\":8619:8633   */\n      add\n        /* \"#utility.yul\":8612:8652   */\n      mstore\n        /* \"#utility.yul\":8495:8659   */\n      pop\n      jump\t// out\n        /* \"#utility.yul\":8665:9031   */\n    tag_130:\n        /* \"#utility.yul\":8807:8810   */\n      0x00\n        /* \"#utility.yul\":8828:8895   */\n      tag_231\n        /* \"#utility.yul\":8892:8894   */\n      0x0e\n        /* \"#utility.yul\":8887:8890   */\n      dup4\n        /* \"#utility.yul\":8828:8895   */\n      tag_98\n      jump\t// in\n    tag_231:\n        /* \"#utility.yul\":8821:8895   */\n      swap2\n      pop\n        /* \"#utility.yul\":8904:8997   */\n      tag_232\n        /* \"#utility.yul\":8993:8996   */\n      dup3\n        /* \"#utility.yul\":8904:8997   */\n      tag_129\n      jump\t// in\n    tag_232:\n        /* \"#utility.yul\":9022:9024   */\n      0x20\n        /* \"#utility.yul\":9017:9020   */\n      dup3\n        /* \"#utility.yul\":9013:9025   */\n      add\n        /* \"#utility.yul\":9006:9025   */\n      swap1\n      pop\n        /* \"#utility.yul\":8665:9031   */\n      swap2\n      swap1\n      pop\n      jump\t// out\n        /* \"#utility.yul\":9037:9456   */\n    tag_74:\n        /* \"#utility.yul\":9203:9207   */\n      0x00\n        /* \"#utility.yul\":9241:9243   */\n      0x20\n        /* \"#utility.yul\":9230:9239   */\n      dup3\n        /* \"#utility.yul\":9226:9244   */\n      add\n        /* \"#utility.yul\":9218:9244   */\n      swap1\n      pop\n        /* \"#utility.yul\":9290:9299   */\n      dup2\n        /* \"#utility.yul\":9284:9288   */\n      dup2\n        /* \"#utility.yul\":9280:9300   */\n      sub\n        /* \"#utility.yul\":9276:9277   */\n      0x00\n        /* \"#utility.yul\":9265:9274   */\n      dup4\n        /* \"#utility.yul\":9261:9278   */\n      add\n        /* \"#utility.yul\":9254:9301   */\n      mstore\n        /* \"#utility.yul\":9318:9449   */\n      tag_234\n        /* \"#utility.yul\":9444:9448   */\n      dup2\n        /* \"#utility.yul\":9318:9449   */\n      tag_130\n      jump\t// in\n    tag_234:\n        /* \"#utility.yul\":9310:9449   */\n      swap1\n      pop\n        /* \"#utility.yul\":9037:9456   */\n      swap2\n      swap1\n      pop\n      jump\t// out\n        /* \"#utility.yul\":9462:9610   */\n    tag_131:\n        /* \"#utility.yul\":9564:9575   */\n      0x00\n        /* \"#utility.yul\":9601:9604   */\n      dup2\n        /* \"#utility.yul\":9586:9604   */\n      swap1\n      pop\n        /* \"#utility.yul\":9462:9610   */\n      swap3\n      swap2\n      pop\n      pop\n      jump\t// out\n        /* \"#utility.yul\":9616:10006   */\n    tag_132:\n        /* \"#utility.yul\":9722:9725   */\n      0x00\n        /* \"#utility.yul\":9750:9789   */\n      tag_237\n        /* \"#utility.yul\":9783:9788   */\n      dup3\n        /* \"#utility.yul\":9750:9789   */\n      tag_124\n      jump\t// in\n    tag_237:\n        /* \"#utility.yul\":9805:9894   */\n      tag_238\n        /* \"#utility.yul\":9887:9893   */\n      dup2\n        /* \"#utility.yul\":9882:9885   */\n      dup6\n        /* \"#utility.yul\":9805:9894   */\n      tag_131\n      jump\t// in\n    tag_238:\n        /* \"#utility.yul\":9798:9894   */\n      swap4\n      pop\n        /* \"#utility.yul\":9903:9968   */\n      tag_239\n        /* \"#utility.yul\":9961:9967   */\n      dup2\n        /* \"#utility.yul\":9956:9959   */\n      dup6\n        /* \"#utility.yul\":9949:9953   */\n      0x20\n        /* \"#utility.yul\":9942:9947   */\n      dup7\n        /* \"#utility.yul\":9938:9954   */\n      add\n        /* \"#utility.yul\":9903:9968   */\n      tag_125\n      jump\t// in\n    tag_239:\n        /* \"#utility.yul\":9993:9999   */\n      dup1\n        /* \"#utility.yul\":9988:9991   */\n      dup5\n        /* \"#utility.yul\":9984:10000   */\n      add\n        /* \"#utility.yul\":9977:10000   */\n      swap2\n      pop\n        /* \"#utility.yul\":9726:10006   */\n      pop\n        /* \"#utility.yul\":9616:10006   */\n      swap3\n      swap2\n      pop\n      pop\n      jump\t// out\n        /* \"#utility.yul\":10012:10287   */\n    tag_76:\n        /* \"#utility.yul\":10144:10147   */\n      0x00\n        /* \"#utility.yul\":10166:10261   */\n      tag_241\n        /* \"#utility.yul\":10257:10260   */\n      dup3\n        /* \"#utility.yul\":10248:10254   */\n      dup5\n        /* \"#utility.yul\":10166:10261   */\n      tag_132\n      jump\t// in\n    tag_241:\n        /* \"#utility.yul\":10159:10261   */\n      swap2\n      pop\n        /* \"#utility.yul\":10278:10281   */\n      dup2\n        /* \"#utility.yul\":10271:10281   */\n      swap1\n      pop\n        /* \"#utility.yul\":10012:10287   */\n      swap3\n      swap2\n      pop\n      pop\n      jump\t// out\n        /* \"#utility.yul\":10293:10457   */\n    tag_133:\n        /* \"#utility.yul\":10433:10449   */\n      0x496e76616c696420736563726574000000000000000000000000000000000000\n        /* \"#utility.yul\":10429:10430   */\n      0x00\n        /* \"#utility.yul\":10421:10427   */\n      dup3\n        /* \"#utility.yul\":10417:10431   */\n      add\n        /* \"#utility.yul\":10410:10450   */\n      mstore\n        /* \"#utility.yul\":10293:10457   */\n      pop\n      jump\t// out\n        /* \"#utility.yul\":10463:10829   */\n    tag_134:\n        /* \"#utility.yul\":10605:10608   */\n      0x00\n        /* \"#utility.yul\":10626:10693   */\n      tag_244\n        /* \"#utility.yul\":10690:10692   */\n      0x0e\n        /* \"#utility.yul\":10685:10688   */\n      dup4\n        /* \"#utility.yul\":10626:10693   */\n      tag_98\n      jump\t// in\n    tag_244:\n        /* \"#utility.yul\":10619:10693   */\n      swap2\n      pop\n        /* \"#utility.yul\":10702:10795   */\n      tag_245\n        /* \"#utility.yul\":10791:10794   */\n      dup3\n        /* \"#utility.yul\":10702:10795   */\n      tag_133\n      jump\t// in\n    tag_245:\n        /* \"#utility.yul\":10820:10822   */\n      0x20\n        /* \"#utility.yul\":10815:10818   */\n      dup3\n        /* \"#utility.yul\":10811:10823   */\n      add\n        /* \"#utility.yul\":10804:10823   */\n      swap1\n      pop\n        /* \"#utility.yul\":10463:10829   */\n      swap2\n      swap1\n      pop\n      jump\t// out\n        /* \"#utility.yul\":10835:11254   */\n    tag_79:\n        /* \"#utility.yul\":11001:11005   */\n      0x00\n        /* \"#utility.yul\":11039:11041   */\n      0x20\n        /* \"#utility.yul\":11028:11037   */\n      dup3\n        /* \"#utility.yul\":11024:11042   */\n      add\n        /* \"#utility.yul\":11016:11042   */\n      swap1\n      pop\n        /* \"#utility.yul\":11088:11097   */\n      dup2\n        /* \"#utility.yul\":11082:11086   */\n      dup2\n        /* \"#utility.yul\":11078:11098   */\n      sub\n        /* \"#utility.yul\":11074:11075   */\n      0x00\n        /* \"#utility.yul\":11063:11072   */\n      dup4\n        /* \"#utility.yul\":11059:11076   */\n      add\n        /* \"#utility.yul\":11052:11099   */\n      mstore\n        /* \"#utility.yul\":11116:11247   */\n      tag_247\n        /* \"#utility.yul\":11242:11246   */\n      dup2\n        /* \"#utility.yul\":11116:11247   */\n      tag_134\n      jump\t// in\n    tag_247:\n        /* \"#utility.yul\":11108:11247   */\n      swap1\n      pop\n        /* \"#utility.yul\":10835:11254   */\n      swap2\n      swap1\n      pop\n      jump\t// out\n        /* \"#utility.yul\":11260:11428   */\n    tag_135:\n        /* \"#utility.yul\":11400:11420   */\n      0x796f7520617265206e6f7420446d7974726f0000000000000000000000000000\n        /* \"#utility.yul\":11396:11397   */\n      0x00\n        /* \"#utility.yul\":11388:11394   */\n      dup3\n        /* \"#utility.yul\":11384:11398   */\n      add\n        /* \"#utility.yul\":11377:11421   */\n      mstore\n        /* \"#utility.yul\":11260:11428   */\n      pop\n      jump\t// out\n        /* \"#utility.yul\":11434:11800   */\n    tag_136:\n        /* \"#utility.yul\":11576:11579   */\n      0x00\n        /* \"#utility.yul\":11597:11664   */\n      tag_250\n        /* \"#utility.yul\":11661:11663   */\n      0x12\n        /* \"#utility.yul\":11656:11659   */\n      dup4\n        /* \"#utility.yul\":11597:11664   */\n      tag_98\n      jump\t// in\n    tag_250:\n        /* \"#utility.yul\":11590:11664   */\n      swap2\n      pop\n        /* \"#utility.yul\":11673:11766   */\n      tag_251\n        /* \"#utility.yul\":11762:11765   */\n      dup3\n        /* \"#utility.yul\":11673:11766   */\n      tag_135\n      jump\t// in\n    tag_251:\n        /* \"#utility.yul\":11791:11793   */\n      0x20\n        /* \"#utility.yul\":11786:11789   */\n      dup3\n        /* \"#utility.yul\":11782:11794   */\n      add\n        /* \"#utility.yul\":11775:11794   */\n      swap1\n      pop\n        /* \"#utility.yul\":11434:11800   */\n      swap2\n      swap1\n      pop\n      jump\t// out\n        /* \"#utility.yul\":11806:12225   */\n    tag_85:\n        /* \"#utility.yul\":11972:11976   */\n      0x00\n        /* \"#utility.yul\":12010:12012   */\n      0x20\n        /* \"#utility.yul\":11999:12008   */\n      dup3\n        /* \"#utility.yul\":11995:12013   */\n      add\n        /* \"#utility.yul\":11987:12013   */\n      swap1\n      pop\n        /* \"#utility.yul\":12059:12068   */\n      dup2\n        /* \"#utility.yul\":12053:12057   */\n      dup2\n        /* \"#utility.yul\":12049:12069   */\n      sub\n        /* \"#utility.yul\":12045:12046   */\n      0x00\n        /* \"#utility.yul\":12034:12043   */\n      dup4\n        /* \"#utility.yul\":12030:12047   */\n      add\n        /* \"#utility.yul\":12023:12070   */\n      mstore\n        /* \"#utility.yul\":12087:12218   */\n      tag_253\n        /* \"#utility.yul\":12213:12217   */\n      dup2\n        /* \"#utility.yul\":12087:12218   */\n      tag_136\n      jump\t// in\n    tag_253:\n        /* \"#utility.yul\":12079:12218   */\n      swap1\n      pop\n        /* \"#utility.yul\":11806:12225   */\n      swap2\n      swap1\n      pop\n      jump\t// out\n        /* \"#utility.yul\":12231:12399   */\n    tag_137:\n        /* \"#utility.yul\":12371:12391   */\n      0x6974206973206e6f742074696d65207965740000000000000000000000000000\n        /* \"#utility.yul\":12367:12368   */\n      0x00\n        /* \"#utility.yul\":12359:12365   */\n      dup3\n        /* \"#utility.yul\":12355:12369   */\n      add\n        /* \"#utility.yul\":12348:12392   */\n      mstore\n        /* \"#utility.yul\":12231:12399   */\n      pop\n      jump\t// out\n        /* \"#utility.yul\":12405:12771   */\n    tag_138:\n        /* \"#utility.yul\":12547:12550   */\n      0x00\n        /* \"#utility.yul\":12568:12635   */\n      tag_256\n        /* \"#utility.yul\":12632:12634   */\n      0x12\n        /* \"#utility.yul\":12627:12630   */\n      dup4\n        /* \"#utility.yul\":12568:12635   */\n      tag_98\n      jump\t// in\n    tag_256:\n        /* \"#utility.yul\":12561:12635   */\n      swap2\n      pop\n        /* \"#utility.yul\":12644:12737   */\n      tag_257\n        /* \"#utility.yul\":12733:12736   */\n      dup3\n        /* \"#utility.yul\":12644:12737   */\n      tag_137\n      jump\t// in\n    tag_257:\n        /* \"#utility.yul\":12762:12764   */\n      0x20\n        /* \"#utility.yul\":12757:12760   */\n      dup3\n        /* \"#utility.yul\":12753:12765   */\n      add\n        /* \"#utility.yul\":12746:12765   */\n      swap1\n      pop\n        /* \"#utility.yul\":12405:12771   */\n      swap2\n      swap1\n      pop\n      jump\t// out\n        /* \"#utility.yul\":12777:13196   */\n    tag_89:\n        /* \"#utility.yul\":12943:12947   */\n      0x00\n        /* \"#utility.yul\":12981:12983   */\n      0x20\n        /* \"#utility.yul\":12970:12979   */\n      dup3\n        /* \"#utility.yul\":12966:12984   */\n      add\n        /* \"#utility.yul\":12958:12984   */\n      swap1\n      pop\n        /* \"#utility.yul\":13030:13039   */\n      dup2\n        /* \"#utility.yul\":13024:13028   */\n      dup2\n        /* \"#utility.yul\":13020:13040   */\n      sub\n        /* \"#utility.yul\":13016:13017   */\n      0x00\n        /* \"#utility.yul\":13005:13014   */\n      dup4\n        /* \"#utility.yul\":13001:13018   */\n      add\n        /* \"#utility.yul\":12994:13041   */\n      mstore\n        /* \"#utility.yul\":13058:13189   */\n      tag_259\n        /* \"#utility.yul\":13184:13188   */\n      dup2\n        /* \"#utility.yul\":13058:13189   */\n      tag_138\n      jump\t// in\n    tag_259:\n        /* \"#utility.yul\":13050:13189   */\n      swap1\n      pop\n        /* \"#utility.yul\":12777:13196   */\n      swap2\n      swap1\n      pop\n      jump\t// out\n        /* \"#utility.yul\":13202:13382   */\n    tag_139:\n        /* \"#utility.yul\":13250:13327   */\n      0x4e487b7100000000000000000000000000000000000000000000000000000000\n        /* \"#utility.yul\":13247:13248   */\n      0x00\n        /* \"#utility.yul\":13240:13328   */\n      mstore\n        /* \"#utility.yul\":13347:13351   */\n      0x22\n        /* \"#utility.yul\":13344:13345   */\n      0x04\n        /* \"#utility.yul\":13337:13352   */\n      mstore\n        /* \"#utility.yul\":13371:13375   */\n      0x24\n        /* \"#utility.yul\":13368:13369   */\n      0x00\n        /* \"#utility.yul\":13361:13376   */\n      revert\n        /* \"#utility.yul\":13388:13708   */\n    tag_93:\n        /* \"#utility.yul\":13432:13438   */\n      0x00\n        /* \"#utility.yul\":13469:13470   */\n      0x02\n        /* \"#utility.yul\":13463:13467   */\n      dup3\n        /* \"#utility.yul\":13459:13471   */\n      div\n        /* \"#utility.yul\":13449:13471   */\n      swap1\n      pop\n        /* \"#utility.yul\":13516:13517   */\n      0x01\n        /* \"#utility.yul\":13510:13514   */\n      dup3\n        /* \"#utility.yul\":13506:13518   */\n      and\n        /* \"#utility.yul\":13537:13555   */\n      dup1\n        /* \"#utility.yul\":13527:13608   */\n      tag_262\n      jumpi\n        /* \"#utility.yul\":13593:13597   */\n      0x7f\n        /* \"#utility.yul\":13585:13591   */\n      dup3\n        /* \"#utility.yul\":13581:13598   */\n      and\n        /* \"#utility.yul\":13571:13598   */\n      swap2\n      pop\n        /* \"#utility.yul\":13527:13608   */\n    tag_262:\n        /* \"#utility.yul\":13655:13657   */\n      0x20\n        /* \"#utility.yul\":13647:13653   */\n      dup3\n        /* \"#utility.yul\":13644:13658   */\n      lt\n        /* \"#utility.yul\":13624:13642   */\n      dup2\n        /* \"#utility.yul\":13621:13659   */\n      sub\n        /* \"#utility.yul\":13618:13702   */\n      tag_263\n      jumpi\n        /* \"#utility.yul\":13674:13692   */\n      tag_264\n      tag_139\n      jump\t// in\n    tag_264:\n        /* \"#utility.yul\":13618:13702   */\n    tag_263:\n        /* \"#utility.yul\":13439:13708   */\n      pop\n        /* \"#utility.yul\":13388:13708   */\n      swap2\n      swap1\n      pop\n      jump\t// out\n\n    auxdata: 0xa2646970667358221220c11f58248d5c29f7883b2823e69d985fc37388d27a1f75d88ef34c9bf72d24a264736f6c63430008110033\n}\n",
				"bytecode": {
					"linkReferences": {},
					"object": "6080604052670de0b6b3a764000060005561a8c06001553480156200002357600080fd5b5060405162000fdd38038062000fdd83398181016040528101906200004991906200019a565b33600560006101000a81548173ffffffffffffffffffffffffffffffffffffffff021916908373ffffffffffffffffffffffffffffffffffffffff16021790555081600460006101000a81548173ffffffffffffffffffffffffffffffffffffffff021916908373ffffffffffffffffffffffffffffffffffffffff1602179055506000600760006101000a81548160ff021916908315150217905550806003819055505050620001e1565b600080fd5b600073ffffffffffffffffffffffffffffffffffffffff82169050919050565b60006200012782620000fa565b9050919050565b62000139816200011a565b81146200014557600080fd5b50565b60008151905062000159816200012e565b92915050565b6000819050919050565b62000174816200015f565b81146200018057600080fd5b50565b600081519050620001948162000169565b92915050565b60008060408385031215620001b457620001b3620000f5565b5b6000620001c48582860162000148565b9250506020620001d78582860162000183565b9150509250929050565b610dec80620001f16000396000f3fe6080604052600436106100955760003560e01c80635b889ab8116100595780635b889ab8146101df5780638bfafd8b1461020a578063ae4af21714610235578063d1efd30d14610260578063da1d55e11461028b57610119565b806309bd5a601461011e5780630d66808714610149578063200d2ed21461017457806331fb67c21461019f578063590e1ae3146101c857610119565b3661011957600760009054906101000a900460ff166100e9576040517f08c379a00000000000000000000000000000000000000000000000000000000081526004016100e090610737565b60405180910390fd5b600154426100f79190610790565b6006819055506001600760006101000a81548160ff0219169083151502179055005b600080fd5b34801561012a57600080fd5b506101336102b6565b60405161014091906107dd565b60405180910390f35b34801561015557600080fd5b5061015e6102bc565b60405161016b9190610807565b60405180910390f35b34801561018057600080fd5b506101896102c2565b604051610196919061083d565b60405180910390f35b3480156101ab57600080fd5b506101c660048036038101906101c191906109b2565b6102d5565b005b3480156101d457600080fd5b506101dd61049a565b005b3480156101eb57600080fd5b506101f46105f4565b6040516102019190610807565b60405180910390f35b34801561021657600080fd5b5061021f6105fa565b60405161022c9190610807565b60405180910390f35b34801561024157600080fd5b5061024a610600565b6040516102579190610a3c565b60405180910390f35b34801561026c57600080fd5b50610275610626565b6040516102829190610ac5565b60405180910390f35b34801561029757600080fd5b506102a06106b4565b6040516102ad9190610a3c565b60405180910390f35b60035481565b60015481565b600760009054906101000a900460ff1681565b600460009054906101000a900473ffffffffffffffffffffffffffffffffffffffff1673ffffffffffffffffffffffffffffffffffffffff163373ffffffffffffffffffffffffffffffffffffffff1614610365576040517f08c379a000000000000000000000000000000000000000000000000000000000815260040161035c90610b33565b60405180910390fd5b60065442106103a9576040517f08c379a00000000000000000000000000000000000000000000000000000000081526004016103a090610b9f565b60405180910390fd5b600354816040516020016103bd9190610bfb565b6040516020818303038152906040528051906020012014610413576040517f08c379a000000000000000000000000000000000000000000000000000000000815260040161040a90610c5e565b60405180910390fd5b600460009054906101000a900473ffffffffffffffffffffffffffffffffffffffff1673ffffffffffffffffffffffffffffffffffffffff166108fc479081150290604051600060405180830381858888f1935050505015801561047b573d6000803e3d6000fd5b506001600760006101000a81548160ff02191690831515021790555050565b600560009054906101000a900473ffffffffffffffffffffffffffffffffffffffff1673ffffffffffffffffffffffffffffffffffffffff163373ffffffffffffffffffffffffffffffffffffffff161461052a576040517f08c379a000000000000000000000000000000000000000000000000000000000815260040161052190610cca565b60405180910390fd5b600654421161056e576040517f08c379a000000000000000000000000000000000000000000000000000000000815260040161056590610d36565b60405180910390fd5b600560009054906101000a900473ffffffffffffffffffffffffffffffffffffffff1673ffffffffffffffffffffffffffffffffffffffff166108fc479081150290604051600060405180830381858888f193505050501580156105d6573d6000803e3d6000fd5b506001600760006101000a81548160ff021916908315150217905550565b60005481565b60065481565b600560009054906101000a900473ffffffffffffffffffffffffffffffffffffffff1681565b6002805461063390610d85565b80601f016020809104026020016040519081016040528092919081815260200182805461065f90610d85565b80156106ac5780601f10610681576101008083540402835291602001916106ac565b820191906000526020600020905b81548152906001019060200180831161068f57829003601f168201915b505050505081565b600460009054906101000a900473ffffffffffffffffffffffffffffffffffffffff1681565b600082825260208201905092915050565b7f6e6f2d6e6f000000000000000000000000000000000000000000000000000000600082015250565b60006107216005836106da565b915061072c826106eb565b602082019050919050565b6000602082019050818103600083015261075081610714565b9050919050565b6000819050919050565b7f4e487b7100000000000000000000000000000000000000000000000000000000600052601160045260246000fd5b600061079b82610757565b91506107a683610757565b92508282019050808211156107be576107bd610761565b5b92915050565b6000819050919050565b6107d7816107c4565b82525050565b60006020820190506107f260008301846107ce565b92915050565b61080181610757565b82525050565b600060208201905061081c60008301846107f8565b92915050565b60008115159050919050565b61083781610822565b82525050565b6000602082019050610852600083018461082e565b92915050565b6000604051905090565b600080fd5b600080fd5b600080fd5b600080fd5b6000601f19601f8301169050919050565b7f4e487b7100000000000000000000000000000000000000000000000000000000600052604160045260246000fd5b6108bf82610876565b810181811067ffffffffffffffff821117156108de576108dd610887565b5b80604052505050565b60006108f1610858565b90506108fd82826108b6565b919050565b600067ffffffffffffffff82111561091d5761091c610887565b5b61092682610876565b9050602081019050919050565b82818337600083830152505050565b600061095561095084610902565b6108e7565b90508281526020810184848401111561097157610970610871565b5b61097c848285610933565b509392505050565b600082601f8301126109995761099861086c565b5b81356109a9848260208601610942565b91505092915050565b6000602082840312156109c8576109c7610862565b5b600082013567ffffffffffffffff8111156109e6576109e5610867565b5b6109f284828501610984565b91505092915050565b600073ffffffffffffffffffffffffffffffffffffffff82169050919050565b6000610a26826109fb565b9050919050565b610a3681610a1b565b82525050565b6000602082019050610a516000830184610a2d565b92915050565b600081519050919050565b60005b83811015610a80578082015181840152602081019050610a65565b60008484015250505050565b6000610a9782610a57565b610aa181856106da565b9350610ab1818560208601610a62565b610aba81610876565b840191505092915050565b60006020820190508181036000830152610adf8184610a8c565b905092915050565b7f796f7520617265206e6f7420506574726f000000000000000000000000000000600082015250565b6000610b1d6011836106da565b9150610b2882610ae7565b602082019050919050565b60006020820190508181036000830152610b4c81610b10565b9050919050565b7f706572696f642065787069726564000000000000000000000000000000000000600082015250565b6000610b89600e836106da565b9150610b9482610b53565b602082019050919050565b60006020820190508181036000830152610bb881610b7c565b9050919050565b600081905092915050565b6000610bd582610a57565b610bdf8185610bbf565b9350610bef818560208601610a62565b80840191505092915050565b6000610c078284610bca565b915081905092915050565b7f496e76616c696420736563726574000000000000000000000000000000000000600082015250565b6000610c48600e836106da565b9150610c5382610c12565b602082019050919050565b60006020820190508181036000830152610c7781610c3b565b9050919050565b7f796f7520617265206e6f7420446d7974726f0000000000000000000000000000600082015250565b6000610cb46012836106da565b9150610cbf82610c7e565b602082019050919050565b60006020820190508181036000830152610ce381610ca7565b9050919050565b7f6974206973206e6f742074696d65207965740000000000000000000000000000600082015250565b6000610d206012836106da565b9150610d2b82610cea565b602082019050919050565b60006020820190508181036000830152610d4f81610d13565b9050919050565b7f4e487b7100000000000000000000000000000000000000000000000000000000600052602260045260246000fd5b60006002820490506001821680610d9d57607f821691505b602082108103610db057610daf610d56565b5b5091905056fea2646970667358221220c11f58248d5c29f7883b2823e69d985fc37388d27a1f75d88ef34c9bf72d24a264736f6c63430008110033",
					"opcodes": "PUSH1 0x80 PUSH1 0x40 MSTORE PUSH8 0xDE0B6B3A7640000 PUSH1 0x0 SSTORE PUSH2 0xA8C0 PUSH1 0x1 SSTORE CALLVALUE DUP1 ISZERO PUSH3 0x23 JUMPI PUSH1 0x0 DUP1 REVERT JUMPDEST POP PUSH1 0x40 MLOAD PUSH3 0xFDD CODESIZE SUB DUP1 PUSH3 0xFDD DUP4 CODECOPY DUP2 DUP2 ADD PUSH1 0x40 MSTORE DUP2 ADD SWAP1 PUSH3 0x49 SWAP2 SWAP1 PUSH3 0x19A JUMP JUMPDEST CALLER PUSH1 0x5 PUSH1 0x0 PUSH2 0x100 EXP DUP2 SLOAD DUP2 PUSH20 0xFFFFFFFFFFFFFFFFFFFFFFFFFFFFFFFFFFFFFFFF MUL NOT AND SWAP1 DUP4 PUSH20 0xFFFFFFFFFFFFFFFFFFFFFFFFFFFFFFFFFFFFFFFF AND MUL OR SWAP1 SSTORE POP DUP2 PUSH1 0x4 PUSH1 0x0 PUSH2 0x100 EXP DUP2 SLOAD DUP2 PUSH20 0xFFFFFFFFFFFFFFFFFFFFFFFFFFFFFFFFFFFFFFFF MUL NOT AND SWAP1 DUP4 PUSH20 0xFFFFFFFFFFFFFFFFFFFFFFFFFFFFFFFFFFFFFFFF AND MUL OR SWAP1 SSTORE POP PUSH1 0x0 PUSH1 0x7 PUSH1 0x0 PUSH2 0x100 EXP DUP2 SLOAD DUP2 PUSH1 0xFF MUL NOT AND SWAP1 DUP4 ISZERO ISZERO MUL OR SWAP1 SSTORE POP DUP1 PUSH1 0x3 DUP2 SWAP1 SSTORE POP POP POP PUSH3 0x1E1 JUMP JUMPDEST PUSH1 0x0 DUP1 REVERT JUMPDEST PUSH1 0x0 PUSH20 0xFFFFFFFFFFFFFFFFFFFFFFFFFFFFFFFFFFFFFFFF DUP3 AND SWAP1 POP SWAP2 SWAP1 POP JUMP JUMPDEST PUSH1 0x0 PUSH3 0x127 DUP3 PUSH3 0xFA JUMP JUMPDEST SWAP1 POP SWAP2 SWAP1 POP JUMP JUMPDEST PUSH3 0x139 DUP2 PUSH3 0x11A JUMP JUMPDEST DUP2 EQ PUSH3 0x145 JUMPI PUSH1 0x0 DUP1 REVERT JUMPDEST POP JUMP JUMPDEST PUSH1 0x0 DUP2 MLOAD SWAP1 POP PUSH3 0x159 DUP2 PUSH3 0x12E JUMP JUMPDEST SWAP3 SWAP2 POP POP JUMP JUMPDEST PUSH1 0x0 DUP2 SWAP1 POP SWAP2 SWAP1 POP JUMP JUMPDEST PUSH3 0x174 DUP2 PUSH3 0x15F JUMP JUMPDEST DUP2 EQ PUSH3 0x180 JUMPI PUSH1 0x0 DUP1 REVERT JUMPDEST POP JUMP JUMPDEST PUSH1 0x0 DUP2 MLOAD SWAP1 POP PUSH3 0x194 DUP2 PUSH3 0x169 JUMP JUMPDEST SWAP3 SWAP2 POP POP JUMP JUMPDEST PUSH1 0x0 DUP1 PUSH1 0x40 DUP4 DUP6 SUB SLT ISZERO PUSH3 0x1B4 JUMPI PUSH3 0x1B3 PUSH3 0xF5 JUMP JUMPDEST JUMPDEST PUSH1 0x0 PUSH3 0x1C4 DUP6 DUP3 DUP7 ADD PUSH3 0x148 JUMP JUMPDEST SWAP3 POP POP PUSH1 0x20 PUSH3 0x1D7 DUP6 DUP3 DUP7 ADD PUSH3 0x183 JUMP JUMPDEST SWAP2 POP POP SWAP3 POP SWAP3 SWAP1 POP JUMP JUMPDEST PUSH2 0xDEC DUP1 PUSH3 0x1F1 PUSH1 0x0 CODECOPY PUSH1 0x0 RETURN INVALID PUSH1 0x80 PUSH1 0x40 MSTORE PUSH1 0x4 CALLDATASIZE LT PUSH2 0x95 JUMPI PUSH1 0x0 CALLDATALOAD PUSH1 0xE0 SHR DUP1 PUSH4 0x5B889AB8 GT PUSH2 0x59 JUMPI DUP1 PUSH4 0x5B889AB8 EQ PUSH2 0x1DF JUMPI DUP1 PUSH4 0x8BFAFD8B EQ PUSH2 0x20A JUMPI DUP1 PUSH4 0xAE4AF217 EQ PUSH2 0x235 JUMPI DUP1 PUSH4 0xD1EFD30D EQ PUSH2 0x260 JUMPI DUP1 PUSH4 0xDA1D55E1 EQ PUSH2 0x28B JUMPI PUSH2 0x119 JUMP JUMPDEST DUP1 PUSH4 0x9BD5A60 EQ PUSH2 0x11E JUMPI DUP1 PUSH4 0xD668087 EQ PUSH2 0x149 JUMPI DUP1 PUSH4 0x200D2ED2 EQ PUSH2 0x174 JUMPI DUP1 PUSH4 0x31FB67C2 EQ PUSH2 0x19F JUMPI DUP1 PUSH4 0x590E1AE3 EQ PUSH2 0x1C8 JUMPI PUSH2 0x119 JUMP JUMPDEST CALLDATASIZE PUSH2 0x119 JUMPI PUSH1 0x7 PUSH1 0x0 SWAP1 SLOAD SWAP1 PUSH2 0x100 EXP SWAP1 DIV PUSH1 0xFF AND PUSH2 0xE9 JUMPI PUSH1 0x40 MLOAD PUSH32 0x8C379A000000000000000000000000000000000000000000000000000000000 DUP2 MSTORE PUSH1 0x4 ADD PUSH2 0xE0 SWAP1 PUSH2 0x737 JUMP JUMPDEST PUSH1 0x40 MLOAD DUP1 SWAP2 SUB SWAP1 REVERT JUMPDEST PUSH1 0x1 SLOAD TIMESTAMP PUSH2 0xF7 SWAP2 SWAP1 PUSH2 0x790 JUMP JUMPDEST PUSH1 0x6 DUP2 SWAP1 SSTORE POP PUSH1 0x1 PUSH1 0x7 PUSH1 0x0 PUSH2 0x100 EXP DUP2 SLOAD DUP2 PUSH1 0xFF MUL NOT AND SWAP1 DUP4 ISZERO ISZERO MUL OR SWAP1 SSTORE STOP JUMPDEST PUSH1 0x0 DUP1 REVERT JUMPDEST CALLVALUE DUP1 ISZERO PUSH2 0x12A JUMPI PUSH1 0x0 DUP1 REVERT JUMPDEST POP PUSH2 0x133 PUSH2 0x2B6 JUMP JUMPDEST PUSH1 0x40 MLOAD PUSH2 0x140 SWAP2 SWAP1 PUSH2 0x7DD JUMP JUMPDEST PUSH1 0x40 MLOAD DUP1 SWAP2 SUB SWAP1 RETURN JUMPDEST CALLVALUE DUP1 ISZERO PUSH2 0x155 JUMPI PUSH1 0x0 DUP1 REVERT JUMPDEST POP PUSH2 0x15E PUSH2 0x2BC JUMP JUMPDEST PUSH1 0x40 MLOAD PUSH2 0x16B SWAP2 SWAP1 PUSH2 0x807 JUMP JUMPDEST PUSH1 0x40 MLOAD DUP1 SWAP2 SUB SWAP1 RETURN JUMPDEST CALLVALUE DUP1 ISZERO PUSH2 0x180 JUMPI PUSH1 0x0 DUP1 REVERT JUMPDEST POP PUSH2 0x189 PUSH2 0x2C2 JUMP JUMPDEST PUSH1 0x40 MLOAD PUSH2 0x196 SWAP2 SWAP1 PUSH2 0x83D JUMP JUMPDEST PUSH1 0x40 MLOAD DUP1 SWAP2 SUB SWAP1 RETURN JUMPDEST CALLVALUE DUP1 ISZERO PUSH2 0x1AB JUMPI PUSH1 0x0 DUP1 REVERT JUMPDEST POP PUSH2 0x1C6 PUSH1 0x4 DUP1 CALLDATASIZE SUB DUP2 ADD SWAP1 PUSH2 0x1C1 SWAP2 SWAP1 PUSH2 0x9B2 JUMP JUMPDEST PUSH2 0x2D5 JUMP JUMPDEST STOP JUMPDEST CALLVALUE DUP1 ISZERO PUSH2 0x1D4 JUMPI PUSH1 0x0 DUP1 REVERT JUMPDEST POP PUSH2 0x1DD PUSH2 0x49A JUMP JUMPDEST STOP JUMPDEST CALLVALUE DUP1 ISZERO PUSH2 0x1EB JUMPI PUSH1 0x0 DUP1 REVERT JUMPDEST POP PUSH2 0x1F4 PUSH2 0x5F4 JUMP JUMPDEST PUSH1 0x40 MLOAD PUSH2 0x201 SWAP2 SWAP1 PUSH2 0x807 JUMP JUMPDEST PUSH1 0x40 MLOAD DUP1 SWAP2 SUB SWAP1 RETURN JUMPDEST CALLVALUE DUP1 ISZERO PUSH2 0x216 JUMPI PUSH1 0x0 DUP1 REVERT JUMPDEST POP PUSH2 0x21F PUSH2 0x5FA JUMP JUMPDEST PUSH1 0x40 MLOAD PUSH2 0x22C SWAP2 SWAP1 PUSH2 0x807 JUMP JUMPDEST PUSH1 0x40 MLOAD DUP1 SWAP2 SUB SWAP1 RETURN JUMPDEST CALLVALUE DUP1 ISZERO PUSH2 0x241 JUMPI PUSH1 0x0 DUP1 REVERT JUMPDEST POP PUSH2 0x24A PUSH2 0x600 JUMP JUMPDEST PUSH1 0x40 MLOAD PUSH2 0x257 SWAP2 SWAP1 PUSH2 0xA3C JUMP JUMPDEST PUSH1 0x40 MLOAD DUP1 SWAP2 SUB SWAP1 RETURN JUMPDEST CALLVALUE DUP1 ISZERO PUSH2 0x26C JUMPI PUSH1 0x0 DUP1 REVERT JUMPDEST POP PUSH2 0x275 PUSH2 0x626 JUMP JUMPDEST PUSH1 0x40 MLOAD PUSH2 0x282 SWAP2 SWAP1 PUSH2 0xAC5 JUMP JUMPDEST PUSH1 0x40 MLOAD DUP1 SWAP2 SUB SWAP1 RETURN JUMPDEST CALLVALUE DUP1 ISZERO PUSH2 0x297 JUMPI PUSH1 0x0 DUP1 REVERT JUMPDEST POP PUSH2 0x2A0 PUSH2 0x6B4 JUMP JUMPDEST PUSH1 0x40 MLOAD PUSH2 0x2AD SWAP2 SWAP1 PUSH2 0xA3C JUMP JUMPDEST PUSH1 0x40 MLOAD DUP1 SWAP2 SUB SWAP1 RETURN JUMPDEST PUSH1 0x3 SLOAD DUP2 JUMP JUMPDEST PUSH1 0x1 SLOAD DUP2 JUMP JUMPDEST PUSH1 0x7 PUSH1 0x0 SWAP1 SLOAD SWAP1 PUSH2 0x100 EXP SWAP1 DIV PUSH1 0xFF AND DUP2 JUMP JUMPDEST PUSH1 0x4 PUSH1 0x0 SWAP1 SLOAD SWAP1 PUSH2 0x100 EXP SWAP1 DIV PUSH20 0xFFFFFFFFFFFFFFFFFFFFFFFFFFFFFFFFFFFFFFFF AND PUSH20 0xFFFFFFFFFFFFFFFFFFFFFFFFFFFFFFFFFFFFFFFF AND CALLER PUSH20 0xFFFFFFFFFFFFFFFFFFFFFFFFFFFFFFFFFFFFFFFF AND EQ PUSH2 0x365 JUMPI PUSH1 0x40 MLOAD PUSH32 0x8C379A000000000000000000000000000000000000000000000000000000000 DUP2 MSTORE PUSH1 0x4 ADD PUSH2 0x35C SWAP1 PUSH2 0xB33 JUMP JUMPDEST PUSH1 0x40 MLOAD DUP1 SWAP2 SUB SWAP1 REVERT JUMPDEST PUSH1 0x6 SLOAD TIMESTAMP LT PUSH2 0x3A9 JUMPI PUSH1 0x40 MLOAD PUSH32 0x8C379A000000000000000000000000000000000000000000000000000000000 DUP2 MSTORE PUSH1 0x4 ADD PUSH2 0x3A0 SWAP1 PUSH2 0xB9F JUMP JUMPDEST PUSH1 0x40 MLOAD DUP1 SWAP2 SUB SWAP1 REVERT JUMPDEST PUSH1 0x3 SLOAD DUP2 PUSH1 0x40 MLOAD PUSH1 0x20 ADD PUSH2 0x3BD SWAP2 SWAP1 PUSH2 0xBFB JUMP JUMPDEST PUSH1 0x40 MLOAD PUSH1 0x20 DUP2 DUP4 SUB SUB DUP2 MSTORE SWAP1 PUSH1 0x40 MSTORE DUP1 MLOAD SWAP1 PUSH1 0x20 ADD KECCAK256 EQ PUSH2 0x413 JUMPI PUSH1 0x40 MLOAD PUSH32 0x8C379A000000000000000000000000000000000000000000000000000000000 DUP2 MSTORE PUSH1 0x4 ADD PUSH2 0x40A SWAP1 PUSH2 0xC5E JUMP JUMPDEST PUSH1 0x40 MLOAD DUP1 SWAP2 SUB SWAP1 REVERT JUMPDEST PUSH1 0x4 PUSH1 0x0 SWAP1 SLOAD SWAP1 PUSH2 0x100 EXP SWAP1 DIV PUSH20 0xFFFFFFFFFFFFFFFFFFFFFFFFFFFFFFFFFFFFFFFF AND PUSH20 0xFFFFFFFFFFFFFFFFFFFFFFFFFFFFFFFFFFFFFFFF AND PUSH2 0x8FC SELFBALANCE SWAP1 DUP2 ISZERO MUL SWAP1 PUSH1 0x40 MLOAD PUSH1 0x0 PUSH1 0x40 MLOAD DUP1 DUP4 SUB DUP2 DUP6 DUP9 DUP9 CALL SWAP4 POP POP POP POP ISZERO DUP1 ISZERO PUSH2 0x47B JUMPI RETURNDATASIZE PUSH1 0x0 DUP1 RETURNDATACOPY RETURNDATASIZE PUSH1 0x0 REVERT JUMPDEST POP PUSH1 0x1 PUSH1 0x7 PUSH1 0x0 PUSH2 0x100 EXP DUP2 SLOAD DUP2 PUSH1 0xFF MUL NOT AND SWAP1 DUP4 ISZERO ISZERO MUL OR SWAP1 SSTORE POP POP JUMP JUMPDEST PUSH1 0x5 PUSH1 0x0 SWAP1 SLOAD SWAP1 PUSH2 0x100 EXP SWAP1 DIV PUSH20 0xFFFFFFFFFFFFFFFFFFFFFFFFFFFFFFFFFFFFFFFF AND PUSH20 0xFFFFFFFFFFFFFFFFFFFFFFFFFFFFFFFFFFFFFFFF AND CALLER PUSH20 0xFFFFFFFFFFFFFFFFFFFFFFFFFFFFFFFFFFFFFFFF AND EQ PUSH2 0x52A JUMPI PUSH1 0x40 MLOAD PUSH32 0x8C379A000000000000000000000000000000000000000000000000000000000 DUP2 MSTORE PUSH1 0x4 ADD PUSH2 0x521 SWAP1 PUSH2 0xCCA JUMP JUMPDEST PUSH1 0x40 MLOAD DUP1 SWAP2 SUB SWAP1 REVERT JUMPDEST PUSH1 0x6 SLOAD TIMESTAMP GT PUSH2 0x56E JUMPI PUSH1 0x40 MLOAD PUSH32 0x8C379A000000000000000000000000000000000000000000000000000000000 DUP2 MSTORE PUSH1 0x4 ADD PUSH2 0x565 SWAP1 PUSH2 0xD36 JUMP JUMPDEST PUSH1 0x40 MLOAD DUP1 SWAP2 SUB SWAP1 REVERT JUMPDEST PUSH1 0x5 PUSH1 0x0 SWAP1 SLOAD SWAP1 PUSH2 0x100 EXP SWAP1 DIV PUSH20 0xFFFFFFFFFFFFFFFFFFFFFFFFFFFFFFFFFFFFFFFF AND PUSH20 0xFFFFFFFFFFFFFFFFFFFFFFFFFFFFFFFFFFFFFFFF AND PUSH2 0x8FC SELFBALANCE SWAP1 DUP2 ISZERO MUL SWAP1 PUSH1 0x40 MLOAD PUSH1 0x0 PUSH1 0x40 MLOAD DUP1 DUP4 SUB DUP2 DUP6 DUP9 DUP9 CALL SWAP4 POP POP POP POP ISZERO DUP1 ISZERO PUSH2 0x5D6 JUMPI RETURNDATASIZE PUSH1 0x0 DUP1 RETURNDATACOPY RETURNDATASIZE PUSH1 0x0 REVERT JUMPDEST POP PUSH1 0x1 PUSH1 0x7 PUSH1 0x0 PUSH2 0x100 EXP DUP2 SLOAD DUP2 PUSH1 0xFF MUL NOT AND SWAP1 DUP4 ISZERO ISZERO MUL OR SWAP1 SSTORE POP JUMP JUMPDEST PUSH1 0x0 SLOAD DUP2 JUMP JUMPDEST PUSH1 0x6 SLOAD DUP2 JUMP JUMPDEST PUSH1 0x5 PUSH1 0x0 SWAP1 SLOAD SWAP1 PUSH2 0x100 EXP SWAP1 DIV PUSH20 0xFFFFFFFFFFFFFFFFFFFFFFFFFFFFFFFFFFFFFFFF AND DUP2 JUMP JUMPDEST PUSH1 0x2 DUP1 SLOAD PUSH2 0x633 SWAP1 PUSH2 0xD85 JUMP JUMPDEST DUP1 PUSH1 0x1F ADD PUSH1 0x20 DUP1 SWAP2 DIV MUL PUSH1 0x20 ADD PUSH1 0x40 MLOAD SWAP1 DUP2 ADD PUSH1 0x40 MSTORE DUP1 SWAP3 SWAP2 SWAP1 DUP2 DUP2 MSTORE PUSH1 0x20 ADD DUP3 DUP1 SLOAD PUSH2 0x65F SWAP1 PUSH2 0xD85 JUMP JUMPDEST DUP1 ISZERO PUSH2 0x6AC JUMPI DUP1 PUSH1 0x1F LT PUSH2 0x681 JUMPI PUSH2 0x100 DUP1 DUP4 SLOAD DIV MUL DUP4 MSTORE SWAP2 PUSH1 0x20 ADD SWAP2 PUSH2 0x6AC JUMP JUMPDEST DUP3 ADD SWAP2 SWAP1 PUSH1 0x0 MSTORE PUSH1 0x20 PUSH1 0x0 KECCAK256 SWAP1 JUMPDEST DUP2 SLOAD DUP2 MSTORE SWAP1 PUSH1 0x1 ADD SWAP1 PUSH1 0x20 ADD DUP1 DUP4 GT PUSH2 0x68F JUMPI DUP3 SWAP1 SUB PUSH1 0x1F AND DUP3 ADD SWAP2 JUMPDEST POP POP POP POP POP DUP2 JUMP JUMPDEST PUSH1 0x4 PUSH1 0x0 SWAP1 SLOAD SWAP1 PUSH2 0x100 EXP SWAP1 DIV PUSH20 0xFFFFFFFFFFFFFFFFFFFFFFFFFFFFFFFFFFFFFFFF AND DUP2 JUMP JUMPDEST PUSH1 0x0 DUP3 DUP3 MSTORE PUSH1 0x20 DUP3 ADD SWAP1 POP SWAP3 SWAP2 POP POP JUMP JUMPDEST PUSH32 0x6E6F2D6E6F000000000000000000000000000000000000000000000000000000 PUSH1 0x0 DUP3 ADD MSTORE POP JUMP JUMPDEST PUSH1 0x0 PUSH2 0x721 PUSH1 0x5 DUP4 PUSH2 0x6DA JUMP JUMPDEST SWAP2 POP PUSH2 0x72C DUP3 PUSH2 0x6EB JUMP JUMPDEST PUSH1 0x20 DUP3 ADD SWAP1 POP SWAP2 SWAP1 POP JUMP JUMPDEST PUSH1 0x0 PUSH1 0x20 DUP3 ADD SWAP1 POP DUP2 DUP2 SUB PUSH1 0x0 DUP4 ADD MSTORE PUSH2 0x750 DUP2 PUSH2 0x714 JUMP JUMPDEST SWAP1 POP SWAP2 SWAP1 POP JUMP JUMPDEST PUSH1 0x0 DUP2 SWAP1 POP SWAP2 SWAP1 POP JUMP JUMPDEST PUSH32 0x4E487B7100000000000000000000000000000000000000000000000000000000 PUSH1 0x0 MSTORE PUSH1 0x11 PUSH1 0x4 MSTORE PUSH1 0x24 PUSH1 0x0 REVERT JUMPDEST PUSH1 0x0 PUSH2 0x79B DUP3 PUSH2 0x757 JUMP JUMPDEST SWAP2 POP PUSH2 0x7A6 DUP4 PUSH2 0x757 JUMP JUMPDEST SWAP3 POP DUP3 DUP3 ADD SWAP1 POP DUP1 DUP3 GT ISZERO PUSH2 0x7BE JUMPI PUSH2 0x7BD PUSH2 0x761 JUMP JUMPDEST JUMPDEST SWAP3 SWAP2 POP POP JUMP JUMPDEST PUSH1 0x0 DUP2 SWAP1 POP SWAP2 SWAP1 POP JUMP JUMPDEST PUSH2 0x7D7 DUP2 PUSH2 0x7C4 JUMP JUMPDEST DUP3 MSTORE POP POP JUMP JUMPDEST PUSH1 0x0 PUSH1 0x20 DUP3 ADD SWAP1 POP PUSH2 0x7F2 PUSH1 0x0 DUP4 ADD DUP5 PUSH2 0x7CE JUMP JUMPDEST SWAP3 SWAP2 POP POP JUMP JUMPDEST PUSH2 0x801 DUP2 PUSH2 0x757 JUMP JUMPDEST DUP3 MSTORE POP POP JUMP JUMPDEST PUSH1 0x0 PUSH1 0x20 DUP3 ADD SWAP1 POP PUSH2 0x81C PUSH1 0x0 DUP4 ADD DUP5 PUSH2 0x7F8 JUMP JUMPDEST SWAP3 SWAP2 POP POP JUMP JUMPDEST PUSH1 0x0 DUP2 ISZERO ISZERO SWAP1 POP SWAP2 SWAP1 POP JUMP JUMPDEST PUSH2 0x837 DUP2 PUSH2 0x822 JUMP JUMPDEST DUP3 MSTORE POP POP JUMP JUMPDEST PUSH1 0x0 PUSH1 0x20 DUP3 ADD SWAP1 POP PUSH2 0x852 PUSH1 0x0 DUP4 ADD DUP5 PUSH2 0x82E JUMP JUMPDEST SWAP3 SWAP2 POP POP JUMP JUMPDEST PUSH1 0x0 PUSH1 0x40 MLOAD SWAP1 POP SWAP1 JUMP JUMPDEST PUSH1 0x0 DUP1 REVERT JUMPDEST PUSH1 0x0 DUP1 REVERT JUMPDEST PUSH1 0x0 DUP1 REVERT JUMPDEST PUSH1 0x0 DUP1 REVERT JUMPDEST PUSH1 0x0 PUSH1 0x1F NOT PUSH1 0x1F DUP4 ADD AND SWAP1 POP SWAP2 SWAP1 POP JUMP JUMPDEST PUSH32 0x4E487B7100000000000000000000000000000000000000000000000000000000 PUSH1 0x0 MSTORE PUSH1 0x41 PUSH1 0x4 MSTORE PUSH1 0x24 PUSH1 0x0 REVERT JUMPDEST PUSH2 0x8BF DUP3 PUSH2 0x876 JUMP JUMPDEST DUP2 ADD DUP2 DUP2 LT PUSH8 0xFFFFFFFFFFFFFFFF DUP3 GT OR ISZERO PUSH2 0x8DE JUMPI PUSH2 0x8DD PUSH2 0x887 JUMP JUMPDEST JUMPDEST DUP1 PUSH1 0x40 MSTORE POP POP POP JUMP JUMPDEST PUSH1 0x0 PUSH2 0x8F1 PUSH2 0x858 JUMP JUMPDEST SWAP1 POP PUSH2 0x8FD DUP3 DUP3 PUSH2 0x8B6 JUMP JUMPDEST SWAP2 SWAP1 POP JUMP JUMPDEST PUSH1 0x0 PUSH8 0xFFFFFFFFFFFFFFFF DUP3 GT ISZERO PUSH2 0x91D JUMPI PUSH2 0x91C PUSH2 0x887 JUMP JUMPDEST JUMPDEST PUSH2 0x926 DUP3 PUSH2 0x876 JUMP JUMPDEST SWAP1 POP PUSH1 0x20 DUP2 ADD SWAP1 POP SWAP2 SWAP1 POP JUMP JUMPDEST DUP3 DUP2 DUP4 CALLDATACOPY PUSH1 0x0 DUP4 DUP4 ADD MSTORE POP POP POP JUMP JUMPDEST PUSH1 0x0 PUSH2 0x955 PUSH2 0x950 DUP5 PUSH2 0x902 JUMP JUMPDEST PUSH2 0x8E7 JUMP JUMPDEST SWAP1 POP DUP3 DUP2 MSTORE PUSH1 0x20 DUP2 ADD DUP5 DUP5 DUP5 ADD GT ISZERO PUSH2 0x971 JUMPI PUSH2 0x970 PUSH2 0x871 JUMP JUMPDEST JUMPDEST PUSH2 0x97C DUP5 DUP3 DUP6 PUSH2 0x933 JUMP JUMPDEST POP SWAP4 SWAP3 POP POP POP JUMP JUMPDEST PUSH1 0x0 DUP3 PUSH1 0x1F DUP4 ADD SLT PUSH2 0x999 JUMPI PUSH2 0x998 PUSH2 0x86C JUMP JUMPDEST JUMPDEST DUP2 CALLDATALOAD PUSH2 0x9A9 DUP5 DUP3 PUSH1 0x20 DUP7 ADD PUSH2 0x942 JUMP JUMPDEST SWAP2 POP POP SWAP3 SWAP2 POP POP JUMP JUMPDEST PUSH1 0x0 PUSH1 0x20 DUP3 DUP5 SUB SLT ISZERO PUSH2 0x9C8 JUMPI PUSH2 0x9C7 PUSH2 0x862 JUMP JUMPDEST JUMPDEST PUSH1 0x0 DUP3 ADD CALLDATALOAD PUSH8 0xFFFFFFFFFFFFFFFF DUP2 GT ISZERO PUSH2 0x9E6 JUMPI PUSH2 0x9E5 PUSH2 0x867 JUMP JUMPDEST JUMPDEST PUSH2 0x9F2 DUP5 DUP3 DUP6 ADD PUSH2 0x984 JUMP JUMPDEST SWAP2 POP POP SWAP3 SWAP2 POP POP JUMP JUMPDEST PUSH1 0x0 PUSH20 0xFFFFFFFFFFFFFFFFFFFFFFFFFFFFFFFFFFFFFFFF DUP3 AND SWAP1 POP SWAP2 SWAP1 POP JUMP JUMPDEST PUSH1 0x0 PUSH2 0xA26 DUP3 PUSH2 0x9FB JUMP JUMPDEST SWAP1 POP SWAP2 SWAP1 POP JUMP JUMPDEST PUSH2 0xA36 DUP2 PUSH2 0xA1B JUMP JUMPDEST DUP3 MSTORE POP POP JUMP JUMPDEST PUSH1 0x0 PUSH1 0x20 DUP3 ADD SWAP1 POP PUSH2 0xA51 PUSH1 0x0 DUP4 ADD DUP5 PUSH2 0xA2D JUMP JUMPDEST SWAP3 SWAP2 POP POP JUMP JUMPDEST PUSH1 0x0 DUP2 MLOAD SWAP1 POP SWAP2 SWAP1 POP JUMP JUMPDEST PUSH1 0x0 JUMPDEST DUP4 DUP2 LT ISZERO PUSH2 0xA80 JUMPI DUP1 DUP3 ADD MLOAD DUP2 DUP5 ADD MSTORE PUSH1 0x20 DUP2 ADD SWAP1 POP PUSH2 0xA65 JUMP JUMPDEST PUSH1 0x0 DUP5 DUP5 ADD MSTORE POP POP POP POP JUMP JUMPDEST PUSH1 0x0 PUSH2 0xA97 DUP3 PUSH2 0xA57 JUMP JUMPDEST PUSH2 0xAA1 DUP2 DUP6 PUSH2 0x6DA JUMP JUMPDEST SWAP4 POP PUSH2 0xAB1 DUP2 DUP6 PUSH1 0x20 DUP7 ADD PUSH2 0xA62 JUMP JUMPDEST PUSH2 0xABA DUP2 PUSH2 0x876 JUMP JUMPDEST DUP5 ADD SWAP2 POP POP SWAP3 SWAP2 POP POP JUMP JUMPDEST PUSH1 0x0 PUSH1 0x20 DUP3 ADD SWAP1 POP DUP2 DUP2 SUB PUSH1 0x0 DUP4 ADD MSTORE PUSH2 0xADF DUP2 DUP5 PUSH2 0xA8C JUMP JUMPDEST SWAP1 POP SWAP3 SWAP2 POP POP JUMP JUMPDEST PUSH32 0x796F7520617265206E6F7420506574726F000000000000000000000000000000 PUSH1 0x0 DUP3 ADD MSTORE POP JUMP JUMPDEST PUSH1 0x0 PUSH2 0xB1D PUSH1 0x11 DUP4 PUSH2 0x6DA JUMP JUMPDEST SWAP2 POP PUSH2 0xB28 DUP3 PUSH2 0xAE7 JUMP JUMPDEST PUSH1 0x20 DUP3 ADD SWAP1 POP SWAP2 SWAP1 POP JUMP JUMPDEST PUSH1 0x0 PUSH1 0x20 DUP3 ADD SWAP1 POP DUP2 DUP2 SUB PUSH1 0x0 DUP4 ADD MSTORE PUSH2 0xB4C DUP2 PUSH2 0xB10 JUMP JUMPDEST SWAP1 POP SWAP2 SWAP1 POP JUMP JUMPDEST PUSH32 0x706572696F642065787069726564000000000000000000000000000000000000 PUSH1 0x0 DUP3 ADD MSTORE POP JUMP JUMPDEST PUSH1 0x0 PUSH2 0xB89 PUSH1 0xE DUP4 PUSH2 0x6DA JUMP JUMPDEST SWAP2 POP PUSH2 0xB94 DUP3 PUSH2 0xB53 JUMP JUMPDEST PUSH1 0x20 DUP3 ADD SWAP1 POP SWAP2 SWAP1 POP JUMP JUMPDEST PUSH1 0x0 PUSH1 0x20 DUP3 ADD SWAP1 POP DUP2 DUP2 SUB PUSH1 0x0 DUP4 ADD MSTORE PUSH2 0xBB8 DUP2 PUSH2 0xB7C JUMP JUMPDEST SWAP1 POP SWAP2 SWAP1 POP JUMP JUMPDEST PUSH1 0x0 DUP2 SWAP1 POP SWAP3 SWAP2 POP POP JUMP JUMPDEST PUSH1 0x0 PUSH2 0xBD5 DUP3 PUSH2 0xA57 JUMP JUMPDEST PUSH2 0xBDF DUP2 DUP6 PUSH2 0xBBF JUMP JUMPDEST SWAP4 POP PUSH2 0xBEF DUP2 DUP6 PUSH1 0x20 DUP7 ADD PUSH2 0xA62 JUMP JUMPDEST DUP1 DUP5 ADD SWAP2 POP POP SWAP3 SWAP2 POP POP JUMP JUMPDEST PUSH1 0x0 PUSH2 0xC07 DUP3 DUP5 PUSH2 0xBCA JUMP JUMPDEST SWAP2 POP DUP2 SWAP1 POP SWAP3 SWAP2 POP POP JUMP JUMPDEST PUSH32 0x496E76616C696420736563726574000000000000000000000000000000000000 PUSH1 0x0 DUP3 ADD MSTORE POP JUMP JUMPDEST PUSH1 0x0 PUSH2 0xC48 PUSH1 0xE DUP4 PUSH2 0x6DA JUMP JUMPDEST SWAP2 POP PUSH2 0xC53 DUP3 PUSH2 0xC12 JUMP JUMPDEST PUSH1 0x20 DUP3 ADD SWAP1 POP SWAP2 SWAP1 POP JUMP JUMPDEST PUSH1 0x0 PUSH1 0x20 DUP3 ADD SWAP1 POP DUP2 DUP2 SUB PUSH1 0x0 DUP4 ADD MSTORE PUSH2 0xC77 DUP2 PUSH2 0xC3B JUMP JUMPDEST SWAP1 POP SWAP2 SWAP1 POP JUMP JUMPDEST PUSH32 0x796F7520617265206E6F7420446D7974726F0000000000000000000000000000 PUSH1 0x0 DUP3 ADD MSTORE POP JUMP JUMPDEST PUSH1 0x0 PUSH2 0xCB4 PUSH1 0x12 DUP4 PUSH2 0x6DA JUMP JUMPDEST SWAP2 POP PUSH2 0xCBF DUP3 PUSH2 0xC7E JUMP JUMPDEST PUSH1 0x20 DUP3 ADD SWAP1 POP SWAP2 SWAP1 POP JUMP JUMPDEST PUSH1 0x0 PUSH1 0x20 DUP3 ADD SWAP1 POP DUP2 DUP2 SUB PUSH1 0x0 DUP4 ADD MSTORE PUSH2 0xCE3 DUP2 PUSH2 0xCA7 JUMP JUMPDEST SWAP1 POP SWAP2 SWAP1 POP JUMP JUMPDEST PUSH32 0x6974206973206E6F742074696D65207965740000000000000000000000000000 PUSH1 0x0 DUP3 ADD MSTORE POP JUMP JUMPDEST PUSH1 0x0 PUSH2 0xD20 PUSH1 0x12 DUP4 PUSH2 0x6DA JUMP JUMPDEST SWAP2 POP PUSH2 0xD2B DUP3 PUSH2 0xCEA JUMP JUMPDEST PUSH1 0x20 DUP3 ADD SWAP1 POP SWAP2 SWAP1 POP JUMP JUMPDEST PUSH1 0x0 PUSH1 0x20 DUP3 ADD SWAP1 POP DUP2 DUP2 SUB PUSH1 0x0 DUP4 ADD MSTORE PUSH2 0xD4F DUP2 PUSH2 0xD13 JUMP JUMPDEST SWAP1 POP SWAP2 SWAP1 POP JUMP JUMPDEST PUSH32 0x4E487B7100000000000000000000000000000000000000000000000000000000 PUSH1 0x0 MSTORE PUSH1 0x22 PUSH1 0x4 MSTORE PUSH1 0x24 PUSH1 0x0 REVERT JUMPDEST PUSH1 0x0 PUSH1 0x2 DUP3 DIV SWAP1 POP PUSH1 0x1 DUP3 AND DUP1 PUSH2 0xD9D JUMPI PUSH1 0x7F DUP3 AND SWAP2 POP JUMPDEST PUSH1 0x20 DUP3 LT DUP2 SUB PUSH2 0xDB0 JUMPI PUSH2 0xDAF PUSH2 0xD56 JUMP JUMPDEST JUMPDEST POP SWAP2 SWAP1 POP JUMP INVALID LOG2 PUSH5 0x6970667358 0x22 SLT KECCAK256 0xC1 0x1F PC 0x24 DUP14 0x5C 0x29 0xF7 DUP9 EXTCODESIZE 0x28 0x23 0xE6 SWAP14 SWAP9 0x5F 0xC3 PUSH20 0x88D27A1F75D88EF34C9BF72D24A264736F6C6343 STOP ADDMOD GT STOP CALLER "
				},
				"gasEstimates": {
					"creation": {
						"codeDepositCost": "712800",
						"executionCost": "infinite",
						"totalCost": "infinite"
					},
					"external": {
						"ammount()": "2429",
						"dmytroAddress()": "2558",
						"hash()": "2430",
						"lockTime()": "2452",
						"petroAddress()": "2602",
						"refund()": "infinite",
						"secret()": "infinite",
						"status()": "2516",
						"timeTo()": "2451",
						"withdraw(string)": "infinite"
					}
				},
				"methodIdentifiers": {
					"ammount()": "5b889ab8",
					"dmytroAddress()": "ae4af217",
					"hash()": "09bd5a60",
					"lockTime()": "0d668087",
					"petroAddress()": "da1d55e1",
					"refund()": "590e1ae3",
					"secret()": "d1efd30d",
					"status()": "200d2ed2",
					"timeTo()": "8bfafd8b",
					"withdraw(string)": "31fb67c2"
				}
			},
			"storageLayout": {
				"storage": [
					{
						"astId": 4,
						"contract": "Proga/Solidity/AtomicSwap/contracts/Petro.sol:Petro",
						"label": "ammount",
						"offset": 0,
						"slot": "0",
						"type": "t_uint256"
					},
					{
						"astId": 7,
						"contract": "Proga/Solidity/AtomicSwap/contracts/Petro.sol:Petro",
						"label": "lockTime",
						"offset": 0,
						"slot": "1",
						"type": "t_uint256"
					},
					{
						"astId": 9,
						"contract": "Proga/Solidity/AtomicSwap/contracts/Petro.sol:Petro",
						"label": "secret",
						"offset": 0,
						"slot": "2",
						"type": "t_string_storage"
					},
					{
						"astId": 11,
						"contract": "Proga/Solidity/AtomicSwap/contracts/Petro.sol:Petro",
						"label": "hash",
						"offset": 0,
						"slot": "3",
						"type": "t_bytes32"
					},
					{
						"astId": 13,
						"contract": "Proga/Solidity/AtomicSwap/contracts/Petro.sol:Petro",
						"label": "petroAddress",
						"offset": 0,
						"slot": "4",
						"type": "t_address"
					},
					{
						"astId": 15,
						"contract": "Proga/Solidity/AtomicSwap/contracts/Petro.sol:Petro",
						"label": "dmytroAddress",
						"offset": 0,
						"slot": "5",
						"type": "t_address"
					},
					{
						"astId": 17,
						"contract": "Proga/Solidity/AtomicSwap/contracts/Petro.sol:Petro",
						"label": "timeTo",
						"offset": 0,
						"slot": "6",
						"type": "t_uint256"
					},
					{
						"astId": 19,
						"contract": "Proga/Solidity/AtomicSwap/contracts/Petro.sol:Petro",
						"label": "status",
						"offset": 0,
						"slot": "7",
						"type": "t_bool"
					}
				],
				"types": {
					"t_address": {
						"encoding": "inplace",
						"label": "address",
						"numberOfBytes": "20"
					},
					"t_bool": {
						"encoding": "inplace",
						"label": "bool",
						"numberOfBytes": "1"
					},
					"t_bytes32": {
						"encoding": "inplace",
						"label": "bytes32",
						"numberOfBytes": "32"
					},
					"t_string_storage": {
						"encoding": "bytes",
						"label": "string",
						"numberOfBytes": "32"
					},
					"t_uint256": {
						"encoding": "inplace",
						"label": "uint256",
						"numberOfBytes": "32"
					}
				}
			},
			"userdoc": {
				"kind": "user",
				"methods": {},
				"version": 1
			}
		}
	}
}