{
	"Dmetro.sol": {
		"Dmytro": {
			"abi": [
				{
					"inputs": [
						{
							"internalType": "address",
							"name": "_petroAddress",
							"type": "address"
						},
						{
							"internalType": "bytes32",
							"name": "_hash",
							"type": "bytes32"
						}
					],
					"stateMutability": "nonpayable",
					"type": "constructor"
				},
				{
					"inputs": [],
					"name": "ammount",
					"outputs": [
						{
							"internalType": "uint256",
							"name": "",
							"type": "uint256"
						}
					],
					"stateMutability": "view",
					"type": "function"
				},
				{
					"inputs": [],
					"name": "dmytroAddress",
					"outputs": [
						{
							"internalType": "address",
							"name": "",
							"type": "address"
						}
					],
					"stateMutability": "view",
					"type": "function"
				},
				{
					"inputs": [],
					"name": "hash",
					"outputs": [
						{
							"internalType": "bytes32",
							"name": "",
							"type": "bytes32"
						}
					],
					"stateMutability": "view",
					"type": "function"
				},
				{
					"inputs": [],
					"name": "lockTime",
					"outputs": [
						{
							"internalType": "uint256",
							"name": "",
							"type": "uint256"
						}
					],
					"stateMutability": "view",
					"type": "function"
				},
				{
					"inputs": [],
					"name": "petroAddress",
					"outputs": [
						{
							"internalType": "address",
							"name": "",
							"type": "address"
						}
					],
					"stateMutability": "view",
					"type": "function"
				},
				{
					"inputs": [],
					"name": "refund",
					"outputs": [],
					"stateMutability": "nonpayable",
					"type": "function"
				},
				{
					"inputs": [],
					"name": "status",
					"outputs": [
						{
							"internalType": "bool",
							"name": "",
							"type": "bool"
						}
					],
					"stateMutability": "view",
					"type": "function"
				},
				{
					"inputs": [],
					"name": "timeTo",
					"outputs": [
						{
							"internalType": "uint256",
							"name": "",
							"type": "uint256"
						}
					],
					"stateMutability": "view",
					"type": "function"
				},
				{
					"inputs": [
						{
							"internalType": "string",
							"name": "_secret",
							"type": "string"
						}
					],
					"name": "withdraw",
					"outputs": [],
					"stateMutability": "nonpayable",
					"type": "function"
				},
				{
					"stateMutability": "payable",
					"type": "receive"
				}
			],
			"devdoc": {
				"kind": "dev",
				"methods": {},
				"version": 1
			},
			"evm": {
				"assembly": "    /* \"Dmetro.sol\":57:981  contract Dmytro {... */\n  mstore(0x40, 0x80)\n    /* \"Dmetro.sol\":103:112  0.5 ether */\n  0x06f05b59d3b20000\n    /* \"Dmetro.sol\":78:112  uint256 public ammount = 0.5 ether */\n  0x00\n  sstore\n    /* \"Dmetro.sol\":141:146  86400 */\n  0x015180\n    /* \"Dmetro.sol\":115:146  uint256 public lockTime = 86400 */\n  0x01\n  sstore\n    /* \"Dmetro.sol\":390:494  constructor(address _petroAddress, bytes32 _hash) {... */\n  callvalue\n  dup1\n  iszero\n  tag_1\n  jumpi\n  0x00\n  dup1\n  revert\ntag_1:\n  pop\n  mload(0x40)\n  sub(codesize, bytecodeSize)\n  dup1\n  bytecodeSize\n  dup4\n  codecopy\n  dup2\n  dup2\n  add\n  0x40\n  mstore\n  dup2\n  add\n  swap1\n  tag_2\n  swap2\n  swap1\n  tag_3\n  jump\t// in\ntag_2:\n    /* \"Dmetro.sol\":460:470  msg.sender */\n  caller\n    /* \"Dmetro.sol\":444:457  dmytroAddress */\n  0x04\n  0x00\n    /* \"Dmetro.sol\":444:470  dmytroAddress = msg.sender */\n  0x0100\n  exp\n  dup2\n  sload\n  dup2\n  0xffffffffffffffffffffffffffffffffffffffff\n  mul\n  not\n  and\n  swap1\n  dup4\n  0xffffffffffffffffffffffffffffffffffffffff\n  and\n  mul\n  or\n  swap1\n  sstore\n  pop\n    /* \"Dmetro.sol\":483:488  false */\n  0x00\n    /* \"Dmetro.sol\":474:480  status */\n  0x06\n  0x00\n    /* \"Dmetro.sol\":474:488  status = false */\n  0x0100\n  exp\n  dup2\n  sload\n  dup2\n  0xff\n  mul\n  not\n  and\n  swap1\n  dup4\n  iszero\n  iszero\n  mul\n  or\n  swap1\n  sstore\n  pop\n    /* \"Dmetro.sol\":390:494  constructor(address _petroAddress, bytes32 _hash) {... */\n  pop\n  pop\n    /* \"Dmetro.sol\":57:981  contract Dmytro {... */\n  jump(tag_6)\n    /* \"#utility.yul\":88:205   */\ntag_8:\n    /* \"#utility.yul\":197:198   */\n  0x00\n    /* \"#utility.yul\":194:195   */\n  dup1\n    /* \"#utility.yul\":187:199   */\n  revert\n    /* \"#utility.yul\":334:460   */\ntag_10:\n    /* \"#utility.yul\":371:378   */\n  0x00\n    /* \"#utility.yul\":411:453   */\n  0xffffffffffffffffffffffffffffffffffffffff\n    /* \"#utility.yul\":404:409   */\n  dup3\n    /* \"#utility.yul\":400:454   */\n  and\n    /* \"#utility.yul\":389:454   */\n  swap1\n  pop\n    /* \"#utility.yul\":334:460   */\n  swap2\n  swap1\n  pop\n  jump\t// out\n    /* \"#utility.yul\":466:562   */\ntag_11:\n    /* \"#utility.yul\":503:510   */\n  0x00\n    /* \"#utility.yul\":532:556   */\n  tag_23\n    /* \"#utility.yul\":550:555   */\n  dup3\n    /* \"#utility.yul\":532:556   */\n  tag_10\n  jump\t// in\ntag_23:\n    /* \"#utility.yul\":521:556   */\n  swap1\n  pop\n    /* \"#utility.yul\":466:562   */\n  swap2\n  swap1\n  pop\n  jump\t// out\n    /* \"#utility.yul\":568:690   */\ntag_12:\n    /* \"#utility.yul\":641:665   */\n  tag_25\n    /* \"#utility.yul\":659:664   */\n  dup2\n    /* \"#utility.yul\":641:665   */\n  tag_11\n  jump\t// in\ntag_25:\n    /* \"#utility.yul\":634:639   */\n  dup2\n    /* \"#utility.yul\":631:666   */\n  eq\n    /* \"#utility.yul\":621:684   */\n  tag_26\n  jumpi\n    /* \"#utility.yul\":680:681   */\n  0x00\n    /* \"#utility.yul\":677:678   */\n  dup1\n    /* \"#utility.yul\":670:682   */\n  revert\n    /* \"#utility.yul\":621:684   */\ntag_26:\n    /* \"#utility.yul\":568:690   */\n  pop\n  jump\t// out\n    /* \"#utility.yul\":696:839   */\ntag_13:\n    /* \"#utility.yul\":753:758   */\n  0x00\n    /* \"#utility.yul\":784:790   */\n  dup2\n    /* \"#utility.yul\":778:791   */\n  mload\n    /* \"#utility.yul\":769:791   */\n  swap1\n  pop\n    /* \"#utility.yul\":800:833   */\n  tag_28\n    /* \"#utility.yul\":827:832   */\n  dup2\n    /* \"#utility.yul\":800:833   */\n  tag_12\n  jump\t// in\ntag_28:\n    /* \"#utility.yul\":696:839   */\n  swap3\n  swap2\n  pop\n  pop\n  jump\t// out\n    /* \"#utility.yul\":845:922   */\ntag_14:\n    /* \"#utility.yul\":882:889   */\n  0x00\n    /* \"#utility.yul\":911:916   */\n  dup2\n    /* \"#utility.yul\":900:916   */\n  swap1\n  pop\n    /* \"#utility.yul\":845:922   */\n  swap2\n  swap1\n  pop\n  jump\t// out\n    /* \"#utility.yul\":928:1050   */\ntag_15:\n    /* \"#utility.yul\":1001:1025   */\n  tag_31\n    /* \"#utility.yul\":1019:1024   */\n  dup2\n    /* \"#utility.yul\":1001:1025   */\n  tag_14\n  jump\t// in\ntag_31:\n    /* \"#utility.yul\":994:999   */\n  dup2\n    /* \"#utility.yul\":991:1026   */\n  eq\n    /* \"#utility.yul\":981:1044   */\n  tag_32\n  jumpi\n    /* \"#utility.yul\":1040:1041   */\n  0x00\n    /* \"#utility.yul\":1037:1038   */\n  dup1\n    /* \"#utility.yul\":1030:1042   */\n  revert\n    /* \"#utility.yul\":981:1044   */\ntag_32:\n    /* \"#utility.yul\":928:1050   */\n  pop\n  jump\t// out\n    /* \"#utility.yul\":1056:1199   */\ntag_16:\n    /* \"#utility.yul\":1113:1118   */\n  0x00\n    /* \"#utility.yul\":1144:1150   */\n  dup2\n    /* \"#utility.yul\":1138:1151   */\n  mload\n    /* \"#utility.yul\":1129:1151   */\n  swap1\n  pop\n    /* \"#utility.yul\":1160:1193   */\n  tag_34\n    /* \"#utility.yul\":1187:1192   */\n  dup2\n    /* \"#utility.yul\":1160:1193   */\n  tag_15\n  jump\t// in\ntag_34:\n    /* \"#utility.yul\":1056:1199   */\n  swap3\n  swap2\n  pop\n  pop\n  jump\t// out\n    /* \"#utility.yul\":1205:1712   */\ntag_3:\n    /* \"#utility.yul\":1284:1290   */\n  0x00\n    /* \"#utility.yul\":1292:1298   */\n  dup1\n    /* \"#utility.yul\":1341:1343   */\n  0x40\n    /* \"#utility.yul\":1329:1338   */\n  dup4\n    /* \"#utility.yul\":1320:1327   */\n  dup6\n    /* \"#utility.yul\":1316:1339   */\n  sub\n    /* \"#utility.yul\":1312:1344   */\n  slt\n    /* \"#utility.yul\":1309:1428   */\n  iszero\n  tag_36\n  jumpi\n    /* \"#utility.yul\":1347:1426   */\n  tag_37\n  tag_8\n  jump\t// in\ntag_37:\n    /* \"#utility.yul\":1309:1428   */\ntag_36:\n    /* \"#utility.yul\":1467:1468   */\n  0x00\n    /* \"#utility.yul\":1492:1556   */\n  tag_38\n    /* \"#utility.yul\":1548:1555   */\n  dup6\n    /* \"#utility.yul\":1539:1545   */\n  dup3\n    /* \"#utility.yul\":1528:1537   */\n  dup7\n    /* \"#utility.yul\":1524:1546   */\n  add\n    /* \"#utility.yul\":1492:1556   */\n  tag_13\n  jump\t// in\ntag_38:\n    /* \"#utility.yul\":1482:1556   */\n  swap3\n  pop\n    /* \"#utility.yul\":1438:1566   */\n  pop\n    /* \"#utility.yul\":1605:1607   */\n  0x20\n    /* \"#utility.yul\":1631:1695   */\n  tag_39\n    /* \"#utility.yul\":1687:1694   */\n  dup6\n    /* \"#utility.yul\":1678:1684   */\n  dup3\n    /* \"#utility.yul\":1667:1676   */\n  dup7\n    /* \"#utility.yul\":1663:1685   */\n  add\n    /* \"#utility.yul\":1631:1695   */\n  tag_16\n  jump\t// in\ntag_39:\n    /* \"#utility.yul\":1621:1695   */\n  swap2\n  pop\n    /* \"#utility.yul\":1576:1705   */\n  pop\n    /* \"#utility.yul\":1205:1712   */\n  swap3\n  pop\n  swap3\n  swap1\n  pop\n  jump\t// out\n    /* \"Dmetro.sol\":57:981  contract Dmytro {... */\ntag_6:\n  dataSize(sub_0)\n  dup1\n  dataOffset(sub_0)\n  0x00\n  codecopy\n  0x00\n  return\nstop\n\nsub_0: assembly {\n        /* \"Dmetro.sol\":57:981  contract Dmytro {... */\n      mstore(0x40, 0x80)\n      jumpi(tag_1, lt(calldatasize, 0x04))\n      shr(0xe0, calldataload(0x00))\n      dup1\n      0x590e1ae3\n      gt\n      tag_12\n      jumpi\n      dup1\n      0x590e1ae3\n      eq\n      tag_7\n      jumpi\n      dup1\n      0x5b889ab8\n      eq\n      tag_8\n      jumpi\n      dup1\n      0x8bfafd8b\n      eq\n      tag_9\n      jumpi\n      dup1\n      0xae4af217\n      eq\n      tag_10\n      jumpi\n      dup1\n      0xda1d55e1\n      eq\n      tag_11\n      jumpi\n      jump(tag_2)\n    tag_12:\n      dup1\n      0x09bd5a60\n      eq\n      tag_3\n      jumpi\n      dup1\n      0x0d668087\n      eq\n      tag_4\n      jumpi\n      dup1\n      0x200d2ed2\n      eq\n      tag_5\n      jumpi\n      dup1\n      0x31fb67c2\n      eq\n      tag_6\n      jumpi\n      jump(tag_2)\n    tag_1:\n      jumpi(tag_2, calldatasize)\n        /* \"Dmetro.sol\":616:622  status */\n      0x06\n      0x00\n      swap1\n      sload\n      swap1\n      0x0100\n      exp\n      swap1\n      div\n      0xff\n      and\n        /* \"Dmetro.sol\":608:632  require(status, \"no-no\") */\n      tag_15\n      jumpi\n      mload(0x40)\n      0x08c379a000000000000000000000000000000000000000000000000000000000\n      dup2\n      mstore\n      0x04\n      add\n      tag_16\n      swap1\n      tag_17\n      jump\t// in\n    tag_16:\n      mload(0x40)\n      dup1\n      swap2\n      sub\n      swap1\n      revert\n    tag_15:\n        /* \"Dmetro.sol\":357:365  lockTime */\n      sload(0x01)\n        /* \"Dmetro.sol\":339:354  block.timestamp */\n      timestamp\n        /* \"Dmetro.sol\":339:365  block.timestamp + lockTime */\n      tag_19\n      swap2\n      swap1\n      tag_20\n      jump\t// in\n    tag_19:\n        /* \"Dmetro.sol\":330:336  timeTo */\n      0x05\n        /* \"Dmetro.sol\":330:365  timeTo = block.timestamp + lockTime */\n      dup2\n      swap1\n      sstore\n      pop\n        /* \"Dmetro.sol\":378:382  true */\n      0x01\n        /* \"Dmetro.sol\":369:375  status */\n      0x06\n      0x00\n        /* \"Dmetro.sol\":369:382  status = true */\n      0x0100\n      exp\n      dup2\n      sload\n      dup2\n      0xff\n      mul\n      not\n      and\n      swap1\n      dup4\n      iszero\n      iszero\n      mul\n      or\n      swap1\n      sstore\n      stop\n        /* \"Dmetro.sol\":57:981  contract Dmytro {... */\n    tag_2:\n      0x00\n      dup1\n      revert\n        /* \"Dmetro.sol\":159:178  bytes32 public hash */\n    tag_3:\n      callvalue\n      dup1\n      iszero\n      tag_21\n      jumpi\n      0x00\n      dup1\n      revert\n    tag_21:\n      pop\n      tag_22\n      tag_23\n      jump\t// in\n    tag_22:\n      mload(0x40)\n      tag_24\n      swap2\n      swap1\n      tag_25\n      jump\t// in\n    tag_24:\n      mload(0x40)\n      dup1\n      swap2\n      sub\n      swap1\n      return\n        /* \"Dmetro.sol\":115:146  uint256 public lockTime = 86400 */\n    tag_4:\n      callvalue\n      dup1\n      iszero\n      tag_26\n      jumpi\n      0x00\n      dup1\n      revert\n    tag_26:\n      pop\n      tag_27\n      tag_28\n      jump\t// in\n    tag_27:\n      mload(0x40)\n      tag_29\n      swap2\n      swap1\n      tag_30\n      jump\t// in\n    tag_29:\n      mload(0x40)\n      dup1\n      swap2\n      sub\n      swap1\n      return\n        /* \"Dmetro.sol\":266:284  bool public status */\n    tag_5:\n      callvalue\n      dup1\n      iszero\n      tag_31\n      jumpi\n      0x00\n      dup1\n      revert\n    tag_31:\n      pop\n      tag_32\n      tag_33\n      jump\t// in\n    tag_32:\n      mload(0x40)\n      tag_34\n      swap2\n      swap1\n      tag_35\n      jump\t// in\n    tag_34:\n      mload(0x40)\n      dup1\n      swap2\n      sub\n      swap1\n      return\n        /* \"Dmetro.sol\":834:915  function withdraw(string memory _secret) external onlyPetro {... */\n    tag_6:\n      callvalue\n      dup1\n      iszero\n      tag_36\n      jumpi\n      0x00\n      dup1\n      revert\n    tag_36:\n      pop\n      tag_37\n      0x04\n      dup1\n      calldatasize\n      sub\n      dup2\n      add\n      swap1\n      tag_38\n      swap2\n      swap1\n      tag_39\n      jump\t// in\n    tag_38:\n      tag_40\n      jump\t// in\n    tag_37:\n      stop\n        /* \"Dmetro.sol\":918:977  function refund() external onlyDmytro {... */\n    tag_7:\n      callvalue\n      dup1\n      iszero\n      tag_41\n      jumpi\n      0x00\n      dup1\n      revert\n    tag_41:\n      pop\n      tag_42\n      tag_43\n      jump\t// in\n    tag_42:\n      stop\n        /* \"Dmetro.sol\":78:112  uint256 public ammount = 0.5 ether */\n    tag_8:\n      callvalue\n      dup1\n      iszero\n      tag_44\n      jumpi\n      0x00\n      dup1\n      revert\n    tag_44:\n      pop\n      tag_45\n      tag_46\n      jump\t// in\n    tag_45:\n      mload(0x40)\n      tag_47\n      swap2\n      swap1\n      tag_30\n      jump\t// in\n    tag_47:\n      mload(0x40)\n      dup1\n      swap2\n      sub\n      swap1\n      return\n        /* \"Dmetro.sol\":242:263  uint256 public timeTo */\n    tag_9:\n      callvalue\n      dup1\n      iszero\n      tag_48\n      jumpi\n      0x00\n      dup1\n      revert\n    tag_48:\n      pop\n      tag_49\n      tag_50\n      jump\t// in\n    tag_49:\n      mload(0x40)\n      tag_51\n      swap2\n      swap1\n      tag_30\n      jump\t// in\n    tag_51:\n      mload(0x40)\n      dup1\n      swap2\n      sub\n      swap1\n      return\n        /* \"Dmetro.sol\":211:239  address public dmytroAddress */\n    tag_10:\n      callvalue\n      dup1\n      iszero\n      tag_52\n      jumpi\n      0x00\n      dup1\n      revert\n    tag_52:\n      pop\n      tag_53\n      tag_54\n      jump\t// in\n    tag_53:\n      mload(0x40)\n      tag_55\n      swap2\n      swap1\n      tag_56\n      jump\t// in\n    tag_55:\n      mload(0x40)\n      dup1\n      swap2\n      sub\n      swap1\n      return\n        /* \"Dmetro.sol\":181:208  address public petroAddress */\n    tag_11:\n      callvalue\n      dup1\n      iszero\n      tag_57\n      jumpi\n      0x00\n      dup1\n      revert\n    tag_57:\n      pop\n      tag_58\n      tag_59\n      jump\t// in\n    tag_58:\n      mload(0x40)\n      tag_60\n      swap2\n      swap1\n      tag_56\n      jump\t// in\n    tag_60:\n      mload(0x40)\n      dup1\n      swap2\n      sub\n      swap1\n      return\n        /* \"Dmetro.sol\":159:178  bytes32 public hash */\n    tag_23:\n      sload(0x02)\n      dup2\n      jump\t// out\n        /* \"Dmetro.sol\":115:146  uint256 public lockTime = 86400 */\n    tag_28:\n      sload(0x01)\n      dup2\n      jump\t// out\n        /* \"Dmetro.sol\":266:284  bool public status */\n    tag_33:\n      0x06\n      0x00\n      swap1\n      sload\n      swap1\n      0x0100\n      exp\n      swap1\n      div\n      0xff\n      and\n      dup2\n      jump\t// out\n        /* \"Dmetro.sol\":834:915  function withdraw(string memory _secret) external onlyPetro {... */\n    tag_40:\n        /* \"Dmetro.sol\":787:799  petroAddress */\n      0x03\n      0x00\n      swap1\n      sload\n      swap1\n      0x0100\n      exp\n      swap1\n      div\n      0xffffffffffffffffffffffffffffffffffffffff\n      and\n        /* \"Dmetro.sol\":773:799  msg.sender == petroAddress */\n      0xffffffffffffffffffffffffffffffffffffffff\n      and\n        /* \"Dmetro.sol\":773:783  msg.sender */\n      caller\n        /* \"Dmetro.sol\":773:799  msg.sender == petroAddress */\n      0xffffffffffffffffffffffffffffffffffffffff\n      and\n      eq\n        /* \"Dmetro.sol\":765:821  require(msg.sender == petroAddress, \"you are not Petro\") */\n      tag_62\n      jumpi\n      mload(0x40)\n      0x08c379a000000000000000000000000000000000000000000000000000000000\n      dup2\n      mstore\n      0x04\n      add\n      tag_63\n      swap1\n      tag_64\n      jump\t// in\n    tag_63:\n      mload(0x40)\n      dup1\n      swap2\n      sub\n      swap1\n      revert\n    tag_62:\n        /* \"Dmetro.sol\":907:911  true */\n      0x01\n        /* \"Dmetro.sol\":898:904  status */\n      0x06\n      0x00\n        /* \"Dmetro.sol\":898:911  status = true */\n      0x0100\n      exp\n      dup2\n      sload\n      dup2\n      0xff\n      mul\n      not\n      and\n      swap1\n      dup4\n      iszero\n      iszero\n      mul\n      or\n      swap1\n      sstore\n      pop\n        /* \"Dmetro.sol\":834:915  function withdraw(string memory _secret) external onlyPetro {... */\n      pop\n      jump\t// out\n        /* \"Dmetro.sol\":918:977  function refund() external onlyDmytro {... */\n    tag_43:\n        /* \"Dmetro.sol\":692:705  dmytroAddress */\n      0x04\n      0x00\n      swap1\n      sload\n      swap1\n      0x0100\n      exp\n      swap1\n      div\n      0xffffffffffffffffffffffffffffffffffffffff\n      and\n        /* \"Dmetro.sol\":678:705  msg.sender == dmytroAddress */\n      0xffffffffffffffffffffffffffffffffffffffff\n      and\n        /* \"Dmetro.sol\":678:688  msg.sender */\n      caller\n        /* \"Dmetro.sol\":678:705  msg.sender == dmytroAddress */\n      0xffffffffffffffffffffffffffffffffffffffff\n      and\n      eq\n        /* \"Dmetro.sol\":670:728  require(msg.sender == dmytroAddress, \"you are not Dmytro\") */\n      tag_67\n      jumpi\n      mload(0x40)\n      0x08c379a000000000000000000000000000000000000000000000000000000000\n      dup2\n      mstore\n      0x04\n      add\n      tag_68\n      swap1\n      tag_69\n      jump\t// in\n    tag_68:\n      mload(0x40)\n      dup1\n      swap2\n      sub\n      swap1\n      revert\n    tag_67:\n        /* \"Dmetro.sol\":969:973  true */\n      0x01\n        /* \"Dmetro.sol\":960:966  status */\n      0x06\n      0x00\n        /* \"Dmetro.sol\":960:973  status = true */\n      0x0100\n      exp\n      dup2\n      sload\n      dup2\n      0xff\n      mul\n      not\n      and\n      swap1\n      dup4\n      iszero\n      iszero\n      mul\n      or\n      swap1\n      sstore\n      pop\n        /* \"Dmetro.sol\":918:977  function refund() external onlyDmytro {... */\n      jump\t// out\n        /* \"Dmetro.sol\":78:112  uint256 public ammount = 0.5 ether */\n    tag_46:\n      sload(0x00)\n      dup2\n      jump\t// out\n        /* \"Dmetro.sol\":242:263  uint256 public timeTo */\n    tag_50:\n      sload(0x05)\n      dup2\n      jump\t// out\n        /* \"Dmetro.sol\":211:239  address public dmytroAddress */\n    tag_54:\n      0x04\n      0x00\n      swap1\n      sload\n      swap1\n      0x0100\n      exp\n      swap1\n      div\n      0xffffffffffffffffffffffffffffffffffffffff\n      and\n      dup2\n      jump\t// out\n        /* \"Dmetro.sol\":181:208  address public petroAddress */\n    tag_59:\n      0x03\n      0x00\n      swap1\n      sload\n      swap1\n      0x0100\n      exp\n      swap1\n      div\n      0xffffffffffffffffffffffffffffffffffffffff\n      and\n      dup2\n      jump\t// out\n        /* \"#utility.yul\":7:176   */\n    tag_71:\n        /* \"#utility.yul\":91:102   */\n      0x00\n        /* \"#utility.yul\":125:131   */\n      dup3\n        /* \"#utility.yul\":120:123   */\n      dup3\n        /* \"#utility.yul\":113:132   */\n      mstore\n        /* \"#utility.yul\":165:169   */\n      0x20\n        /* \"#utility.yul\":160:163   */\n      dup3\n        /* \"#utility.yul\":156:170   */\n      add\n        /* \"#utility.yul\":141:170   */\n      swap1\n      pop\n        /* \"#utility.yul\":7:176   */\n      swap3\n      swap2\n      pop\n      pop\n      jump\t// out\n        /* \"#utility.yul\":182:337   */\n    tag_72:\n        /* \"#utility.yul\":322:329   */\n      0x6e6f2d6e6f000000000000000000000000000000000000000000000000000000\n        /* \"#utility.yul\":318:319   */\n      0x00\n        /* \"#utility.yul\":310:316   */\n      dup3\n        /* \"#utility.yul\":306:320   */\n      add\n        /* \"#utility.yul\":299:330   */\n      mstore\n        /* \"#utility.yul\":182:337   */\n      pop\n      jump\t// out\n        /* \"#utility.yul\":343:708   */\n    tag_73:\n        /* \"#utility.yul\":485:488   */\n      0x00\n        /* \"#utility.yul\":506:572   */\n      tag_105\n        /* \"#utility.yul\":570:571   */\n      0x05\n        /* \"#utility.yul\":565:568   */\n      dup4\n        /* \"#utility.yul\":506:572   */\n      tag_71\n      jump\t// in\n    tag_105:\n        /* \"#utility.yul\":499:572   */\n      swap2\n      pop\n        /* \"#utility.yul\":581:674   */\n      tag_106\n        /* \"#utility.yul\":670:673   */\n      dup3\n        /* \"#utility.yul\":581:674   */\n      tag_72\n      jump\t// in\n    tag_106:\n        /* \"#utility.yul\":699:701   */\n      0x20\n        /* \"#utility.yul\":694:697   */\n      dup3\n        /* \"#utility.yul\":690:702   */\n      add\n        /* \"#utility.yul\":683:702   */\n      swap1\n      pop\n        /* \"#utility.yul\":343:708   */\n      swap2\n      swap1\n      pop\n      jump\t// out\n        /* \"#utility.yul\":714:1133   */\n    tag_17:\n        /* \"#utility.yul\":880:884   */\n      0x00\n        /* \"#utility.yul\":918:920   */\n      0x20\n        /* \"#utility.yul\":907:916   */\n      dup3\n        /* \"#utility.yul\":903:921   */\n      add\n        /* \"#utility.yul\":895:921   */\n      swap1\n      pop\n        /* \"#utility.yul\":967:976   */\n      dup2\n        /* \"#utility.yul\":961:965   */\n      dup2\n        /* \"#utility.yul\":957:977   */\n      sub\n        /* \"#utility.yul\":953:954   */\n      0x00\n        /* \"#utility.yul\":942:951   */\n      dup4\n        /* \"#utility.yul\":938:955   */\n      add\n        /* \"#utility.yul\":931:978   */\n      mstore\n        /* \"#utility.yul\":995:1126   */\n      tag_108\n        /* \"#utility.yul\":1121:1125   */\n      dup2\n        /* \"#utility.yul\":995:1126   */\n      tag_73\n      jump\t// in\n    tag_108:\n        /* \"#utility.yul\":987:1126   */\n      swap1\n      pop\n        /* \"#utility.yul\":714:1133   */\n      swap2\n      swap1\n      pop\n      jump\t// out\n        /* \"#utility.yul\":1139:1216   */\n    tag_74:\n        /* \"#utility.yul\":1176:1183   */\n      0x00\n        /* \"#utility.yul\":1205:1210   */\n      dup2\n        /* \"#utility.yul\":1194:1210   */\n      swap1\n      pop\n        /* \"#utility.yul\":1139:1216   */\n      swap2\n      swap1\n      pop\n      jump\t// out\n        /* \"#utility.yul\":1222:1402   */\n    tag_75:\n        /* \"#utility.yul\":1270:1347   */\n      0x4e487b7100000000000000000000000000000000000000000000000000000000\n        /* \"#utility.yul\":1267:1268   */\n      0x00\n        /* \"#utility.yul\":1260:1348   */\n      mstore\n        /* \"#utility.yul\":1367:1371   */\n      0x11\n        /* \"#utility.yul\":1364:1365   */\n      0x04\n        /* \"#utility.yul\":1357:1372   */\n      mstore\n        /* \"#utility.yul\":1391:1395   */\n      0x24\n        /* \"#utility.yul\":1388:1389   */\n      0x00\n        /* \"#utility.yul\":1381:1396   */\n      revert\n        /* \"#utility.yul\":1408:1599   */\n    tag_20:\n        /* \"#utility.yul\":1448:1451   */\n      0x00\n        /* \"#utility.yul\":1467:1487   */\n      tag_112\n        /* \"#utility.yul\":1485:1486   */\n      dup3\n        /* \"#utility.yul\":1467:1487   */\n      tag_74\n      jump\t// in\n    tag_112:\n        /* \"#utility.yul\":1462:1487   */\n      swap2\n      pop\n        /* \"#utility.yul\":1501:1521   */\n      tag_113\n        /* \"#utility.yul\":1519:1520   */\n      dup4\n        /* \"#utility.yul\":1501:1521   */\n      tag_74\n      jump\t// in\n    tag_113:\n        /* \"#utility.yul\":1496:1521   */\n      swap3\n      pop\n        /* \"#utility.yul\":1544:1545   */\n      dup3\n        /* \"#utility.yul\":1541:1542   */\n      dup3\n        /* \"#utility.yul\":1537:1546   */\n      add\n        /* \"#utility.yul\":1530:1546   */\n      swap1\n      pop\n        /* \"#utility.yul\":1565:1568   */\n      dup1\n        /* \"#utility.yul\":1562:1563   */\n      dup3\n        /* \"#utility.yul\":1559:1569   */\n      gt\n        /* \"#utility.yul\":1556:1592   */\n      iszero\n      tag_114\n      jumpi\n        /* \"#utility.yul\":1572:1590   */\n      tag_115\n      tag_75\n      jump\t// in\n    tag_115:\n        /* \"#utility.yul\":1556:1592   */\n    tag_114:\n        /* \"#utility.yul\":1408:1599   */\n      swap3\n      swap2\n      pop\n      pop\n      jump\t// out\n        /* \"#utility.yul\":1605:1682   */\n    tag_76:\n        /* \"#utility.yul\":1642:1649   */\n      0x00\n        /* \"#utility.yul\":1671:1676   */\n      dup2\n        /* \"#utility.yul\":1660:1676   */\n      swap1\n      pop\n        /* \"#utility.yul\":1605:1682   */\n      swap2\n      swap1\n      pop\n      jump\t// out\n        /* \"#utility.yul\":1688:1806   */\n    tag_77:\n        /* \"#utility.yul\":1775:1799   */\n      tag_118\n        /* \"#utility.yul\":1793:1798   */\n      dup2\n        /* \"#utility.yul\":1775:1799   */\n      tag_76\n      jump\t// in\n    tag_118:\n        /* \"#utility.yul\":1770:1773   */\n      dup3\n        /* \"#utility.yul\":1763:1800   */\n      mstore\n        /* \"#utility.yul\":1688:1806   */\n      pop\n      pop\n      jump\t// out\n        /* \"#utility.yul\":1812:2034   */\n    tag_25:\n        /* \"#utility.yul\":1905:1909   */\n      0x00\n        /* \"#utility.yul\":1943:1945   */\n      0x20\n        /* \"#utility.yul\":1932:1941   */\n      dup3\n        /* \"#utility.yul\":1928:1946   */\n      add\n        /* \"#utility.yul\":1920:1946   */\n      swap1\n      pop\n        /* \"#utility.yul\":1956:2027   */\n      tag_120\n        /* \"#utility.yul\":2024:2025   */\n      0x00\n        /* \"#utility.yul\":2013:2022   */\n      dup4\n        /* \"#utility.yul\":2009:2026   */\n      add\n        /* \"#utility.yul\":2000:2006   */\n      dup5\n        /* \"#utility.yul\":1956:2027   */\n      tag_77\n      jump\t// in\n    tag_120:\n        /* \"#utility.yul\":1812:2034   */\n      swap3\n      swap2\n      pop\n      pop\n      jump\t// out\n        /* \"#utility.yul\":2040:2158   */\n    tag_78:\n        /* \"#utility.yul\":2127:2151   */\n      tag_122\n        /* \"#utility.yul\":2145:2150   */\n      dup2\n        /* \"#utility.yul\":2127:2151   */\n      tag_74\n      jump\t// in\n    tag_122:\n        /* \"#utility.yul\":2122:2125   */\n      dup3\n        /* \"#utility.yul\":2115:2152   */\n      mstore\n        /* \"#utility.yul\":2040:2158   */\n      pop\n      pop\n      jump\t// out\n        /* \"#utility.yul\":2164:2386   */\n    tag_30:\n        /* \"#utility.yul\":2257:2261   */\n      0x00\n        /* \"#utility.yul\":2295:2297   */\n      0x20\n        /* \"#utility.yul\":2284:2293   */\n      dup3\n        /* \"#utility.yul\":2280:2298   */\n      add\n        /* \"#utility.yul\":2272:2298   */\n      swap1\n      pop\n        /* \"#utility.yul\":2308:2379   */\n      tag_124\n        /* \"#utility.yul\":2376:2377   */\n      0x00\n        /* \"#utility.yul\":2365:2374   */\n      dup4\n        /* \"#utility.yul\":2361:2378   */\n      add\n        /* \"#utility.yul\":2352:2358   */\n      dup5\n        /* \"#utility.yul\":2308:2379   */\n      tag_78\n      jump\t// in\n    tag_124:\n        /* \"#utility.yul\":2164:2386   */\n      swap3\n      swap2\n      pop\n      pop\n      jump\t// out\n        /* \"#utility.yul\":2392:2482   */\n    tag_79:\n        /* \"#utility.yul\":2426:2433   */\n      0x00\n        /* \"#utility.yul\":2469:2474   */\n      dup2\n        /* \"#utility.yul\":2462:2475   */\n      iszero\n        /* \"#utility.yul\":2455:2476   */\n      iszero\n        /* \"#utility.yul\":2444:2476   */\n      swap1\n      pop\n        /* \"#utility.yul\":2392:2482   */\n      swap2\n      swap1\n      pop\n      jump\t// out\n        /* \"#utility.yul\":2488:2597   */\n    tag_80:\n        /* \"#utility.yul\":2569:2590   */\n      tag_127\n        /* \"#utility.yul\":2584:2589   */\n      dup2\n        /* \"#utility.yul\":2569:2590   */\n      tag_79\n      jump\t// in\n    tag_127:\n        /* \"#utility.yul\":2564:2567   */\n      dup3\n        /* \"#utility.yul\":2557:2591   */\n      mstore\n        /* \"#utility.yul\":2488:2597   */\n      pop\n      pop\n      jump\t// out\n        /* \"#utility.yul\":2603:2813   */\n    tag_35:\n        /* \"#utility.yul\":2690:2694   */\n      0x00\n        /* \"#utility.yul\":2728:2730   */\n      0x20\n        /* \"#utility.yul\":2717:2726   */\n      dup3\n        /* \"#utility.yul\":2713:2731   */\n      add\n        /* \"#utility.yul\":2705:2731   */\n      swap1\n      pop\n        /* \"#utility.yul\":2741:2806   */\n      tag_129\n        /* \"#utility.yul\":2803:2804   */\n      0x00\n        /* \"#utility.yul\":2792:2801   */\n      dup4\n        /* \"#utility.yul\":2788:2805   */\n      add\n        /* \"#utility.yul\":2779:2785   */\n      dup5\n        /* \"#utility.yul\":2741:2806   */\n      tag_80\n      jump\t// in\n    tag_129:\n        /* \"#utility.yul\":2603:2813   */\n      swap3\n      swap2\n      pop\n      pop\n      jump\t// out\n        /* \"#utility.yul\":2819:2894   */\n    tag_81:\n        /* \"#utility.yul\":2852:2858   */\n      0x00\n        /* \"#utility.yul\":2885:2887   */\n      0x40\n        /* \"#utility.yul\":2879:2888   */\n      mload\n        /* \"#utility.yul\":2869:2888   */\n      swap1\n      pop\n        /* \"#utility.yul\":2819:2894   */\n      swap1\n      jump\t// out\n        /* \"#utility.yul\":2900:3017   */\n    tag_82:\n        /* \"#utility.yul\":3009:3010   */\n      0x00\n        /* \"#utility.yul\":3006:3007   */\n      dup1\n        /* \"#utility.yul\":2999:3011   */\n      revert\n        /* \"#utility.yul\":3023:3140   */\n    tag_83:\n        /* \"#utility.yul\":3132:3133   */\n      0x00\n        /* \"#utility.yul\":3129:3130   */\n      dup1\n        /* \"#utility.yul\":3122:3134   */\n      revert\n        /* \"#utility.yul\":3146:3263   */\n    tag_84:\n        /* \"#utility.yul\":3255:3256   */\n      0x00\n        /* \"#utility.yul\":3252:3253   */\n      dup1\n        /* \"#utility.yul\":3245:3257   */\n      revert\n        /* \"#utility.yul\":3269:3386   */\n    tag_85:\n        /* \"#utility.yul\":3378:3379   */\n      0x00\n        /* \"#utility.yul\":3375:3376   */\n      dup1\n        /* \"#utility.yul\":3368:3380   */\n      revert\n        /* \"#utility.yul\":3392:3494   */\n    tag_86:\n        /* \"#utility.yul\":3433:3439   */\n      0x00\n        /* \"#utility.yul\":3484:3486   */\n      0x1f\n        /* \"#utility.yul\":3480:3487   */\n      not\n        /* \"#utility.yul\":3475:3477   */\n      0x1f\n        /* \"#utility.yul\":3468:3473   */\n      dup4\n        /* \"#utility.yul\":3464:3478   */\n      add\n        /* \"#utility.yul\":3460:3488   */\n      and\n        /* \"#utility.yul\":3450:3488   */\n      swap1\n      pop\n        /* \"#utility.yul\":3392:3494   */\n      swap2\n      swap1\n      pop\n      jump\t// out\n        /* \"#utility.yul\":3500:3680   */\n    tag_87:\n        /* \"#utility.yul\":3548:3625   */\n      0x4e487b7100000000000000000000000000000000000000000000000000000000\n        /* \"#utility.yul\":3545:3546   */\n      0x00\n        /* \"#utility.yul\":3538:3626   */\n      mstore\n        /* \"#utility.yul\":3645:3649   */\n      0x41\n        /* \"#utility.yul\":3642:3643   */\n      0x04\n        /* \"#utility.yul\":3635:3650   */\n      mstore\n        /* \"#utility.yul\":3669:3673   */\n      0x24\n        /* \"#utility.yul\":3666:3667   */\n      0x00\n        /* \"#utility.yul\":3659:3674   */\n      revert\n        /* \"#utility.yul\":3686:3967   */\n    tag_88:\n        /* \"#utility.yul\":3769:3796   */\n      tag_138\n        /* \"#utility.yul\":3791:3795   */\n      dup3\n        /* \"#utility.yul\":3769:3796   */\n      tag_86\n      jump\t// in\n    tag_138:\n        /* \"#utility.yul\":3761:3767   */\n      dup2\n        /* \"#utility.yul\":3757:3797   */\n      add\n        /* \"#utility.yul\":3899:3905   */\n      dup2\n        /* \"#utility.yul\":3887:3897   */\n      dup2\n        /* \"#utility.yul\":3884:3906   */\n      lt\n        /* \"#utility.yul\":3863:3881   */\n      0xffffffffffffffff\n        /* \"#utility.yul\":3851:3861   */\n      dup3\n        /* \"#utility.yul\":3848:3882   */\n      gt\n        /* \"#utility.yul\":3845:3907   */\n      or\n        /* \"#utility.yul\":3842:3930   */\n      iszero\n      tag_139\n      jumpi\n        /* \"#utility.yul\":3910:3928   */\n      tag_140\n      tag_87\n      jump\t// in\n    tag_140:\n        /* \"#utility.yul\":3842:3930   */\n    tag_139:\n        /* \"#utility.yul\":3950:3960   */\n      dup1\n        /* \"#utility.yul\":3946:3948   */\n      0x40\n        /* \"#utility.yul\":3939:3961   */\n      mstore\n        /* \"#utility.yul\":3729:3967   */\n      pop\n        /* \"#utility.yul\":3686:3967   */\n      pop\n      pop\n      jump\t// out\n        /* \"#utility.yul\":3973:4102   */\n    tag_89:\n        /* \"#utility.yul\":4007:4013   */\n      0x00\n        /* \"#utility.yul\":4034:4054   */\n      tag_142\n      tag_81\n      jump\t// in\n    tag_142:\n        /* \"#utility.yul\":4024:4054   */\n      swap1\n      pop\n        /* \"#utility.yul\":4063:4096   */\n      tag_143\n        /* \"#utility.yul\":4091:4095   */\n      dup3\n        /* \"#utility.yul\":4083:4089   */\n      dup3\n        /* \"#utility.yul\":4063:4096   */\n      tag_88\n      jump\t// in\n    tag_143:\n        /* \"#utility.yul\":3973:4102   */\n      swap2\n      swap1\n      pop\n      jump\t// out\n        /* \"#utility.yul\":4108:4416   */\n    tag_90:\n        /* \"#utility.yul\":4170:4174   */\n      0x00\n        /* \"#utility.yul\":4260:4278   */\n      0xffffffffffffffff\n        /* \"#utility.yul\":4252:4258   */\n      dup3\n        /* \"#utility.yul\":4249:4279   */\n      gt\n        /* \"#utility.yul\":4246:4302   */\n      iszero\n      tag_145\n      jumpi\n        /* \"#utility.yul\":4282:4300   */\n      tag_146\n      tag_87\n      jump\t// in\n    tag_146:\n        /* \"#utility.yul\":4246:4302   */\n    tag_145:\n        /* \"#utility.yul\":4320:4349   */\n      tag_147\n        /* \"#utility.yul\":4342:4348   */\n      dup3\n        /* \"#utility.yul\":4320:4349   */\n      tag_86\n      jump\t// in\n    tag_147:\n        /* \"#utility.yul\":4312:4349   */\n      swap1\n      pop\n        /* \"#utility.yul\":4404:4408   */\n      0x20\n        /* \"#utility.yul\":4398:4402   */\n      dup2\n        /* \"#utility.yul\":4394:4409   */\n      add\n        /* \"#utility.yul\":4386:4409   */\n      swap1\n      pop\n        /* \"#utility.yul\":4108:4416   */\n      swap2\n      swap1\n      pop\n      jump\t// out\n        /* \"#utility.yul\":4422:4568   */\n    tag_91:\n        /* \"#utility.yul\":4519:4525   */\n      dup3\n        /* \"#utility.yul\":4514:4517   */\n      dup2\n        /* \"#utility.yul\":4509:4512   */\n      dup4\n        /* \"#utility.yul\":4496:4526   */\n      calldatacopy\n        /* \"#utility.yul\":4560:4561   */\n      0x00\n        /* \"#utility.yul\":4551:4557   */\n      dup4\n        /* \"#utility.yul\":4546:4549   */\n      dup4\n        /* \"#utility.yul\":4542:4558   */\n      add\n        /* \"#utility.yul\":4535:4562   */\n      mstore\n        /* \"#utility.yul\":4422:4568   */\n      pop\n      pop\n      pop\n      jump\t// out\n        /* \"#utility.yul\":4574:4999   */\n    tag_92:\n        /* \"#utility.yul\":4652:4657   */\n      0x00\n        /* \"#utility.yul\":4677:4743   */\n      tag_150\n        /* \"#utility.yul\":4693:4742   */\n      tag_151\n        /* \"#utility.yul\":4735:4741   */\n      dup5\n        /* \"#utility.yul\":4693:4742   */\n      tag_90\n      jump\t// in\n    tag_151:\n        /* \"#utility.yul\":4677:4743   */\n      tag_89\n      jump\t// in\n    tag_150:\n        /* \"#utility.yul\":4668:4743   */\n      swap1\n      pop\n        /* \"#utility.yul\":4766:4772   */\n      dup3\n        /* \"#utility.yul\":4759:4764   */\n      dup2\n        /* \"#utility.yul\":4752:4773   */\n      mstore\n        /* \"#utility.yul\":4804:4808   */\n      0x20\n        /* \"#utility.yul\":4797:4802   */\n      dup2\n        /* \"#utility.yul\":4793:4809   */\n      add\n        /* \"#utility.yul\":4842:4845   */\n      dup5\n        /* \"#utility.yul\":4833:4839   */\n      dup5\n        /* \"#utility.yul\":4828:4831   */\n      dup5\n        /* \"#utility.yul\":4824:4840   */\n      add\n        /* \"#utility.yul\":4821:4846   */\n      gt\n        /* \"#utility.yul\":4818:4930   */\n      iszero\n      tag_152\n      jumpi\n        /* \"#utility.yul\":4849:4928   */\n      tag_153\n      tag_85\n      jump\t// in\n    tag_153:\n        /* \"#utility.yul\":4818:4930   */\n    tag_152:\n        /* \"#utility.yul\":4939:4993   */\n      tag_154\n        /* \"#utility.yul\":4986:4992   */\n      dup5\n        /* \"#utility.yul\":4981:4984   */\n      dup3\n        /* \"#utility.yul\":4976:4979   */\n      dup6\n        /* \"#utility.yul\":4939:4993   */\n      tag_91\n      jump\t// in\n    tag_154:\n        /* \"#utility.yul\":4658:4999   */\n      pop\n        /* \"#utility.yul\":4574:4999   */\n      swap4\n      swap3\n      pop\n      pop\n      pop\n      jump\t// out\n        /* \"#utility.yul\":5019:5359   */\n    tag_93:\n        /* \"#utility.yul\":5075:5080   */\n      0x00\n        /* \"#utility.yul\":5124:5127   */\n      dup3\n        /* \"#utility.yul\":5117:5121   */\n      0x1f\n        /* \"#utility.yul\":5109:5115   */\n      dup4\n        /* \"#utility.yul\":5105:5122   */\n      add\n        /* \"#utility.yul\":5101:5128   */\n      slt\n        /* \"#utility.yul\":5091:5213   */\n      tag_156\n      jumpi\n        /* \"#utility.yul\":5132:5211   */\n      tag_157\n      tag_84\n      jump\t// in\n    tag_157:\n        /* \"#utility.yul\":5091:5213   */\n    tag_156:\n        /* \"#utility.yul\":5249:5255   */\n      dup2\n        /* \"#utility.yul\":5236:5256   */\n      calldataload\n        /* \"#utility.yul\":5274:5353   */\n      tag_158\n        /* \"#utility.yul\":5349:5352   */\n      dup5\n        /* \"#utility.yul\":5341:5347   */\n      dup3\n        /* \"#utility.yul\":5334:5338   */\n      0x20\n        /* \"#utility.yul\":5326:5332   */\n      dup7\n        /* \"#utility.yul\":5322:5339   */\n      add\n        /* \"#utility.yul\":5274:5353   */\n      tag_92\n      jump\t// in\n    tag_158:\n        /* \"#utility.yul\":5265:5353   */\n      swap2\n      pop\n        /* \"#utility.yul\":5081:5359   */\n      pop\n        /* \"#utility.yul\":5019:5359   */\n      swap3\n      swap2\n      pop\n      pop\n      jump\t// out\n        /* \"#utility.yul\":5365:5874   */\n    tag_39:\n        /* \"#utility.yul\":5434:5440   */\n      0x00\n        /* \"#utility.yul\":5483:5485   */\n      0x20\n        /* \"#utility.yul\":5471:5480   */\n      dup3\n        /* \"#utility.yul\":5462:5469   */\n      dup5\n        /* \"#utility.yul\":5458:5481   */\n      sub\n        /* \"#utility.yul\":5454:5486   */\n      slt\n        /* \"#utility.yul\":5451:5570   */\n      iszero\n      tag_160\n      jumpi\n        /* \"#utility.yul\":5489:5568   */\n      tag_161\n      tag_82\n      jump\t// in\n    tag_161:\n        /* \"#utility.yul\":5451:5570   */\n    tag_160:\n        /* \"#utility.yul\":5637:5638   */\n      0x00\n        /* \"#utility.yul\":5626:5635   */\n      dup3\n        /* \"#utility.yul\":5622:5639   */\n      add\n        /* \"#utility.yul\":5609:5640   */\n      calldataload\n        /* \"#utility.yul\":5667:5685   */\n      0xffffffffffffffff\n        /* \"#utility.yul\":5659:5665   */\n      dup2\n        /* \"#utility.yul\":5656:5686   */\n      gt\n        /* \"#utility.yul\":5653:5770   */\n      iszero\n      tag_162\n      jumpi\n        /* \"#utility.yul\":5689:5768   */\n      tag_163\n      tag_83\n      jump\t// in\n    tag_163:\n        /* \"#utility.yul\":5653:5770   */\n    tag_162:\n        /* \"#utility.yul\":5794:5857   */\n      tag_164\n        /* \"#utility.yul\":5849:5856   */\n      dup5\n        /* \"#utility.yul\":5840:5846   */\n      dup3\n        /* \"#utility.yul\":5829:5838   */\n      dup6\n        /* \"#utility.yul\":5825:5847   */\n      add\n        /* \"#utility.yul\":5794:5857   */\n      tag_93\n      jump\t// in\n    tag_164:\n        /* \"#utility.yul\":5784:5857   */\n      swap2\n      pop\n        /* \"#utility.yul\":5580:5867   */\n      pop\n        /* \"#utility.yul\":5365:5874   */\n      swap3\n      swap2\n      pop\n      pop\n      jump\t// out\n        /* \"#utility.yul\":5880:6006   */\n    tag_94:\n        /* \"#utility.yul\":5917:5924   */\n      0x00\n        /* \"#utility.yul\":5957:5999   */\n      0xffffffffffffffffffffffffffffffffffffffff\n        /* \"#utility.yul\":5950:5955   */\n      dup3\n        /* \"#utility.yul\":5946:6000   */\n      and\n        /* \"#utility.yul\":5935:6000   */\n      swap1\n      pop\n        /* \"#utility.yul\":5880:6006   */\n      swap2\n      swap1\n      pop\n      jump\t// out\n        /* \"#utility.yul\":6012:6108   */\n    tag_95:\n        /* \"#utility.yul\":6049:6056   */\n      0x00\n        /* \"#utility.yul\":6078:6102   */\n      tag_167\n        /* \"#utility.yul\":6096:6101   */\n      dup3\n        /* \"#utility.yul\":6078:6102   */\n      tag_94\n      jump\t// in\n    tag_167:\n        /* \"#utility.yul\":6067:6102   */\n      swap1\n      pop\n        /* \"#utility.yul\":6012:6108   */\n      swap2\n      swap1\n      pop\n      jump\t// out\n        /* \"#utility.yul\":6114:6232   */\n    tag_96:\n        /* \"#utility.yul\":6201:6225   */\n      tag_169\n        /* \"#utility.yul\":6219:6224   */\n      dup2\n        /* \"#utility.yul\":6201:6225   */\n      tag_95\n      jump\t// in\n    tag_169:\n        /* \"#utility.yul\":6196:6199   */\n      dup3\n        /* \"#utility.yul\":6189:6226   */\n      mstore\n        /* \"#utility.yul\":6114:6232   */\n      pop\n      pop\n      jump\t// out\n        /* \"#utility.yul\":6238:6460   */\n    tag_56:\n        /* \"#utility.yul\":6331:6335   */\n      0x00\n        /* \"#utility.yul\":6369:6371   */\n      0x20\n        /* \"#utility.yul\":6358:6367   */\n      dup3\n        /* \"#utility.yul\":6354:6372   */\n      add\n        /* \"#utility.yul\":6346:6372   */\n      swap1\n      pop\n        /* \"#utility.yul\":6382:6453   */\n      tag_171\n        /* \"#utility.yul\":6450:6451   */\n      0x00\n        /* \"#utility.yul\":6439:6448   */\n      dup4\n        /* \"#utility.yul\":6435:6452   */\n      add\n        /* \"#utility.yul\":6426:6432   */\n      dup5\n        /* \"#utility.yul\":6382:6453   */\n      tag_96\n      jump\t// in\n    tag_171:\n        /* \"#utility.yul\":6238:6460   */\n      swap3\n      swap2\n      pop\n      pop\n      jump\t// out\n        /* \"#utility.yul\":6466:6633   */\n    tag_97:\n        /* \"#utility.yul\":6606:6625   */\n      0x796f7520617265206e6f7420506574726f000000000000000000000000000000\n        /* \"#utility.yul\":6602:6603   */\n      0x00\n        /* \"#utility.yul\":6594:6600   */\n      dup3\n        /* \"#utility.yul\":6590:6604   */\n      add\n        /* \"#utility.yul\":6583:6626   */\n      mstore\n        /* \"#utility.yul\":6466:6633   */\n      pop\n      jump\t// out\n        /* \"#utility.yul\":6639:7005   */\n    tag_98:\n        /* \"#utility.yul\":6781:6784   */\n      0x00\n        /* \"#utility.yul\":6802:6869   */\n      tag_174\n        /* \"#utility.yul\":6866:6868   */\n      0x11\n        /* \"#utility.yul\":6861:6864   */\n      dup4\n        /* \"#utility.yul\":6802:6869   */\n      tag_71\n      jump\t// in\n    tag_174:\n        /* \"#utility.yul\":6795:6869   */\n      swap2\n      pop\n        /* \"#utility.yul\":6878:6971   */\n      tag_175\n        /* \"#utility.yul\":6967:6970   */\n      dup3\n        /* \"#utility.yul\":6878:6971   */\n      tag_97\n      jump\t// in\n    tag_175:\n        /* \"#utility.yul\":6996:6998   */\n      0x20\n        /* \"#utility.yul\":6991:6994   */\n      dup3\n        /* \"#utility.yul\":6987:6999   */\n      add\n        /* \"#utility.yul\":6980:6999   */\n      swap1\n      pop\n        /* \"#utility.yul\":6639:7005   */\n      swap2\n      swap1\n      pop\n      jump\t// out\n        /* \"#utility.yul\":7011:7430   */\n    tag_64:\n        /* \"#utility.yul\":7177:7181   */\n      0x00\n        /* \"#utility.yul\":7215:7217   */\n      0x20\n        /* \"#utility.yul\":7204:7213   */\n      dup3\n        /* \"#utility.yul\":7200:7218   */\n      add\n        /* \"#utility.yul\":7192:7218   */\n      swap1\n      pop\n        /* \"#utility.yul\":7264:7273   */\n      dup2\n        /* \"#utility.yul\":7258:7262   */\n      dup2\n        /* \"#utility.yul\":7254:7274   */\n      sub\n        /* \"#utility.yul\":7250:7251   */\n      0x00\n        /* \"#utility.yul\":7239:7248   */\n      dup4\n        /* \"#utility.yul\":7235:7252   */\n      add\n        /* \"#utility.yul\":7228:7275   */\n      mstore\n        /* \"#utility.yul\":7292:7423   */\n      tag_177\n        /* \"#utility.yul\":7418:7422   */\n      dup2\n        /* \"#utility.yul\":7292:7423   */\n      tag_98\n      jump\t// in\n    tag_177:\n        /* \"#utility.yul\":7284:7423   */\n      swap1\n      pop\n        /* \"#utility.yul\":7011:7430   */\n      swap2\n      swap1\n      pop\n      jump\t// out\n        /* \"#utility.yul\":7436:7604   */\n    tag_99:\n        /* \"#utility.yul\":7576:7596   */\n      0x796f7520617265206e6f7420446d7974726f0000000000000000000000000000\n        /* \"#utility.yul\":7572:7573   */\n      0x00\n        /* \"#utility.yul\":7564:7570   */\n      dup3\n        /* \"#utility.yul\":7560:7574   */\n      add\n        /* \"#utility.yul\":7553:7597   */\n      mstore\n        /* \"#utility.yul\":7436:7604   */\n      pop\n      jump\t// out\n        /* \"#utility.yul\":7610:7976   */\n    tag_100:\n        /* \"#utility.yul\":7752:7755   */\n      0x00\n        /* \"#utility.yul\":7773:7840   */\n      tag_180\n        /* \"#utility.yul\":7837:7839   */\n      0x12\n        /* \"#utility.yul\":7832:7835   */\n      dup4\n        /* \"#utility.yul\":7773:7840   */\n      tag_71\n      jump\t// in\n    tag_180:\n        /* \"#utility.yul\":7766:7840   */\n      swap2\n      pop\n        /* \"#utility.yul\":7849:7942   */\n      tag_181\n        /* \"#utility.yul\":7938:7941   */\n      dup3\n        /* \"#utility.yul\":7849:7942   */\n      tag_99\n      jump\t// in\n    tag_181:\n        /* \"#utility.yul\":7967:7969   */\n      0x20\n        /* \"#utility.yul\":7962:7965   */\n      dup3\n        /* \"#utility.yul\":7958:7970   */\n      add\n        /* \"#utility.yul\":7951:7970   */\n      swap1\n      pop\n        /* \"#utility.yul\":7610:7976   */\n      swap2\n      swap1\n      pop\n      jump\t// out\n        /* \"#utility.yul\":7982:8401   */\n    tag_69:\n        /* \"#utility.yul\":8148:8152   */\n      0x00\n        /* \"#utility.yul\":8186:8188   */\n      0x20\n        /* \"#utility.yul\":8175:8184   */\n      dup3\n        /* \"#utility.yul\":8171:8189   */\n      add\n        /* \"#utility.yul\":8163:8189   */\n      swap1\n      pop\n        /* \"#utility.yul\":8235:8244   */\n      dup2\n        /* \"#utility.yul\":8229:8233   */\n      dup2\n        /* \"#utility.yul\":8225:8245   */\n      sub\n        /* \"#utility.yul\":8221:8222   */\n      0x00\n        /* \"#utility.yul\":8210:8219   */\n      dup4\n        /* \"#utility.yul\":8206:8223   */\n      add\n        /* \"#utility.yul\":8199:8246   */\n      mstore\n        /* \"#utility.yul\":8263:8394   */\n      tag_183\n        /* \"#utility.yul\":8389:8393   */\n      dup2\n        /* \"#utility.yul\":8263:8394   */\n      tag_100\n      jump\t// in\n    tag_183:\n        /* \"#utility.yul\":8255:8394   */\n      swap1\n      pop\n        /* \"#utility.yul\":7982:8401   */\n      swap2\n      swap1\n      pop\n      jump\t// out\n\n    auxdata: 0xa2646970667358221220adad7da768c35b4783668d401cf4d70ec0417c8593c98324f9bb66c563f10b5d64736f6c63430008110033\n}\n",
				"bytecode": {
					"linkReferences": {},
					"object": "60806040526706f05b59d3b200006000556201518060015534801561002357600080fd5b50604051610a6d380380610a6d83398181016040528101906100459190610141565b33600460006101000a81548173ffffffffffffffffffffffffffffffffffffffff021916908373ffffffffffffffffffffffffffffffffffffffff1602179055506000600660006101000a81548160ff0219169083151502179055505050610181565b600080fd5b600073ffffffffffffffffffffffffffffffffffffffff82169050919050565b60006100d8826100ad565b9050919050565b6100e8816100cd565b81146100f357600080fd5b50565b600081519050610105816100df565b92915050565b6000819050919050565b61011e8161010b565b811461012957600080fd5b50565b60008151905061013b81610115565b92915050565b60008060408385031215610158576101576100a8565b5b6000610166858286016100f6565b92505060206101778582860161012c565b9150509250929050565b6108dd806101906000396000f3fe60806040526004361061008a5760003560e01c8063590e1ae311610059578063590e1ae3146101bd5780635b889ab8146101d45780638bfafd8b146101ff578063ae4af2171461022a578063da1d55e1146102555761010e565b806309bd5a60146101135780630d6680871461013e578063200d2ed21461016957806331fb67c2146101945761010e565b3661010e57600660009054906101000a900460ff166100de576040517f08c379a00000000000000000000000000000000000000000000000000000000081526004016100d5906104af565b60405180910390fd5b600154426100ec9190610508565b6005819055506001600660006101000a81548160ff0219169083151502179055005b600080fd5b34801561011f57600080fd5b50610128610280565b6040516101359190610555565b60405180910390f35b34801561014a57600080fd5b50610153610286565b604051610160919061057f565b60405180910390f35b34801561017557600080fd5b5061017e61028c565b60405161018b91906105b5565b60405180910390f35b3480156101a057600080fd5b506101bb60048036038101906101b6919061072a565b61029f565b005b3480156101c957600080fd5b506101d261034d565b005b3480156101e057600080fd5b506101e96103fa565b6040516101f6919061057f565b60405180910390f35b34801561020b57600080fd5b50610214610400565b604051610221919061057f565b60405180910390f35b34801561023657600080fd5b5061023f610406565b60405161024c91906107b4565b60405180910390f35b34801561026157600080fd5b5061026a61042c565b60405161027791906107b4565b60405180910390f35b60025481565b60015481565b600660009054906101000a900460ff1681565b600360009054906101000a900473ffffffffffffffffffffffffffffffffffffffff1673ffffffffffffffffffffffffffffffffffffffff163373ffffffffffffffffffffffffffffffffffffffff161461032f576040517f08c379a00000000000000000000000000000000000000000000000000000000081526004016103269061081b565b60405180910390fd5b6001600660006101000a81548160ff02191690831515021790555050565b600460009054906101000a900473ffffffffffffffffffffffffffffffffffffffff1673ffffffffffffffffffffffffffffffffffffffff163373ffffffffffffffffffffffffffffffffffffffff16146103dd576040517f08c379a00000000000000000000000000000000000000000000000000000000081526004016103d490610887565b60405180910390fd5b6001600660006101000a81548160ff021916908315150217905550565b60005481565b60055481565b600460009054906101000a900473ffffffffffffffffffffffffffffffffffffffff1681565b600360009054906101000a900473ffffffffffffffffffffffffffffffffffffffff1681565b600082825260208201905092915050565b7f6e6f2d6e6f000000000000000000000000000000000000000000000000000000600082015250565b6000610499600583610452565b91506104a482610463565b602082019050919050565b600060208201905081810360008301526104c88161048c565b9050919050565b6000819050919050565b7f4e487b7100000000000000000000000000000000000000000000000000000000600052601160045260246000fd5b6000610513826104cf565b915061051e836104cf565b9250828201905080821115610536576105356104d9565b5b92915050565b6000819050919050565b61054f8161053c565b82525050565b600060208201905061056a6000830184610546565b92915050565b610579816104cf565b82525050565b60006020820190506105946000830184610570565b92915050565b60008115159050919050565b6105af8161059a565b82525050565b60006020820190506105ca60008301846105a6565b92915050565b6000604051905090565b600080fd5b600080fd5b600080fd5b600080fd5b6000601f19601f8301169050919050565b7f4e487b7100000000000000000000000000000000000000000000000000000000600052604160045260246000fd5b610637826105ee565b810181811067ffffffffffffffff82111715610656576106556105ff565b5b80604052505050565b60006106696105d0565b9050610675828261062e565b919050565b600067ffffffffffffffff821115610695576106946105ff565b5b61069e826105ee565b9050602081019050919050565b82818337600083830152505050565b60006106cd6106c88461067a565b61065f565b9050828152602081018484840111156106e9576106e86105e9565b5b6106f48482856106ab565b509392505050565b600082601f830112610711576107106105e4565b5b81356107218482602086016106ba565b91505092915050565b6000602082840312156107405761073f6105da565b5b600082013567ffffffffffffffff81111561075e5761075d6105df565b5b61076a848285016106fc565b91505092915050565b600073ffffffffffffffffffffffffffffffffffffffff82169050919050565b600061079e82610773565b9050919050565b6107ae81610793565b82525050565b60006020820190506107c960008301846107a5565b92915050565b7f796f7520617265206e6f7420506574726f000000000000000000000000000000600082015250565b6000610805601183610452565b9150610810826107cf565b602082019050919050565b60006020820190508181036000830152610834816107f8565b9050919050565b7f796f7520617265206e6f7420446d7974726f0000000000000000000000000000600082015250565b6000610871601283610452565b915061087c8261083b565b602082019050919050565b600060208201905081810360008301526108a081610864565b905091905056fea2646970667358221220adad7da768c35b4783668d401cf4d70ec0417c8593c98324f9bb66c563f10b5d64736f6c63430008110033",
					"opcodes": "PUSH1 0x80 PUSH1 0x40 MSTORE PUSH8 0x6F05B59D3B20000 PUSH1 0x0 SSTORE PUSH3 0x15180 PUSH1 0x1 SSTORE CALLVALUE DUP1 ISZERO PUSH2 0x23 JUMPI PUSH1 0x0 DUP1 REVERT JUMPDEST POP PUSH1 0x40 MLOAD PUSH2 0xA6D CODESIZE SUB DUP1 PUSH2 0xA6D DUP4 CODECOPY DUP2 DUP2 ADD PUSH1 0x40 MSTORE DUP2 ADD SWAP1 PUSH2 0x45 SWAP2 SWAP1 PUSH2 0x141 JUMP JUMPDEST CALLER PUSH1 0x4 PUSH1 0x0 PUSH2 0x100 EXP DUP2 SLOAD DUP2 PUSH20 0xFFFFFFFFFFFFFFFFFFFFFFFFFFFFFFFFFFFFFFFF MUL NOT AND SWAP1 DUP4 PUSH20 0xFFFFFFFFFFFFFFFFFFFFFFFFFFFFFFFFFFFFFFFF AND MUL OR SWAP1 SSTORE POP PUSH1 0x0 PUSH1 0x6 PUSH1 0x0 PUSH2 0x100 EXP DUP2 SLOAD DUP2 PUSH1 0xFF MUL NOT AND SWAP1 DUP4 ISZERO ISZERO MUL OR SWAP1 SSTORE POP POP POP PUSH2 0x181 JUMP JUMPDEST PUSH1 0x0 DUP1 REVERT JUMPDEST PUSH1 0x0 PUSH20 0xFFFFFFFFFFFFFFFFFFFFFFFFFFFFFFFFFFFFFFFF DUP3 AND SWAP1 POP SWAP2 SWAP1 POP JUMP JUMPDEST PUSH1 0x0 PUSH2 0xD8 DUP3 PUSH2 0xAD JUMP JUMPDEST SWAP1 POP SWAP2 SWAP1 POP JUMP JUMPDEST PUSH2 0xE8 DUP2 PUSH2 0xCD JUMP JUMPDEST DUP2 EQ PUSH2 0xF3 JUMPI PUSH1 0x0 DUP1 REVERT JUMPDEST POP JUMP JUMPDEST PUSH1 0x0 DUP2 MLOAD SWAP1 POP PUSH2 0x105 DUP2 PUSH2 0xDF JUMP JUMPDEST SWAP3 SWAP2 POP POP JUMP JUMPDEST PUSH1 0x0 DUP2 SWAP1 POP SWAP2 SWAP1 POP JUMP JUMPDEST PUSH2 0x11E DUP2 PUSH2 0x10B JUMP JUMPDEST DUP2 EQ PUSH2 0x129 JUMPI PUSH1 0x0 DUP1 REVERT JUMPDEST POP JUMP JUMPDEST PUSH1 0x0 DUP2 MLOAD SWAP1 POP PUSH2 0x13B DUP2 PUSH2 0x115 JUMP JUMPDEST SWAP3 SWAP2 POP POP JUMP JUMPDEST PUSH1 0x0 DUP1 PUSH1 0x40 DUP4 DUP6 SUB SLT ISZERO PUSH2 0x158 JUMPI PUSH2 0x157 PUSH2 0xA8 JUMP JUMPDEST JUMPDEST PUSH1 0x0 PUSH2 0x166 DUP6 DUP3 DUP7 ADD PUSH2 0xF6 JUMP JUMPDEST SWAP3 POP POP PUSH1 0x20 PUSH2 0x177 DUP6 DUP3 DUP7 ADD PUSH2 0x12C JUMP JUMPDEST SWAP2 POP POP SWAP3 POP SWAP3 SWAP1 POP JUMP JUMPDEST PUSH2 0x8DD DUP1 PUSH2 0x190 PUSH1 0x0 CODECOPY PUSH1 0x0 RETURN INVALID PUSH1 0x80 PUSH1 0x40 MSTORE PUSH1 0x4 CALLDATASIZE LT PUSH2 0x8A JUMPI PUSH1 0x0 CALLDATALOAD PUSH1 0xE0 SHR DUP1 PUSH4 0x590E1AE3 GT PUSH2 0x59 JUMPI DUP1 PUSH4 0x590E1AE3 EQ PUSH2 0x1BD JUMPI DUP1 PUSH4 0x5B889AB8 EQ PUSH2 0x1D4 JUMPI DUP1 PUSH4 0x8BFAFD8B EQ PUSH2 0x1FF JUMPI DUP1 PUSH4 0xAE4AF217 EQ PUSH2 0x22A JUMPI DUP1 PUSH4 0xDA1D55E1 EQ PUSH2 0x255 JUMPI PUSH2 0x10E JUMP JUMPDEST DUP1 PUSH4 0x9BD5A60 EQ PUSH2 0x113 JUMPI DUP1 PUSH4 0xD668087 EQ PUSH2 0x13E JUMPI DUP1 PUSH4 0x200D2ED2 EQ PUSH2 0x169 JUMPI DUP1 PUSH4 0x31FB67C2 EQ PUSH2 0x194 JUMPI PUSH2 0x10E JUMP JUMPDEST CALLDATASIZE PUSH2 0x10E JUMPI PUSH1 0x6 PUSH1 0x0 SWAP1 SLOAD SWAP1 PUSH2 0x100 EXP SWAP1 DIV PUSH1 0xFF AND PUSH2 0xDE JUMPI PUSH1 0x40 MLOAD PUSH32 0x8C379A000000000000000000000000000000000000000000000000000000000 DUP2 MSTORE PUSH1 0x4 ADD PUSH2 0xD5 SWAP1 PUSH2 0x4AF JUMP JUMPDEST PUSH1 0x40 MLOAD DUP1 SWAP2 SUB SWAP1 REVERT JUMPDEST PUSH1 0x1 SLOAD TIMESTAMP PUSH2 0xEC SWAP2 SWAP1 PUSH2 0x508 JUMP JUMPDEST PUSH1 0x5 DUP2 SWAP1 SSTORE POP PUSH1 0x1 PUSH1 0x6 PUSH1 0x0 PUSH2 0x100 EXP DUP2 SLOAD DUP2 PUSH1 0xFF MUL NOT AND SWAP1 DUP4 ISZERO ISZERO MUL OR SWAP1 SSTORE STOP JUMPDEST PUSH1 0x0 DUP1 REVERT JUMPDEST CALLVALUE DUP1 ISZERO PUSH2 0x11F JUMPI PUSH1 0x0 DUP1 REVERT JUMPDEST POP PUSH2 0x128 PUSH2 0x280 JUMP JUMPDEST PUSH1 0x40 MLOAD PUSH2 0x135 SWAP2 SWAP1 PUSH2 0x555 JUMP JUMPDEST PUSH1 0x40 MLOAD DUP1 SWAP2 SUB SWAP1 RETURN JUMPDEST CALLVALUE DUP1 ISZERO PUSH2 0x14A JUMPI PUSH1 0x0 DUP1 REVERT JUMPDEST POP PUSH2 0x153 PUSH2 0x286 JUMP JUMPDEST PUSH1 0x40 MLOAD PUSH2 0x160 SWAP2 SWAP1 PUSH2 0x57F JUMP JUMPDEST PUSH1 0x40 MLOAD DUP1 SWAP2 SUB SWAP1 RETURN JUMPDEST CALLVALUE DUP1 ISZERO PUSH2 0x175 JUMPI PUSH1 0x0 DUP1 REVERT JUMPDEST POP PUSH2 0x17E PUSH2 0x28C JUMP JUMPDEST PUSH1 0x40 MLOAD PUSH2 0x18B SWAP2 SWAP1 PUSH2 0x5B5 JUMP JUMPDEST PUSH1 0x40 MLOAD DUP1 SWAP2 SUB SWAP1 RETURN JUMPDEST CALLVALUE DUP1 ISZERO PUSH2 0x1A0 JUMPI PUSH1 0x0 DUP1 REVERT JUMPDEST POP PUSH2 0x1BB PUSH1 0x4 DUP1 CALLDATASIZE SUB DUP2 ADD SWAP1 PUSH2 0x1B6 SWAP2 SWAP1 PUSH2 0x72A JUMP JUMPDEST PUSH2 0x29F JUMP JUMPDEST STOP JUMPDEST CALLVALUE DUP1 ISZERO PUSH2 0x1C9 JUMPI PUSH1 0x0 DUP1 REVERT JUMPDEST POP PUSH2 0x1D2 PUSH2 0x34D JUMP JUMPDEST STOP JUMPDEST CALLVALUE DUP1 ISZERO PUSH2 0x1E0 JUMPI PUSH1 0x0 DUP1 REVERT JUMPDEST POP PUSH2 0x1E9 PUSH2 0x3FA JUMP JUMPDEST PUSH1 0x40 MLOAD PUSH2 0x1F6 SWAP2 SWAP1 PUSH2 0x57F JUMP JUMPDEST PUSH1 0x40 MLOAD DUP1 SWAP2 SUB SWAP1 RETURN JUMPDEST CALLVALUE DUP1 ISZERO PUSH2 0x20B JUMPI PUSH1 0x0 DUP1 REVERT JUMPDEST POP PUSH2 0x214 PUSH2 0x400 JUMP JUMPDEST PUSH1 0x40 MLOAD PUSH2 0x221 SWAP2 SWAP1 PUSH2 0x57F JUMP JUMPDEST PUSH1 0x40 MLOAD DUP1 SWAP2 SUB SWAP1 RETURN JUMPDEST CALLVALUE DUP1 ISZERO PUSH2 0x236 JUMPI PUSH1 0x0 DUP1 REVERT JUMPDEST POP PUSH2 0x23F PUSH2 0x406 JUMP JUMPDEST PUSH1 0x40 MLOAD PUSH2 0x24C SWAP2 SWAP1 PUSH2 0x7B4 JUMP JUMPDEST PUSH1 0x40 MLOAD DUP1 SWAP2 SUB SWAP1 RETURN JUMPDEST CALLVALUE DUP1 ISZERO PUSH2 0x261 JUMPI PUSH1 0x0 DUP1 REVERT JUMPDEST POP PUSH2 0x26A PUSH2 0x42C JUMP JUMPDEST PUSH1 0x40 MLOAD PUSH2 0x277 SWAP2 SWAP1 PUSH2 0x7B4 JUMP JUMPDEST PUSH1 0x40 MLOAD DUP1 SWAP2 SUB SWAP1 RETURN JUMPDEST PUSH1 0x2 SLOAD DUP2 JUMP JUMPDEST PUSH1 0x1 SLOAD DUP2 JUMP JUMPDEST PUSH1 0x6 PUSH1 0x0 SWAP1 SLOAD SWAP1 PUSH2 0x100 EXP SWAP1 DIV PUSH1 0xFF AND DUP2 JUMP JUMPDEST PUSH1 0x3 PUSH1 0x0 SWAP1 SLOAD SWAP1 PUSH2 0x100 EXP SWAP1 DIV PUSH20 0xFFFFFFFFFFFFFFFFFFFFFFFFFFFFFFFFFFFFFFFF AND PUSH20 0xFFFFFFFFFFFFFFFFFFFFFFFFFFFFFFFFFFFFFFFF AND CALLER PUSH20 0xFFFFFFFFFFFFFFFFFFFFFFFFFFFFFFFFFFFFFFFF AND EQ PUSH2 0x32F JUMPI PUSH1 0x40 MLOAD PUSH32 0x8C379A000000000000000000000000000000000000000000000000000000000 DUP2 MSTORE PUSH1 0x4 ADD PUSH2 0x326 SWAP1 PUSH2 0x81B JUMP JUMPDEST PUSH1 0x40 MLOAD DUP1 SWAP2 SUB SWAP1 REVERT JUMPDEST PUSH1 0x1 PUSH1 0x6 PUSH1 0x0 PUSH2 0x100 EXP DUP2 SLOAD DUP2 PUSH1 0xFF MUL NOT AND SWAP1 DUP4 ISZERO ISZERO MUL OR SWAP1 SSTORE POP POP JUMP JUMPDEST PUSH1 0x4 PUSH1 0x0 SWAP1 SLOAD SWAP1 PUSH2 0x100 EXP SWAP1 DIV PUSH20 0xFFFFFFFFFFFFFFFFFFFFFFFFFFFFFFFFFFFFFFFF AND PUSH20 0xFFFFFFFFFFFFFFFFFFFFFFFFFFFFFFFFFFFFFFFF AND CALLER PUSH20 0xFFFFFFFFFFFFFFFFFFFFFFFFFFFFFFFFFFFFFFFF AND EQ PUSH2 0x3DD JUMPI PUSH1 0x40 MLOAD PUSH32 0x8C379A000000000000000000000000000000000000000000000000000000000 DUP2 MSTORE PUSH1 0x4 ADD PUSH2 0x3D4 SWAP1 PUSH2 0x887 JUMP JUMPDEST PUSH1 0x40 MLOAD DUP1 SWAP2 SUB SWAP1 REVERT JUMPDEST PUSH1 0x1 PUSH1 0x6 PUSH1 0x0 PUSH2 0x100 EXP DUP2 SLOAD DUP2 PUSH1 0xFF MUL NOT AND SWAP1 DUP4 ISZERO ISZERO MUL OR SWAP1 SSTORE POP JUMP JUMPDEST PUSH1 0x0 SLOAD DUP2 JUMP JUMPDEST PUSH1 0x5 SLOAD DUP2 JUMP JUMPDEST PUSH1 0x4 PUSH1 0x0 SWAP1 SLOAD SWAP1 PUSH2 0x100 EXP SWAP1 DIV PUSH20 0xFFFFFFFFFFFFFFFFFFFFFFFFFFFFFFFFFFFFFFFF AND DUP2 JUMP JUMPDEST PUSH1 0x3 PUSH1 0x0 SWAP1 SLOAD SWAP1 PUSH2 0x100 EXP SWAP1 DIV PUSH20 0xFFFFFFFFFFFFFFFFFFFFFFFFFFFFFFFFFFFFFFFF AND DUP2 JUMP JUMPDEST PUSH1 0x0 DUP3 DUP3 MSTORE PUSH1 0x20 DUP3 ADD SWAP1 POP SWAP3 SWAP2 POP POP JUMP JUMPDEST PUSH32 0x6E6F2D6E6F000000000000000000000000000000000000000000000000000000 PUSH1 0x0 DUP3 ADD MSTORE POP JUMP JUMPDEST PUSH1 0x0 PUSH2 0x499 PUSH1 0x5 DUP4 PUSH2 0x452 JUMP JUMPDEST SWAP2 POP PUSH2 0x4A4 DUP3 PUSH2 0x463 JUMP JUMPDEST PUSH1 0x20 DUP3 ADD SWAP1 POP SWAP2 SWAP1 POP JUMP JUMPDEST PUSH1 0x0 PUSH1 0x20 DUP3 ADD SWAP1 POP DUP2 DUP2 SUB PUSH1 0x0 DUP4 ADD MSTORE PUSH2 0x4C8 DUP2 PUSH2 0x48C JUMP JUMPDEST SWAP1 POP SWAP2 SWAP1 POP JUMP JUMPDEST PUSH1 0x0 DUP2 SWAP1 POP SWAP2 SWAP1 POP JUMP JUMPDEST PUSH32 0x4E487B7100000000000000000000000000000000000000000000000000000000 PUSH1 0x0 MSTORE PUSH1 0x11 PUSH1 0x4 MSTORE PUSH1 0x24 PUSH1 0x0 REVERT JUMPDEST PUSH1 0x0 PUSH2 0x513 DUP3 PUSH2 0x4CF JUMP JUMPDEST SWAP2 POP PUSH2 0x51E DUP4 PUSH2 0x4CF JUMP JUMPDEST SWAP3 POP DUP3 DUP3 ADD SWAP1 POP DUP1 DUP3 GT ISZERO PUSH2 0x536 JUMPI PUSH2 0x535 PUSH2 0x4D9 JUMP JUMPDEST JUMPDEST SWAP3 SWAP2 POP POP JUMP JUMPDEST PUSH1 0x0 DUP2 SWAP1 POP SWAP2 SWAP1 POP JUMP JUMPDEST PUSH2 0x54F DUP2 PUSH2 0x53C JUMP JUMPDEST DUP3 MSTORE POP POP JUMP JUMPDEST PUSH1 0x0 PUSH1 0x20 DUP3 ADD SWAP1 POP PUSH2 0x56A PUSH1 0x0 DUP4 ADD DUP5 PUSH2 0x546 JUMP JUMPDEST SWAP3 SWAP2 POP POP JUMP JUMPDEST PUSH2 0x579 DUP2 PUSH2 0x4CF JUMP JUMPDEST DUP3 MSTORE POP POP JUMP JUMPDEST PUSH1 0x0 PUSH1 0x20 DUP3 ADD SWAP1 POP PUSH2 0x594 PUSH1 0x0 DUP4 ADD DUP5 PUSH2 0x570 JUMP JUMPDEST SWAP3 SWAP2 POP POP JUMP JUMPDEST PUSH1 0x0 DUP2 ISZERO ISZERO SWAP1 POP SWAP2 SWAP1 POP JUMP JUMPDEST PUSH2 0x5AF DUP2 PUSH2 0x59A JUMP JUMPDEST DUP3 MSTORE POP POP JUMP JUMPDEST PUSH1 0x0 PUSH1 0x20 DUP3 ADD SWAP1 POP PUSH2 0x5CA PUSH1 0x0 DUP4 ADD DUP5 PUSH2 0x5A6 JUMP JUMPDEST SWAP3 SWAP2 POP POP JUMP JUMPDEST PUSH1 0x0 PUSH1 0x40 MLOAD SWAP1 POP SWAP1 JUMP JUMPDEST PUSH1 0x0 DUP1 REVERT JUMPDEST PUSH1 0x0 DUP1 REVERT JUMPDEST PUSH1 0x0 DUP1 REVERT JUMPDEST PUSH1 0x0 DUP1 REVERT JUMPDEST PUSH1 0x0 PUSH1 0x1F NOT PUSH1 0x1F DUP4 ADD AND SWAP1 POP SWAP2 SWAP1 POP JUMP JUMPDEST PUSH32 0x4E487B7100000000000000000000000000000000000000000000000000000000 PUSH1 0x0 MSTORE PUSH1 0x41 PUSH1 0x4 MSTORE PUSH1 0x24 PUSH1 0x0 REVERT JUMPDEST PUSH2 0x637 DUP3 PUSH2 0x5EE JUMP JUMPDEST DUP2 ADD DUP2 DUP2 LT PUSH8 0xFFFFFFFFFFFFFFFF DUP3 GT OR ISZERO PUSH2 0x656 JUMPI PUSH2 0x655 PUSH2 0x5FF JUMP JUMPDEST JUMPDEST DUP1 PUSH1 0x40 MSTORE POP POP POP JUMP JUMPDEST PUSH1 0x0 PUSH2 0x669 PUSH2 0x5D0 JUMP JUMPDEST SWAP1 POP PUSH2 0x675 DUP3 DUP3 PUSH2 0x62E JUMP JUMPDEST SWAP2 SWAP1 POP JUMP JUMPDEST PUSH1 0x0 PUSH8 0xFFFFFFFFFFFFFFFF DUP3 GT ISZERO PUSH2 0x695 JUMPI PUSH2 0x694 PUSH2 0x5FF JUMP JUMPDEST JUMPDEST PUSH2 0x69E DUP3 PUSH2 0x5EE JUMP JUMPDEST SWAP1 POP PUSH1 0x20 DUP2 ADD SWAP1 POP SWAP2 SWAP1 POP JUMP JUMPDEST DUP3 DUP2 DUP4 CALLDATACOPY PUSH1 0x0 DUP4 DUP4 ADD MSTORE POP POP POP JUMP JUMPDEST PUSH1 0x0 PUSH2 0x6CD PUSH2 0x6C8 DUP5 PUSH2 0x67A JUMP JUMPDEST PUSH2 0x65F JUMP JUMPDEST SWAP1 POP DUP3 DUP2 MSTORE PUSH1 0x20 DUP2 ADD DUP5 DUP5 DUP5 ADD GT ISZERO PUSH2 0x6E9 JUMPI PUSH2 0x6E8 PUSH2 0x5E9 JUMP JUMPDEST JUMPDEST PUSH2 0x6F4 DUP5 DUP3 DUP6 PUSH2 0x6AB JUMP JUMPDEST POP SWAP4 SWAP3 POP POP POP JUMP JUMPDEST PUSH1 0x0 DUP3 PUSH1 0x1F DUP4 ADD SLT PUSH2 0x711 JUMPI PUSH2 0x710 PUSH2 0x5E4 JUMP JUMPDEST JUMPDEST DUP2 CALLDATALOAD PUSH2 0x721 DUP5 DUP3 PUSH1 0x20 DUP7 ADD PUSH2 0x6BA JUMP JUMPDEST SWAP2 POP POP SWAP3 SWAP2 POP POP JUMP JUMPDEST PUSH1 0x0 PUSH1 0x20 DUP3 DUP5 SUB SLT ISZERO PUSH2 0x740 JUMPI PUSH2 0x73F PUSH2 0x5DA JUMP JUMPDEST JUMPDEST PUSH1 0x0 DUP3 ADD CALLDATALOAD PUSH8 0xFFFFFFFFFFFFFFFF DUP2 GT ISZERO PUSH2 0x75E JUMPI PUSH2 0x75D PUSH2 0x5DF JUMP JUMPDEST JUMPDEST PUSH2 0x76A DUP5 DUP3 DUP6 ADD PUSH2 0x6FC JUMP JUMPDEST SWAP2 POP POP SWAP3 SWAP2 POP POP JUMP JUMPDEST PUSH1 0x0 PUSH20 0xFFFFFFFFFFFFFFFFFFFFFFFFFFFFFFFFFFFFFFFF DUP3 AND SWAP1 POP SWAP2 SWAP1 POP JUMP JUMPDEST PUSH1 0x0 PUSH2 0x79E DUP3 PUSH2 0x773 JUMP JUMPDEST SWAP1 POP SWAP2 SWAP1 POP JUMP JUMPDEST PUSH2 0x7AE DUP2 PUSH2 0x793 JUMP JUMPDEST DUP3 MSTORE POP POP JUMP JUMPDEST PUSH1 0x0 PUSH1 0x20 DUP3 ADD SWAP1 POP PUSH2 0x7C9 PUSH1 0x0 DUP4 ADD DUP5 PUSH2 0x7A5 JUMP JUMPDEST SWAP3 SWAP2 POP POP JUMP JUMPDEST PUSH32 0x796F7520617265206E6F7420506574726F000000000000000000000000000000 PUSH1 0x0 DUP3 ADD MSTORE POP JUMP JUMPDEST PUSH1 0x0 PUSH2 0x805 PUSH1 0x11 DUP4 PUSH2 0x452 JUMP JUMPDEST SWAP2 POP PUSH2 0x810 DUP3 PUSH2 0x7CF JUMP JUMPDEST PUSH1 0x20 DUP3 ADD SWAP1 POP SWAP2 SWAP1 POP JUMP JUMPDEST PUSH1 0x0 PUSH1 0x20 DUP3 ADD SWAP1 POP DUP2 DUP2 SUB PUSH1 0x0 DUP4 ADD MSTORE PUSH2 0x834 DUP2 PUSH2 0x7F8 JUMP JUMPDEST SWAP1 POP SWAP2 SWAP1 POP JUMP JUMPDEST PUSH32 0x796F7520617265206E6F7420446D7974726F0000000000000000000000000000 PUSH1 0x0 DUP3 ADD MSTORE POP JUMP JUMPDEST PUSH1 0x0 PUSH2 0x871 PUSH1 0x12 DUP4 PUSH2 0x452 JUMP JUMPDEST SWAP2 POP PUSH2 0x87C DUP3 PUSH2 0x83B JUMP JUMPDEST PUSH1 0x20 DUP3 ADD SWAP1 POP SWAP2 SWAP1 POP JUMP JUMPDEST PUSH1 0x0 PUSH1 0x20 DUP3 ADD SWAP1 POP DUP2 DUP2 SUB PUSH1 0x0 DUP4 ADD MSTORE PUSH2 0x8A0 DUP2 PUSH2 0x864 JUMP JUMPDEST SWAP1 POP SWAP2 SWAP1 POP JUMP INVALID LOG2 PUSH5 0x6970667358 0x22 SLT KECCAK256 0xAD 0xAD PUSH30 0xA768C35B4783668D401CF4D70EC0417C8593C98324F9BB66C563F10B5D64 PUSH20 0x6F6C634300081100330000000000000000000000 "
				},
				"gasEstimates": {
					"creation": {
						"codeDepositCost": "453800",
						"executionCost": "infinite",
						"totalCost": "infinite"
					},
					"external": {
						"ammount()": "2451",
						"dmytroAddress()": "2580",
						"hash()": "2430",
						"lockTime()": "2452",
						"petroAddress()": "2602",
						"refund()": "26581",
						"status()": "2516",
						"timeTo()": "2473",
						"withdraw(string)": "infinite"
					}
				},
				"methodIdentifiers": {
					"ammount()": "5b889ab8",
					"dmytroAddress()": "ae4af217",
					"hash()": "09bd5a60",
					"lockTime()": "0d668087",
					"petroAddress()": "da1d55e1",
					"refund()": "590e1ae3",
					"status()": "200d2ed2",
					"timeTo()": "8bfafd8b",
					"withdraw(string)": "31fb67c2"
				}
			},
			"storageLayout": {
				"storage": [
					{
						"astId": 4,
						"contract": "Dmetro.sol:Dmytro",
						"label": "ammount",
						"offset": 0,
						"slot": "0",
						"type": "t_uint256"
					},
					{
						"astId": 7,
						"contract": "Dmetro.sol:Dmytro",
						"label": "lockTime",
						"offset": 0,
						"slot": "1",
						"type": "t_uint256"
					},
					{
						"astId": 9,
						"contract": "Dmetro.sol:Dmytro",
						"label": "hash",
						"offset": 0,
						"slot": "2",
						"type": "t_bytes32"
					},
					{
						"astId": 11,
						"contract": "Dmetro.sol:Dmytro",
						"label": "petroAddress",
						"offset": 0,
						"slot": "3",
						"type": "t_address"
					},
					{
						"astId": 13,
						"contract": "Dmetro.sol:Dmytro",
						"label": "dmytroAddress",
						"offset": 0,
						"slot": "4",
						"type": "t_address"
					},
					{
						"astId": 15,
						"contract": "Dmetro.sol:Dmytro",
						"label": "timeTo",
						"offset": 0,
						"slot": "5",
						"type": "t_uint256"
					},
					{
						"astId": 17,
						"contract": "Dmetro.sol:Dmytro",
						"label": "status",
						"offset": 0,
						"slot": "6",
						"type": "t_bool"
					}
				],
				"types": {
					"t_address": {
						"encoding": "inplace",
						"label": "address",
						"numberOfBytes": "20"
					},
					"t_bool": {
						"encoding": "inplace",
						"label": "bool",
						"numberOfBytes": "1"
					},
					"t_bytes32": {
						"encoding": "inplace",
						"label": "bytes32",
						"numberOfBytes": "32"
					},
					"t_uint256": {
						"encoding": "inplace",
						"label": "uint256",
						"numberOfBytes": "32"
					}
				}
			},
			"userdoc": {
				"kind": "user",
				"methods": {},
				"version": 1
			}
		}
	}
}