{
	"Proga/Solidity/AtomicSwap/contracts/Petro.sol": {
		"Petro": {
			"abi": [
				{
					"inputs": [
						{
							"internalType": "address",
							"name": "_dmytroAddress",
							"type": "address"
						},
						{
							"internalType": "bytes32",
							"name": "_hash",
							"type": "bytes32"
						}
					],
					"stateMutability": "nonpayable",
					"type": "constructor"
				},
				{
					"inputs": [],
					"name": "ammount",
					"outputs": [
						{
							"internalType": "uint256",
							"name": "",
							"type": "uint256"
						}
					],
					"stateMutability": "view",
					"type": "function"
				},
				{
					"inputs": [],
					"name": "dmytroAddress",
					"outputs": [
						{
							"internalType": "address",
							"name": "",
							"type": "address"
						}
					],
					"stateMutability": "view",
					"type": "function"
				},
				{
					"inputs": [],
					"name": "hash",
					"outputs": [
						{
							"internalType": "bytes32",
							"name": "",
							"type": "bytes32"
						}
					],
					"stateMutability": "view",
					"type": "function"
				},
				{
					"inputs": [],
					"name": "lockTime",
					"outputs": [
						{
							"internalType": "uint256",
							"name": "",
							"type": "uint256"
						}
					],
					"stateMutability": "view",
					"type": "function"
				},
				{
					"inputs": [],
					"name": "petroAddress",
					"outputs": [
						{
							"internalType": "address",
							"name": "",
							"type": "address"
						}
					],
					"stateMutability": "view",
					"type": "function"
				},
				{
					"inputs": [],
					"name": "refund",
					"outputs": [],
					"stateMutability": "nonpayable",
					"type": "function"
				},
				{
					"inputs": [],
					"name": "secret",
					"outputs": [
						{
							"internalType": "string",
							"name": "",
							"type": "string"
						}
					],
					"stateMutability": "view",
					"type": "function"
				},
				{
					"inputs": [],
					"name": "timeTo",
					"outputs": [
						{
							"internalType": "uint256",
							"name": "",
							"type": "uint256"
						}
					],
					"stateMutability": "view",
					"type": "function"
				},
				{
					"inputs": [
						{
							"internalType": "string",
							"name": "_secret",
							"type": "string"
						}
					],
					"name": "withdraw",
					"outputs": [],
					"stateMutability": "nonpayable",
					"type": "function"
				},
				{
					"stateMutability": "payable",
					"type": "receive"
				}
			],
			"devdoc": {
				"kind": "dev",
				"methods": {},
				"version": 1
			},
			"evm": {
				"assembly": "    /* \"Proga/Solidity/AtomicSwap/contracts/Petro.sol\":57:1389  contract Petro {... */\n  mstore(0x40, 0x80)\n    /* \"Proga/Solidity/AtomicSwap/contracts/Petro.sol\":102:109  1 ether */\n  0x0de0b6b3a7640000\n    /* \"Proga/Solidity/AtomicSwap/contracts/Petro.sol\":77:109  uint256 public ammount = 1 ether */\n  0x00\n  sstore\n    /* \"Proga/Solidity/AtomicSwap/contracts/Petro.sol\":138:143  43200 */\n  0xa8c0\n    /* \"Proga/Solidity/AtomicSwap/contracts/Petro.sol\":112:143  uint256 public lockTime = 43200 */\n  0x01\n  sstore\n    /* \"Proga/Solidity/AtomicSwap/contracts/Petro.sol\":409:567  constructor(address _dmytroAddress, bytes32 _hash) {... */\n  callvalue\n  dup1\n  iszero\n  tag_1\n  jumpi\n  0x00\n  dup1\n  revert\ntag_1:\n  pop\n  mload(0x40)\n  sub(codesize, bytecodeSize)\n  dup1\n  bytecodeSize\n  dup4\n  codecopy\n  dup2\n  dup2\n  add\n  0x40\n  mstore\n  dup2\n  add\n  swap1\n  tag_2\n  swap2\n  swap1\n  tag_3\n  jump\t// in\ntag_2:\n    /* \"Proga/Solidity/AtomicSwap/contracts/Petro.sol\":479:489  msg.sender */\n  caller\n    /* \"Proga/Solidity/AtomicSwap/contracts/Petro.sol\":464:476  petroAddress */\n  0x04\n  0x00\n    /* \"Proga/Solidity/AtomicSwap/contracts/Petro.sol\":464:489  petroAddress = msg.sender */\n  0x0100\n  exp\n  dup2\n  sload\n  dup2\n  0xffffffffffffffffffffffffffffffffffffffff\n  mul\n  not\n  and\n  swap1\n  dup4\n  0xffffffffffffffffffffffffffffffffffffffff\n  and\n  mul\n  or\n  swap1\n  sstore\n  pop\n    /* \"Proga/Solidity/AtomicSwap/contracts/Petro.sol\":509:523  _dmytroAddress */\n  dup2\n    /* \"Proga/Solidity/AtomicSwap/contracts/Petro.sol\":493:506  dmytroAddress */\n  0x05\n  0x00\n    /* \"Proga/Solidity/AtomicSwap/contracts/Petro.sol\":493:523  dmytroAddress = _dmytroAddress */\n  0x0100\n  exp\n  dup2\n  sload\n  dup2\n  0xffffffffffffffffffffffffffffffffffffffff\n  mul\n  not\n  and\n  swap1\n  dup4\n  0xffffffffffffffffffffffffffffffffffffffff\n  and\n  mul\n  or\n  swap1\n  sstore\n  pop\n    /* \"Proga/Solidity/AtomicSwap/contracts/Petro.sol\":556:561  _hash */\n  dup1\n    /* \"Proga/Solidity/AtomicSwap/contracts/Petro.sol\":549:553  hash */\n  0x03\n    /* \"Proga/Solidity/AtomicSwap/contracts/Petro.sol\":549:561  hash = _hash */\n  dup2\n  swap1\n  sstore\n  pop\n    /* \"Proga/Solidity/AtomicSwap/contracts/Petro.sol\":409:567  constructor(address _dmytroAddress, bytes32 _hash) {... */\n  pop\n  pop\n    /* \"Proga/Solidity/AtomicSwap/contracts/Petro.sol\":57:1389  contract Petro {... */\n  jump(tag_6)\n    /* \"#utility.yul\":88:205   */\ntag_8:\n    /* \"#utility.yul\":197:198   */\n  0x00\n    /* \"#utility.yul\":194:195   */\n  dup1\n    /* \"#utility.yul\":187:199   */\n  revert\n    /* \"#utility.yul\":334:460   */\ntag_10:\n    /* \"#utility.yul\":371:378   */\n  0x00\n    /* \"#utility.yul\":411:453   */\n  0xffffffffffffffffffffffffffffffffffffffff\n    /* \"#utility.yul\":404:409   */\n  dup3\n    /* \"#utility.yul\":400:454   */\n  and\n    /* \"#utility.yul\":389:454   */\n  swap1\n  pop\n    /* \"#utility.yul\":334:460   */\n  swap2\n  swap1\n  pop\n  jump\t// out\n    /* \"#utility.yul\":466:562   */\ntag_11:\n    /* \"#utility.yul\":503:510   */\n  0x00\n    /* \"#utility.yul\":532:556   */\n  tag_23\n    /* \"#utility.yul\":550:555   */\n  dup3\n    /* \"#utility.yul\":532:556   */\n  tag_10\n  jump\t// in\ntag_23:\n    /* \"#utility.yul\":521:556   */\n  swap1\n  pop\n    /* \"#utility.yul\":466:562   */\n  swap2\n  swap1\n  pop\n  jump\t// out\n    /* \"#utility.yul\":568:690   */\ntag_12:\n    /* \"#utility.yul\":641:665   */\n  tag_25\n    /* \"#utility.yul\":659:664   */\n  dup2\n    /* \"#utility.yul\":641:665   */\n  tag_11\n  jump\t// in\ntag_25:\n    /* \"#utility.yul\":634:639   */\n  dup2\n    /* \"#utility.yul\":631:666   */\n  eq\n    /* \"#utility.yul\":621:684   */\n  tag_26\n  jumpi\n    /* \"#utility.yul\":680:681   */\n  0x00\n    /* \"#utility.yul\":677:678   */\n  dup1\n    /* \"#utility.yul\":670:682   */\n  revert\n    /* \"#utility.yul\":621:684   */\ntag_26:\n    /* \"#utility.yul\":568:690   */\n  pop\n  jump\t// out\n    /* \"#utility.yul\":696:839   */\ntag_13:\n    /* \"#utility.yul\":753:758   */\n  0x00\n    /* \"#utility.yul\":784:790   */\n  dup2\n    /* \"#utility.yul\":778:791   */\n  mload\n    /* \"#utility.yul\":769:791   */\n  swap1\n  pop\n    /* \"#utility.yul\":800:833   */\n  tag_28\n    /* \"#utility.yul\":827:832   */\n  dup2\n    /* \"#utility.yul\":800:833   */\n  tag_12\n  jump\t// in\ntag_28:\n    /* \"#utility.yul\":696:839   */\n  swap3\n  swap2\n  pop\n  pop\n  jump\t// out\n    /* \"#utility.yul\":845:922   */\ntag_14:\n    /* \"#utility.yul\":882:889   */\n  0x00\n    /* \"#utility.yul\":911:916   */\n  dup2\n    /* \"#utility.yul\":900:916   */\n  swap1\n  pop\n    /* \"#utility.yul\":845:922   */\n  swap2\n  swap1\n  pop\n  jump\t// out\n    /* \"#utility.yul\":928:1050   */\ntag_15:\n    /* \"#utility.yul\":1001:1025   */\n  tag_31\n    /* \"#utility.yul\":1019:1024   */\n  dup2\n    /* \"#utility.yul\":1001:1025   */\n  tag_14\n  jump\t// in\ntag_31:\n    /* \"#utility.yul\":994:999   */\n  dup2\n    /* \"#utility.yul\":991:1026   */\n  eq\n    /* \"#utility.yul\":981:1044   */\n  tag_32\n  jumpi\n    /* \"#utility.yul\":1040:1041   */\n  0x00\n    /* \"#utility.yul\":1037:1038   */\n  dup1\n    /* \"#utility.yul\":1030:1042   */\n  revert\n    /* \"#utility.yul\":981:1044   */\ntag_32:\n    /* \"#utility.yul\":928:1050   */\n  pop\n  jump\t// out\n    /* \"#utility.yul\":1056:1199   */\ntag_16:\n    /* \"#utility.yul\":1113:1118   */\n  0x00\n    /* \"#utility.yul\":1144:1150   */\n  dup2\n    /* \"#utility.yul\":1138:1151   */\n  mload\n    /* \"#utility.yul\":1129:1151   */\n  swap1\n  pop\n    /* \"#utility.yul\":1160:1193   */\n  tag_34\n    /* \"#utility.yul\":1187:1192   */\n  dup2\n    /* \"#utility.yul\":1160:1193   */\n  tag_15\n  jump\t// in\ntag_34:\n    /* \"#utility.yul\":1056:1199   */\n  swap3\n  swap2\n  pop\n  pop\n  jump\t// out\n    /* \"#utility.yul\":1205:1712   */\ntag_3:\n    /* \"#utility.yul\":1284:1290   */\n  0x00\n    /* \"#utility.yul\":1292:1298   */\n  dup1\n    /* \"#utility.yul\":1341:1343   */\n  0x40\n    /* \"#utility.yul\":1329:1338   */\n  dup4\n    /* \"#utility.yul\":1320:1327   */\n  dup6\n    /* \"#utility.yul\":1316:1339   */\n  sub\n    /* \"#utility.yul\":1312:1344   */\n  slt\n    /* \"#utility.yul\":1309:1428   */\n  iszero\n  tag_36\n  jumpi\n    /* \"#utility.yul\":1347:1426   */\n  tag_37\n  tag_8\n  jump\t// in\ntag_37:\n    /* \"#utility.yul\":1309:1428   */\ntag_36:\n    /* \"#utility.yul\":1467:1468   */\n  0x00\n    /* \"#utility.yul\":1492:1556   */\n  tag_38\n    /* \"#utility.yul\":1548:1555   */\n  dup6\n    /* \"#utility.yul\":1539:1545   */\n  dup3\n    /* \"#utility.yul\":1528:1537   */\n  dup7\n    /* \"#utility.yul\":1524:1546   */\n  add\n    /* \"#utility.yul\":1492:1556   */\n  tag_13\n  jump\t// in\ntag_38:\n    /* \"#utility.yul\":1482:1556   */\n  swap3\n  pop\n    /* \"#utility.yul\":1438:1566   */\n  pop\n    /* \"#utility.yul\":1605:1607   */\n  0x20\n    /* \"#utility.yul\":1631:1695   */\n  tag_39\n    /* \"#utility.yul\":1687:1694   */\n  dup6\n    /* \"#utility.yul\":1678:1684   */\n  dup3\n    /* \"#utility.yul\":1667:1676   */\n  dup7\n    /* \"#utility.yul\":1663:1685   */\n  add\n    /* \"#utility.yul\":1631:1695   */\n  tag_16\n  jump\t// in\ntag_39:\n    /* \"#utility.yul\":1621:1695   */\n  swap2\n  pop\n    /* \"#utility.yul\":1576:1705   */\n  pop\n    /* \"#utility.yul\":1205:1712   */\n  swap3\n  pop\n  swap3\n  swap1\n  pop\n  jump\t// out\n    /* \"Proga/Solidity/AtomicSwap/contracts/Petro.sol\":57:1389  contract Petro {... */\ntag_6:\n  dataSize(sub_0)\n  dup1\n  dataOffset(sub_0)\n  0x00\n  codecopy\n  0x00\n  return\nstop\n\nsub_0: assembly {\n        /* \"Proga/Solidity/AtomicSwap/contracts/Petro.sol\":57:1389  contract Petro {... */\n      mstore(0x40, 0x80)\n      jumpi(tag_1, lt(calldatasize, 0x04))\n      shr(0xe0, calldataload(0x00))\n      dup1\n      0x5b889ab8\n      gt\n      tag_12\n      jumpi\n      dup1\n      0x5b889ab8\n      eq\n      tag_7\n      jumpi\n      dup1\n      0x8bfafd8b\n      eq\n      tag_8\n      jumpi\n      dup1\n      0xae4af217\n      eq\n      tag_9\n      jumpi\n      dup1\n      0xd1efd30d\n      eq\n      tag_10\n      jumpi\n      dup1\n      0xda1d55e1\n      eq\n      tag_11\n      jumpi\n      jump(tag_2)\n    tag_12:\n      dup1\n      0x09bd5a60\n      eq\n      tag_3\n      jumpi\n      dup1\n      0x0d668087\n      eq\n      tag_4\n      jumpi\n      dup1\n      0x31fb67c2\n      eq\n      tag_5\n      jumpi\n      dup1\n      0x590e1ae3\n      eq\n      tag_6\n      jumpi\n      jump(tag_2)\n    tag_1:\n      jumpi(tag_2, calldatasize)\n        /* \"Proga/Solidity/AtomicSwap/contracts/Petro.sol\":374:382  lockTime */\n      sload(0x01)\n        /* \"Proga/Solidity/AtomicSwap/contracts/Petro.sol\":356:371  block.timestamp */\n      timestamp\n        /* \"Proga/Solidity/AtomicSwap/contracts/Petro.sol\":356:382  block.timestamp + lockTime */\n      tag_15\n      swap2\n      swap1\n      tag_16\n      jump\t// in\n    tag_15:\n        /* \"Proga/Solidity/AtomicSwap/contracts/Petro.sol\":347:353  timeTo */\n      0x06\n        /* \"Proga/Solidity/AtomicSwap/contracts/Petro.sol\":347:382  timeTo = block.timestamp + lockTime */\n      dup2\n      swap1\n      sstore\n      stop\n        /* \"Proga/Solidity/AtomicSwap/contracts/Petro.sol\":57:1389  contract Petro {... */\n    tag_2:\n      0x00\n      dup1\n      revert\n        /* \"Proga/Solidity/AtomicSwap/contracts/Petro.sol\":185:204  bytes32 public hash */\n    tag_3:\n      callvalue\n      dup1\n      iszero\n      tag_17\n      jumpi\n      0x00\n      dup1\n      revert\n    tag_17:\n      pop\n      tag_18\n      tag_19\n      jump\t// in\n    tag_18:\n      mload(0x40)\n      tag_20\n      swap2\n      swap1\n      tag_21\n      jump\t// in\n    tag_20:\n      mload(0x40)\n      dup1\n      swap2\n      sub\n      swap1\n      return\n        /* \"Proga/Solidity/AtomicSwap/contracts/Petro.sol\":112:143  uint256 public lockTime = 43200 */\n    tag_4:\n      callvalue\n      dup1\n      iszero\n      tag_22\n      jumpi\n      0x00\n      dup1\n      revert\n    tag_22:\n      pop\n      tag_23\n      tag_24\n      jump\t// in\n    tag_23:\n      mload(0x40)\n      tag_25\n      swap2\n      swap1\n      tag_26\n      jump\t// in\n    tag_25:\n      mload(0x40)\n      dup1\n      swap2\n      sub\n      swap1\n      return\n        /* \"Proga/Solidity/AtomicSwap/contracts/Petro.sol\":908:1206  function withdraw(string memory _secret) external onlyDmytro {... */\n    tag_5:\n      callvalue\n      dup1\n      iszero\n      tag_27\n      jumpi\n      0x00\n      dup1\n      revert\n    tag_27:\n      pop\n      tag_28\n      0x04\n      dup1\n      calldatasize\n      sub\n      dup2\n      add\n      swap1\n      tag_29\n      swap2\n      swap1\n      tag_30\n      jump\t// in\n    tag_29:\n      tag_31\n      jump\t// in\n    tag_28:\n      stop\n        /* \"Proga/Solidity/AtomicSwap/contracts/Petro.sol\":1209:1386  function refund() external onlyPetro {... */\n    tag_6:\n      callvalue\n      dup1\n      iszero\n      tag_32\n      jumpi\n      0x00\n      dup1\n      revert\n    tag_32:\n      pop\n      tag_33\n      tag_34\n      jump\t// in\n    tag_33:\n      stop\n        /* \"Proga/Solidity/AtomicSwap/contracts/Petro.sol\":77:109  uint256 public ammount = 1 ether */\n    tag_7:\n      callvalue\n      dup1\n      iszero\n      tag_35\n      jumpi\n      0x00\n      dup1\n      revert\n    tag_35:\n      pop\n      tag_36\n      tag_37\n      jump\t// in\n    tag_36:\n      mload(0x40)\n      tag_38\n      swap2\n      swap1\n      tag_26\n      jump\t// in\n    tag_38:\n      mload(0x40)\n      dup1\n      swap2\n      sub\n      swap1\n      return\n        /* \"Proga/Solidity/AtomicSwap/contracts/Petro.sol\":268:289  uint256 public timeTo */\n    tag_8:\n      callvalue\n      dup1\n      iszero\n      tag_39\n      jumpi\n      0x00\n      dup1\n      revert\n    tag_39:\n      pop\n      tag_40\n      tag_41\n      jump\t// in\n    tag_40:\n      mload(0x40)\n      tag_42\n      swap2\n      swap1\n      tag_26\n      jump\t// in\n    tag_42:\n      mload(0x40)\n      dup1\n      swap2\n      sub\n      swap1\n      return\n        /* \"Proga/Solidity/AtomicSwap/contracts/Petro.sol\":237:265  address public dmytroAddress */\n    tag_9:\n      callvalue\n      dup1\n      iszero\n      tag_43\n      jumpi\n      0x00\n      dup1\n      revert\n    tag_43:\n      pop\n      tag_44\n      tag_45\n      jump\t// in\n    tag_44:\n      mload(0x40)\n      tag_46\n      swap2\n      swap1\n      tag_47\n      jump\t// in\n    tag_46:\n      mload(0x40)\n      dup1\n      swap2\n      sub\n      swap1\n      return\n        /* \"Proga/Solidity/AtomicSwap/contracts/Petro.sol\":162:182  string public secret */\n    tag_10:\n      callvalue\n      dup1\n      iszero\n      tag_48\n      jumpi\n      0x00\n      dup1\n      revert\n    tag_48:\n      pop\n      tag_49\n      tag_50\n      jump\t// in\n    tag_49:\n      mload(0x40)\n      tag_51\n      swap2\n      swap1\n      tag_52\n      jump\t// in\n    tag_51:\n      mload(0x40)\n      dup1\n      swap2\n      sub\n      swap1\n      return\n        /* \"Proga/Solidity/AtomicSwap/contracts/Petro.sol\":207:234  address public petroAddress */\n    tag_11:\n      callvalue\n      dup1\n      iszero\n      tag_53\n      jumpi\n      0x00\n      dup1\n      revert\n    tag_53:\n      pop\n      tag_54\n      tag_55\n      jump\t// in\n    tag_54:\n      mload(0x40)\n      tag_56\n      swap2\n      swap1\n      tag_47\n      jump\t// in\n    tag_56:\n      mload(0x40)\n      dup1\n      swap2\n      sub\n      swap1\n      return\n        /* \"Proga/Solidity/AtomicSwap/contracts/Petro.sol\":185:204  bytes32 public hash */\n    tag_19:\n      sload(0x03)\n      dup2\n      jump\t// out\n        /* \"Proga/Solidity/AtomicSwap/contracts/Petro.sol\":112:143  uint256 public lockTime = 43200 */\n    tag_24:\n      sload(0x01)\n      dup2\n      jump\t// out\n        /* \"Proga/Solidity/AtomicSwap/contracts/Petro.sol\":908:1206  function withdraw(string memory _secret) external onlyDmytro {... */\n    tag_31:\n        /* \"Proga/Solidity/AtomicSwap/contracts/Petro.sol\":766:779  dmytroAddress */\n      0x05\n      0x00\n      swap1\n      sload\n      swap1\n      0x0100\n      exp\n      swap1\n      div\n      0xffffffffffffffffffffffffffffffffffffffff\n      and\n        /* \"Proga/Solidity/AtomicSwap/contracts/Petro.sol\":752:779  msg.sender == dmytroAddress */\n      0xffffffffffffffffffffffffffffffffffffffff\n      and\n        /* \"Proga/Solidity/AtomicSwap/contracts/Petro.sol\":752:762  msg.sender */\n      caller\n        /* \"Proga/Solidity/AtomicSwap/contracts/Petro.sol\":752:779  msg.sender == dmytroAddress */\n      0xffffffffffffffffffffffffffffffffffffffff\n      and\n      eq\n        /* \"Proga/Solidity/AtomicSwap/contracts/Petro.sol\":744:802  require(msg.sender == dmytroAddress, \"you are not Dmytro\") */\n      tag_58\n      jumpi\n      mload(0x40)\n      0x08c379a000000000000000000000000000000000000000000000000000000000\n      dup2\n      mstore\n      0x04\n      add\n      tag_59\n      swap1\n      tag_60\n      jump\t// in\n    tag_59:\n      mload(0x40)\n      dup1\n      swap2\n      sub\n      swap1\n      revert\n    tag_58:\n        /* \"Proga/Solidity/AtomicSwap/contracts/Petro.sol\":999:1005  timeTo */\n      sload(0x06)\n        /* \"Proga/Solidity/AtomicSwap/contracts/Petro.sol\":981:996  block.timestamp */\n      timestamp\n        /* \"Proga/Solidity/AtomicSwap/contracts/Petro.sol\":981:1005  block.timestamp < timeTo */\n      lt\n        /* \"Proga/Solidity/AtomicSwap/contracts/Petro.sol\":973:1024  require(block.timestamp < timeTo, \"period expired\") */\n      tag_62\n      jumpi\n      mload(0x40)\n      0x08c379a000000000000000000000000000000000000000000000000000000000\n      dup2\n      mstore\n      0x04\n      add\n      tag_63\n      swap1\n      tag_64\n      jump\t// in\n    tag_63:\n      mload(0x40)\n      dup1\n      swap2\n      sub\n      swap1\n      revert\n    tag_62:\n        /* \"Proga/Solidity/AtomicSwap/contracts/Petro.sol\":1076:1080  hash */\n      sload(0x03)\n        /* \"Proga/Solidity/AtomicSwap/contracts/Petro.sol\":1063:1070  _secret */\n      dup2\n        /* \"Proga/Solidity/AtomicSwap/contracts/Petro.sol\":1046:1071  abi.encodePacked(_secret) */\n      add(0x20, mload(0x40))\n      tag_65\n      swap2\n      swap1\n      tag_66\n      jump\t// in\n    tag_65:\n      mload(0x40)\n      0x20\n      dup2\n      dup4\n      sub\n      sub\n      dup2\n      mstore\n      swap1\n      0x40\n      mstore\n        /* \"Proga/Solidity/AtomicSwap/contracts/Petro.sol\":1036:1072  keccak256(abi.encodePacked(_secret)) */\n      dup1\n      mload\n      swap1\n      0x20\n      add\n      keccak256\n        /* \"Proga/Solidity/AtomicSwap/contracts/Petro.sol\":1036:1080  keccak256(abi.encodePacked(_secret)) == hash */\n      eq\n        /* \"Proga/Solidity/AtomicSwap/contracts/Petro.sol\":1028:1099  require(keccak256(abi.encodePacked(_secret)) == hash, \"Invalid secret\") */\n      tag_67\n      jumpi\n      mload(0x40)\n      0x08c379a000000000000000000000000000000000000000000000000000000000\n      dup2\n      mstore\n      0x04\n      add\n      tag_68\n      swap1\n      tag_69\n      jump\t// in\n    tag_68:\n      mload(0x40)\n      dup1\n      swap2\n      sub\n      swap1\n      revert\n    tag_67:\n        /* \"Proga/Solidity/AtomicSwap/contracts/Petro.sol\":1111:1124  dmytroAddress */\n      0x05\n      0x00\n      swap1\n      sload\n      swap1\n      0x0100\n      exp\n      swap1\n      div\n      0xffffffffffffffffffffffffffffffffffffffff\n      and\n        /* \"Proga/Solidity/AtomicSwap/contracts/Petro.sol\":1103:1134  payable(dmytroAddress).transfer */\n      0xffffffffffffffffffffffffffffffffffffffff\n      and\n        /* \"Proga/Solidity/AtomicSwap/contracts/Petro.sol\":1103:1157  payable(dmytroAddress).transfer(address(this).balance) */\n      0x08fc\n        /* \"Proga/Solidity/AtomicSwap/contracts/Petro.sol\":1135:1156  address(this).balance */\n      selfbalance\n        /* \"Proga/Solidity/AtomicSwap/contracts/Petro.sol\":1103:1157  payable(dmytroAddress).transfer(address(this).balance) */\n      swap1\n      dup2\n      iszero\n      mul\n      swap1\n      mload(0x40)\n      0x00\n      mload(0x40)\n      dup1\n      dup4\n      sub\n      dup2\n      dup6\n      dup9\n      dup9\n      call\n      swap4\n      pop\n      pop\n      pop\n      pop\n      iszero\n      dup1\n      iszero\n      tag_71\n      jumpi\n      returndatasize\n      0x00\n      dup1\n      returndatacopy\n      revert(0x00, returndatasize)\n    tag_71:\n      pop\n        /* \"Proga/Solidity/AtomicSwap/contracts/Petro.sol\":1170:1177  _secret */\n      dup1\n        /* \"Proga/Solidity/AtomicSwap/contracts/Petro.sol\":1161:1167  secret */\n      0x02\n        /* \"Proga/Solidity/AtomicSwap/contracts/Petro.sol\":1161:1177  secret = _secret */\n      swap1\n      dup2\n      tag_72\n      swap2\n      swap1\n      tag_73\n      jump\t// in\n    tag_72:\n      pop\n        /* \"Proga/Solidity/AtomicSwap/contracts/Petro.sol\":908:1206  function withdraw(string memory _secret) external onlyDmytro {... */\n      pop\n      jump\t// out\n        /* \"Proga/Solidity/AtomicSwap/contracts/Petro.sol\":1209:1386  function refund() external onlyPetro {... */\n    tag_34:\n        /* \"Proga/Solidity/AtomicSwap/contracts/Petro.sol\":861:873  petroAddress */\n      0x04\n      0x00\n      swap1\n      sload\n      swap1\n      0x0100\n      exp\n      swap1\n      div\n      0xffffffffffffffffffffffffffffffffffffffff\n      and\n        /* \"Proga/Solidity/AtomicSwap/contracts/Petro.sol\":847:873  msg.sender == petroAddress */\n      0xffffffffffffffffffffffffffffffffffffffff\n      and\n        /* \"Proga/Solidity/AtomicSwap/contracts/Petro.sol\":847:857  msg.sender */\n      caller\n        /* \"Proga/Solidity/AtomicSwap/contracts/Petro.sol\":847:873  msg.sender == petroAddress */\n      0xffffffffffffffffffffffffffffffffffffffff\n      and\n      eq\n        /* \"Proga/Solidity/AtomicSwap/contracts/Petro.sol\":839:895  require(msg.sender == petroAddress, \"you are not Petro\") */\n      tag_75\n      jumpi\n      mload(0x40)\n      0x08c379a000000000000000000000000000000000000000000000000000000000\n      dup2\n      mstore\n      0x04\n      add\n      tag_76\n      swap1\n      tag_77\n      jump\t// in\n    tag_76:\n      mload(0x40)\n      dup1\n      swap2\n      sub\n      swap1\n      revert\n    tag_75:\n        /* \"Proga/Solidity/AtomicSwap/contracts/Petro.sol\":1276:1282  timeTo */\n      sload(0x06)\n        /* \"Proga/Solidity/AtomicSwap/contracts/Petro.sol\":1258:1273  block.timestamp */\n      timestamp\n        /* \"Proga/Solidity/AtomicSwap/contracts/Petro.sol\":1258:1282  block.timestamp > timeTo */\n      gt\n        /* \"Proga/Solidity/AtomicSwap/contracts/Petro.sol\":1250:1305  require(block.timestamp > timeTo, \"it is not time yet\") */\n      tag_79\n      jumpi\n      mload(0x40)\n      0x08c379a000000000000000000000000000000000000000000000000000000000\n      dup2\n      mstore\n      0x04\n      add\n      tag_80\n      swap1\n      tag_81\n      jump\t// in\n    tag_80:\n      mload(0x40)\n      dup1\n      swap2\n      sub\n      swap1\n      revert\n    tag_79:\n        /* \"Proga/Solidity/AtomicSwap/contracts/Petro.sol\":1317:1330  dmytroAddress */\n      0x05\n      0x00\n      swap1\n      sload\n      swap1\n      0x0100\n      exp\n      swap1\n      div\n      0xffffffffffffffffffffffffffffffffffffffff\n      and\n        /* \"Proga/Solidity/AtomicSwap/contracts/Petro.sol\":1309:1340  payable(dmytroAddress).transfer */\n      0xffffffffffffffffffffffffffffffffffffffff\n      and\n        /* \"Proga/Solidity/AtomicSwap/contracts/Petro.sol\":1309:1363  payable(dmytroAddress).transfer(address(this).balance) */\n      0x08fc\n        /* \"Proga/Solidity/AtomicSwap/contracts/Petro.sol\":1341:1362  address(this).balance */\n      selfbalance\n        /* \"Proga/Solidity/AtomicSwap/contracts/Petro.sol\":1309:1363  payable(dmytroAddress).transfer(address(this).balance) */\n      swap1\n      dup2\n      iszero\n      mul\n      swap1\n      mload(0x40)\n      0x00\n      mload(0x40)\n      dup1\n      dup4\n      sub\n      dup2\n      dup6\n      dup9\n      dup9\n      call\n      swap4\n      pop\n      pop\n      pop\n      pop\n      iszero\n      dup1\n      iszero\n      tag_83\n      jumpi\n      returndatasize\n      0x00\n      dup1\n      returndatacopy\n      revert(0x00, returndatasize)\n    tag_83:\n      pop\n        /* \"Proga/Solidity/AtomicSwap/contracts/Petro.sol\":1209:1386  function refund() external onlyPetro {... */\n      jump\t// out\n        /* \"Proga/Solidity/AtomicSwap/contracts/Petro.sol\":77:109  uint256 public ammount = 1 ether */\n    tag_37:\n      sload(0x00)\n      dup2\n      jump\t// out\n        /* \"Proga/Solidity/AtomicSwap/contracts/Petro.sol\":268:289  uint256 public timeTo */\n    tag_41:\n      sload(0x06)\n      dup2\n      jump\t// out\n        /* \"Proga/Solidity/AtomicSwap/contracts/Petro.sol\":237:265  address public dmytroAddress */\n    tag_45:\n      0x05\n      0x00\n      swap1\n      sload\n      swap1\n      0x0100\n      exp\n      swap1\n      div\n      0xffffffffffffffffffffffffffffffffffffffff\n      and\n      dup2\n      jump\t// out\n        /* \"Proga/Solidity/AtomicSwap/contracts/Petro.sol\":162:182  string public secret */\n    tag_50:\n      0x02\n      dup1\n      sload\n      tag_84\n      swap1\n      tag_85\n      jump\t// in\n    tag_84:\n      dup1\n      0x1f\n      add\n      0x20\n      dup1\n      swap2\n      div\n      mul\n      0x20\n      add\n      mload(0x40)\n      swap1\n      dup2\n      add\n      0x40\n      mstore\n      dup1\n      swap3\n      swap2\n      swap1\n      dup2\n      dup2\n      mstore\n      0x20\n      add\n      dup3\n      dup1\n      sload\n      tag_86\n      swap1\n      tag_85\n      jump\t// in\n    tag_86:\n      dup1\n      iszero\n      tag_87\n      jumpi\n      dup1\n      0x1f\n      lt\n      tag_88\n      jumpi\n      0x0100\n      dup1\n      dup4\n      sload\n      div\n      mul\n      dup4\n      mstore\n      swap2\n      0x20\n      add\n      swap2\n      jump(tag_87)\n    tag_88:\n      dup3\n      add\n      swap2\n      swap1\n      0x00\n      mstore\n      keccak256(0x00, 0x20)\n      swap1\n    tag_89:\n      dup2\n      sload\n      dup2\n      mstore\n      swap1\n      0x01\n      add\n      swap1\n      0x20\n      add\n      dup1\n      dup4\n      gt\n      tag_89\n      jumpi\n      dup3\n      swap1\n      sub\n      0x1f\n      and\n      dup3\n      add\n      swap2\n    tag_87:\n      pop\n      pop\n      pop\n      pop\n      pop\n      dup2\n      jump\t// out\n        /* \"Proga/Solidity/AtomicSwap/contracts/Petro.sol\":207:234  address public petroAddress */\n    tag_55:\n      0x04\n      0x00\n      swap1\n      sload\n      swap1\n      0x0100\n      exp\n      swap1\n      div\n      0xffffffffffffffffffffffffffffffffffffffff\n      and\n      dup2\n      jump\t// out\n        /* \"#utility.yul\":7:84   */\n    tag_90:\n        /* \"#utility.yul\":44:51   */\n      0x00\n        /* \"#utility.yul\":73:78   */\n      dup2\n        /* \"#utility.yul\":62:78   */\n      swap1\n      pop\n        /* \"#utility.yul\":7:84   */\n      swap2\n      swap1\n      pop\n      jump\t// out\n        /* \"#utility.yul\":90:270   */\n    tag_91:\n        /* \"#utility.yul\":138:215   */\n      0x4e487b7100000000000000000000000000000000000000000000000000000000\n        /* \"#utility.yul\":135:136   */\n      0x00\n        /* \"#utility.yul\":128:216   */\n      mstore\n        /* \"#utility.yul\":235:239   */\n      0x11\n        /* \"#utility.yul\":232:233   */\n      0x04\n        /* \"#utility.yul\":225:240   */\n      mstore\n        /* \"#utility.yul\":259:263   */\n      0x24\n        /* \"#utility.yul\":256:257   */\n      0x00\n        /* \"#utility.yul\":249:264   */\n      revert\n        /* \"#utility.yul\":276:467   */\n    tag_16:\n        /* \"#utility.yul\":316:319   */\n      0x00\n        /* \"#utility.yul\":335:355   */\n      tag_147\n        /* \"#utility.yul\":353:354   */\n      dup3\n        /* \"#utility.yul\":335:355   */\n      tag_90\n      jump\t// in\n    tag_147:\n        /* \"#utility.yul\":330:355   */\n      swap2\n      pop\n        /* \"#utility.yul\":369:389   */\n      tag_148\n        /* \"#utility.yul\":387:388   */\n      dup4\n        /* \"#utility.yul\":369:389   */\n      tag_90\n      jump\t// in\n    tag_148:\n        /* \"#utility.yul\":364:389   */\n      swap3\n      pop\n        /* \"#utility.yul\":412:413   */\n      dup3\n        /* \"#utility.yul\":409:410   */\n      dup3\n        /* \"#utility.yul\":405:414   */\n      add\n        /* \"#utility.yul\":398:414   */\n      swap1\n      pop\n        /* \"#utility.yul\":433:436   */\n      dup1\n        /* \"#utility.yul\":430:431   */\n      dup3\n        /* \"#utility.yul\":427:437   */\n      gt\n        /* \"#utility.yul\":424:460   */\n      iszero\n      tag_149\n      jumpi\n        /* \"#utility.yul\":440:458   */\n      tag_150\n      tag_91\n      jump\t// in\n    tag_150:\n        /* \"#utility.yul\":424:460   */\n    tag_149:\n        /* \"#utility.yul\":276:467   */\n      swap3\n      swap2\n      pop\n      pop\n      jump\t// out\n        /* \"#utility.yul\":473:550   */\n    tag_92:\n        /* \"#utility.yul\":510:517   */\n      0x00\n        /* \"#utility.yul\":539:544   */\n      dup2\n        /* \"#utility.yul\":528:544   */\n      swap1\n      pop\n        /* \"#utility.yul\":473:550   */\n      swap2\n      swap1\n      pop\n      jump\t// out\n        /* \"#utility.yul\":556:674   */\n    tag_93:\n        /* \"#utility.yul\":643:667   */\n      tag_153\n        /* \"#utility.yul\":661:666   */\n      dup2\n        /* \"#utility.yul\":643:667   */\n      tag_92\n      jump\t// in\n    tag_153:\n        /* \"#utility.yul\":638:641   */\n      dup3\n        /* \"#utility.yul\":631:668   */\n      mstore\n        /* \"#utility.yul\":556:674   */\n      pop\n      pop\n      jump\t// out\n        /* \"#utility.yul\":680:902   */\n    tag_21:\n        /* \"#utility.yul\":773:777   */\n      0x00\n        /* \"#utility.yul\":811:813   */\n      0x20\n        /* \"#utility.yul\":800:809   */\n      dup3\n        /* \"#utility.yul\":796:814   */\n      add\n        /* \"#utility.yul\":788:814   */\n      swap1\n      pop\n        /* \"#utility.yul\":824:895   */\n      tag_155\n        /* \"#utility.yul\":892:893   */\n      0x00\n        /* \"#utility.yul\":881:890   */\n      dup4\n        /* \"#utility.yul\":877:894   */\n      add\n        /* \"#utility.yul\":868:874   */\n      dup5\n        /* \"#utility.yul\":824:895   */\n      tag_93\n      jump\t// in\n    tag_155:\n        /* \"#utility.yul\":680:902   */\n      swap3\n      swap2\n      pop\n      pop\n      jump\t// out\n        /* \"#utility.yul\":908:1026   */\n    tag_94:\n        /* \"#utility.yul\":995:1019   */\n      tag_157\n        /* \"#utility.yul\":1013:1018   */\n      dup2\n        /* \"#utility.yul\":995:1019   */\n      tag_90\n      jump\t// in\n    tag_157:\n        /* \"#utility.yul\":990:993   */\n      dup3\n        /* \"#utility.yul\":983:1020   */\n      mstore\n        /* \"#utility.yul\":908:1026   */\n      pop\n      pop\n      jump\t// out\n        /* \"#utility.yul\":1032:1254   */\n    tag_26:\n        /* \"#utility.yul\":1125:1129   */\n      0x00\n        /* \"#utility.yul\":1163:1165   */\n      0x20\n        /* \"#utility.yul\":1152:1161   */\n      dup3\n        /* \"#utility.yul\":1148:1166   */\n      add\n        /* \"#utility.yul\":1140:1166   */\n      swap1\n      pop\n        /* \"#utility.yul\":1176:1247   */\n      tag_159\n        /* \"#utility.yul\":1244:1245   */\n      0x00\n        /* \"#utility.yul\":1233:1242   */\n      dup4\n        /* \"#utility.yul\":1229:1246   */\n      add\n        /* \"#utility.yul\":1220:1226   */\n      dup5\n        /* \"#utility.yul\":1176:1247   */\n      tag_94\n      jump\t// in\n    tag_159:\n        /* \"#utility.yul\":1032:1254   */\n      swap3\n      swap2\n      pop\n      pop\n      jump\t// out\n        /* \"#utility.yul\":1260:1335   */\n    tag_95:\n        /* \"#utility.yul\":1293:1299   */\n      0x00\n        /* \"#utility.yul\":1326:1328   */\n      0x40\n        /* \"#utility.yul\":1320:1329   */\n      mload\n        /* \"#utility.yul\":1310:1329   */\n      swap1\n      pop\n        /* \"#utility.yul\":1260:1335   */\n      swap1\n      jump\t// out\n        /* \"#utility.yul\":1341:1458   */\n    tag_96:\n        /* \"#utility.yul\":1450:1451   */\n      0x00\n        /* \"#utility.yul\":1447:1448   */\n      dup1\n        /* \"#utility.yul\":1440:1452   */\n      revert\n        /* \"#utility.yul\":1464:1581   */\n    tag_97:\n        /* \"#utility.yul\":1573:1574   */\n      0x00\n        /* \"#utility.yul\":1570:1571   */\n      dup1\n        /* \"#utility.yul\":1563:1575   */\n      revert\n        /* \"#utility.yul\":1587:1704   */\n    tag_98:\n        /* \"#utility.yul\":1696:1697   */\n      0x00\n        /* \"#utility.yul\":1693:1694   */\n      dup1\n        /* \"#utility.yul\":1686:1698   */\n      revert\n        /* \"#utility.yul\":1710:1827   */\n    tag_99:\n        /* \"#utility.yul\":1819:1820   */\n      0x00\n        /* \"#utility.yul\":1816:1817   */\n      dup1\n        /* \"#utility.yul\":1809:1821   */\n      revert\n        /* \"#utility.yul\":1833:1935   */\n    tag_100:\n        /* \"#utility.yul\":1874:1880   */\n      0x00\n        /* \"#utility.yul\":1925:1927   */\n      0x1f\n        /* \"#utility.yul\":1921:1928   */\n      not\n        /* \"#utility.yul\":1916:1918   */\n      0x1f\n        /* \"#utility.yul\":1909:1914   */\n      dup4\n        /* \"#utility.yul\":1905:1919   */\n      add\n        /* \"#utility.yul\":1901:1929   */\n      and\n        /* \"#utility.yul\":1891:1929   */\n      swap1\n      pop\n        /* \"#utility.yul\":1833:1935   */\n      swap2\n      swap1\n      pop\n      jump\t// out\n        /* \"#utility.yul\":1941:2121   */\n    tag_101:\n        /* \"#utility.yul\":1989:2066   */\n      0x4e487b7100000000000000000000000000000000000000000000000000000000\n        /* \"#utility.yul\":1986:1987   */\n      0x00\n        /* \"#utility.yul\":1979:2067   */\n      mstore\n        /* \"#utility.yul\":2086:2090   */\n      0x41\n        /* \"#utility.yul\":2083:2084   */\n      0x04\n        /* \"#utility.yul\":2076:2091   */\n      mstore\n        /* \"#utility.yul\":2110:2114   */\n      0x24\n        /* \"#utility.yul\":2107:2108   */\n      0x00\n        /* \"#utility.yul\":2100:2115   */\n      revert\n        /* \"#utility.yul\":2127:2408   */\n    tag_102:\n        /* \"#utility.yul\":2210:2237   */\n      tag_168\n        /* \"#utility.yul\":2232:2236   */\n      dup3\n        /* \"#utility.yul\":2210:2237   */\n      tag_100\n      jump\t// in\n    tag_168:\n        /* \"#utility.yul\":2202:2208   */\n      dup2\n        /* \"#utility.yul\":2198:2238   */\n      add\n        /* \"#utility.yul\":2340:2346   */\n      dup2\n        /* \"#utility.yul\":2328:2338   */\n      dup2\n        /* \"#utility.yul\":2325:2347   */\n      lt\n        /* \"#utility.yul\":2304:2322   */\n      0xffffffffffffffff\n        /* \"#utility.yul\":2292:2302   */\n      dup3\n        /* \"#utility.yul\":2289:2323   */\n      gt\n        /* \"#utility.yul\":2286:2348   */\n      or\n        /* \"#utility.yul\":2283:2371   */\n      iszero\n      tag_169\n      jumpi\n        /* \"#utility.yul\":2351:2369   */\n      tag_170\n      tag_101\n      jump\t// in\n    tag_170:\n        /* \"#utility.yul\":2283:2371   */\n    tag_169:\n        /* \"#utility.yul\":2391:2401   */\n      dup1\n        /* \"#utility.yul\":2387:2389   */\n      0x40\n        /* \"#utility.yul\":2380:2402   */\n      mstore\n        /* \"#utility.yul\":2170:2408   */\n      pop\n        /* \"#utility.yul\":2127:2408   */\n      pop\n      pop\n      jump\t// out\n        /* \"#utility.yul\":2414:2543   */\n    tag_103:\n        /* \"#utility.yul\":2448:2454   */\n      0x00\n        /* \"#utility.yul\":2475:2495   */\n      tag_172\n      tag_95\n      jump\t// in\n    tag_172:\n        /* \"#utility.yul\":2465:2495   */\n      swap1\n      pop\n        /* \"#utility.yul\":2504:2537   */\n      tag_173\n        /* \"#utility.yul\":2532:2536   */\n      dup3\n        /* \"#utility.yul\":2524:2530   */\n      dup3\n        /* \"#utility.yul\":2504:2537   */\n      tag_102\n      jump\t// in\n    tag_173:\n        /* \"#utility.yul\":2414:2543   */\n      swap2\n      swap1\n      pop\n      jump\t// out\n        /* \"#utility.yul\":2549:2857   */\n    tag_104:\n        /* \"#utility.yul\":2611:2615   */\n      0x00\n        /* \"#utility.yul\":2701:2719   */\n      0xffffffffffffffff\n        /* \"#utility.yul\":2693:2699   */\n      dup3\n        /* \"#utility.yul\":2690:2720   */\n      gt\n        /* \"#utility.yul\":2687:2743   */\n      iszero\n      tag_175\n      jumpi\n        /* \"#utility.yul\":2723:2741   */\n      tag_176\n      tag_101\n      jump\t// in\n    tag_176:\n        /* \"#utility.yul\":2687:2743   */\n    tag_175:\n        /* \"#utility.yul\":2761:2790   */\n      tag_177\n        /* \"#utility.yul\":2783:2789   */\n      dup3\n        /* \"#utility.yul\":2761:2790   */\n      tag_100\n      jump\t// in\n    tag_177:\n        /* \"#utility.yul\":2753:2790   */\n      swap1\n      pop\n        /* \"#utility.yul\":2845:2849   */\n      0x20\n        /* \"#utility.yul\":2839:2843   */\n      dup2\n        /* \"#utility.yul\":2835:2850   */\n      add\n        /* \"#utility.yul\":2827:2850   */\n      swap1\n      pop\n        /* \"#utility.yul\":2549:2857   */\n      swap2\n      swap1\n      pop\n      jump\t// out\n        /* \"#utility.yul\":2863:3009   */\n    tag_105:\n        /* \"#utility.yul\":2960:2966   */\n      dup3\n        /* \"#utility.yul\":2955:2958   */\n      dup2\n        /* \"#utility.yul\":2950:2953   */\n      dup4\n        /* \"#utility.yul\":2937:2967   */\n      calldatacopy\n        /* \"#utility.yul\":3001:3002   */\n      0x00\n        /* \"#utility.yul\":2992:2998   */\n      dup4\n        /* \"#utility.yul\":2987:2990   */\n      dup4\n        /* \"#utility.yul\":2983:2999   */\n      add\n        /* \"#utility.yul\":2976:3003   */\n      mstore\n        /* \"#utility.yul\":2863:3009   */\n      pop\n      pop\n      pop\n      jump\t// out\n        /* \"#utility.yul\":3015:3440   */\n    tag_106:\n        /* \"#utility.yul\":3093:3098   */\n      0x00\n        /* \"#utility.yul\":3118:3184   */\n      tag_180\n        /* \"#utility.yul\":3134:3183   */\n      tag_181\n        /* \"#utility.yul\":3176:3182   */\n      dup5\n        /* \"#utility.yul\":3134:3183   */\n      tag_104\n      jump\t// in\n    tag_181:\n        /* \"#utility.yul\":3118:3184   */\n      tag_103\n      jump\t// in\n    tag_180:\n        /* \"#utility.yul\":3109:3184   */\n      swap1\n      pop\n        /* \"#utility.yul\":3207:3213   */\n      dup3\n        /* \"#utility.yul\":3200:3205   */\n      dup2\n        /* \"#utility.yul\":3193:3214   */\n      mstore\n        /* \"#utility.yul\":3245:3249   */\n      0x20\n        /* \"#utility.yul\":3238:3243   */\n      dup2\n        /* \"#utility.yul\":3234:3250   */\n      add\n        /* \"#utility.yul\":3283:3286   */\n      dup5\n        /* \"#utility.yul\":3274:3280   */\n      dup5\n        /* \"#utility.yul\":3269:3272   */\n      dup5\n        /* \"#utility.yul\":3265:3281   */\n      add\n        /* \"#utility.yul\":3262:3287   */\n      gt\n        /* \"#utility.yul\":3259:3371   */\n      iszero\n      tag_182\n      jumpi\n        /* \"#utility.yul\":3290:3369   */\n      tag_183\n      tag_99\n      jump\t// in\n    tag_183:\n        /* \"#utility.yul\":3259:3371   */\n    tag_182:\n        /* \"#utility.yul\":3380:3434   */\n      tag_184\n        /* \"#utility.yul\":3427:3433   */\n      dup5\n        /* \"#utility.yul\":3422:3425   */\n      dup3\n        /* \"#utility.yul\":3417:3420   */\n      dup6\n        /* \"#utility.yul\":3380:3434   */\n      tag_105\n      jump\t// in\n    tag_184:\n        /* \"#utility.yul\":3099:3440   */\n      pop\n        /* \"#utility.yul\":3015:3440   */\n      swap4\n      swap3\n      pop\n      pop\n      pop\n      jump\t// out\n        /* \"#utility.yul\":3460:3800   */\n    tag_107:\n        /* \"#utility.yul\":3516:3521   */\n      0x00\n        /* \"#utility.yul\":3565:3568   */\n      dup3\n        /* \"#utility.yul\":3558:3562   */\n      0x1f\n        /* \"#utility.yul\":3550:3556   */\n      dup4\n        /* \"#utility.yul\":3546:3563   */\n      add\n        /* \"#utility.yul\":3542:3569   */\n      slt\n        /* \"#utility.yul\":3532:3654   */\n      tag_186\n      jumpi\n        /* \"#utility.yul\":3573:3652   */\n      tag_187\n      tag_98\n      jump\t// in\n    tag_187:\n        /* \"#utility.yul\":3532:3654   */\n    tag_186:\n        /* \"#utility.yul\":3690:3696   */\n      dup2\n        /* \"#utility.yul\":3677:3697   */\n      calldataload\n        /* \"#utility.yul\":3715:3794   */\n      tag_188\n        /* \"#utility.yul\":3790:3793   */\n      dup5\n        /* \"#utility.yul\":3782:3788   */\n      dup3\n        /* \"#utility.yul\":3775:3779   */\n      0x20\n        /* \"#utility.yul\":3767:3773   */\n      dup7\n        /* \"#utility.yul\":3763:3780   */\n      add\n        /* \"#utility.yul\":3715:3794   */\n      tag_106\n      jump\t// in\n    tag_188:\n        /* \"#utility.yul\":3706:3794   */\n      swap2\n      pop\n        /* \"#utility.yul\":3522:3800   */\n      pop\n        /* \"#utility.yul\":3460:3800   */\n      swap3\n      swap2\n      pop\n      pop\n      jump\t// out\n        /* \"#utility.yul\":3806:4315   */\n    tag_30:\n        /* \"#utility.yul\":3875:3881   */\n      0x00\n        /* \"#utility.yul\":3924:3926   */\n      0x20\n        /* \"#utility.yul\":3912:3921   */\n      dup3\n        /* \"#utility.yul\":3903:3910   */\n      dup5\n        /* \"#utility.yul\":3899:3922   */\n      sub\n        /* \"#utility.yul\":3895:3927   */\n      slt\n        /* \"#utility.yul\":3892:4011   */\n      iszero\n      tag_190\n      jumpi\n        /* \"#utility.yul\":3930:4009   */\n      tag_191\n      tag_96\n      jump\t// in\n    tag_191:\n        /* \"#utility.yul\":3892:4011   */\n    tag_190:\n        /* \"#utility.yul\":4078:4079   */\n      0x00\n        /* \"#utility.yul\":4067:4076   */\n      dup3\n        /* \"#utility.yul\":4063:4080   */\n      add\n        /* \"#utility.yul\":4050:4081   */\n      calldataload\n        /* \"#utility.yul\":4108:4126   */\n      0xffffffffffffffff\n        /* \"#utility.yul\":4100:4106   */\n      dup2\n        /* \"#utility.yul\":4097:4127   */\n      gt\n        /* \"#utility.yul\":4094:4211   */\n      iszero\n      tag_192\n      jumpi\n        /* \"#utility.yul\":4130:4209   */\n      tag_193\n      tag_97\n      jump\t// in\n    tag_193:\n        /* \"#utility.yul\":4094:4211   */\n    tag_192:\n        /* \"#utility.yul\":4235:4298   */\n      tag_194\n        /* \"#utility.yul\":4290:4297   */\n      dup5\n        /* \"#utility.yul\":4281:4287   */\n      dup3\n        /* \"#utility.yul\":4270:4279   */\n      dup6\n        /* \"#utility.yul\":4266:4288   */\n      add\n        /* \"#utility.yul\":4235:4298   */\n      tag_107\n      jump\t// in\n    tag_194:\n        /* \"#utility.yul\":4225:4298   */\n      swap2\n      pop\n        /* \"#utility.yul\":4021:4308   */\n      pop\n        /* \"#utility.yul\":3806:4315   */\n      swap3\n      swap2\n      pop\n      pop\n      jump\t// out\n        /* \"#utility.yul\":4321:4447   */\n    tag_108:\n        /* \"#utility.yul\":4358:4365   */\n      0x00\n        /* \"#utility.yul\":4398:4440   */\n      0xffffffffffffffffffffffffffffffffffffffff\n        /* \"#utility.yul\":4391:4396   */\n      dup3\n        /* \"#utility.yul\":4387:4441   */\n      and\n        /* \"#utility.yul\":4376:4441   */\n      swap1\n      pop\n        /* \"#utility.yul\":4321:4447   */\n      swap2\n      swap1\n      pop\n      jump\t// out\n        /* \"#utility.yul\":4453:4549   */\n    tag_109:\n        /* \"#utility.yul\":4490:4497   */\n      0x00\n        /* \"#utility.yul\":4519:4543   */\n      tag_197\n        /* \"#utility.yul\":4537:4542   */\n      dup3\n        /* \"#utility.yul\":4519:4543   */\n      tag_108\n      jump\t// in\n    tag_197:\n        /* \"#utility.yul\":4508:4543   */\n      swap1\n      pop\n        /* \"#utility.yul\":4453:4549   */\n      swap2\n      swap1\n      pop\n      jump\t// out\n        /* \"#utility.yul\":4555:4673   */\n    tag_110:\n        /* \"#utility.yul\":4642:4666   */\n      tag_199\n        /* \"#utility.yul\":4660:4665   */\n      dup2\n        /* \"#utility.yul\":4642:4666   */\n      tag_109\n      jump\t// in\n    tag_199:\n        /* \"#utility.yul\":4637:4640   */\n      dup3\n        /* \"#utility.yul\":4630:4667   */\n      mstore\n        /* \"#utility.yul\":4555:4673   */\n      pop\n      pop\n      jump\t// out\n        /* \"#utility.yul\":4679:4901   */\n    tag_47:\n        /* \"#utility.yul\":4772:4776   */\n      0x00\n        /* \"#utility.yul\":4810:4812   */\n      0x20\n        /* \"#utility.yul\":4799:4808   */\n      dup3\n        /* \"#utility.yul\":4795:4813   */\n      add\n        /* \"#utility.yul\":4787:4813   */\n      swap1\n      pop\n        /* \"#utility.yul\":4823:4894   */\n      tag_201\n        /* \"#utility.yul\":4891:4892   */\n      0x00\n        /* \"#utility.yul\":4880:4889   */\n      dup4\n        /* \"#utility.yul\":4876:4893   */\n      add\n        /* \"#utility.yul\":4867:4873   */\n      dup5\n        /* \"#utility.yul\":4823:4894   */\n      tag_110\n      jump\t// in\n    tag_201:\n        /* \"#utility.yul\":4679:4901   */\n      swap3\n      swap2\n      pop\n      pop\n      jump\t// out\n        /* \"#utility.yul\":4907:5006   */\n    tag_111:\n        /* \"#utility.yul\":4959:4965   */\n      0x00\n        /* \"#utility.yul\":4993:4998   */\n      dup2\n        /* \"#utility.yul\":4987:4999   */\n      mload\n        /* \"#utility.yul\":4977:4999   */\n      swap1\n      pop\n        /* \"#utility.yul\":4907:5006   */\n      swap2\n      swap1\n      pop\n      jump\t// out\n        /* \"#utility.yul\":5012:5181   */\n    tag_112:\n        /* \"#utility.yul\":5096:5107   */\n      0x00\n        /* \"#utility.yul\":5130:5136   */\n      dup3\n        /* \"#utility.yul\":5125:5128   */\n      dup3\n        /* \"#utility.yul\":5118:5137   */\n      mstore\n        /* \"#utility.yul\":5170:5174   */\n      0x20\n        /* \"#utility.yul\":5165:5168   */\n      dup3\n        /* \"#utility.yul\":5161:5175   */\n      add\n        /* \"#utility.yul\":5146:5175   */\n      swap1\n      pop\n        /* \"#utility.yul\":5012:5181   */\n      swap3\n      swap2\n      pop\n      pop\n      jump\t// out\n        /* \"#utility.yul\":5187:5433   */\n    tag_113:\n        /* \"#utility.yul\":5268:5269   */\n      0x00\n        /* \"#utility.yul\":5278:5391   */\n    tag_205:\n        /* \"#utility.yul\":5292:5298   */\n      dup4\n        /* \"#utility.yul\":5289:5290   */\n      dup2\n        /* \"#utility.yul\":5286:5299   */\n      lt\n        /* \"#utility.yul\":5278:5391   */\n      iszero\n      tag_207\n      jumpi\n        /* \"#utility.yul\":5377:5378   */\n      dup1\n        /* \"#utility.yul\":5372:5375   */\n      dup3\n        /* \"#utility.yul\":5368:5379   */\n      add\n        /* \"#utility.yul\":5362:5380   */\n      mload\n        /* \"#utility.yul\":5358:5359   */\n      dup2\n        /* \"#utility.yul\":5353:5356   */\n      dup5\n        /* \"#utility.yul\":5349:5360   */\n      add\n        /* \"#utility.yul\":5342:5381   */\n      mstore\n        /* \"#utility.yul\":5314:5316   */\n      0x20\n        /* \"#utility.yul\":5311:5312   */\n      dup2\n        /* \"#utility.yul\":5307:5317   */\n      add\n        /* \"#utility.yul\":5302:5317   */\n      swap1\n      pop\n        /* \"#utility.yul\":5278:5391   */\n      jump(tag_205)\n    tag_207:\n        /* \"#utility.yul\":5425:5426   */\n      0x00\n        /* \"#utility.yul\":5416:5422   */\n      dup5\n        /* \"#utility.yul\":5411:5414   */\n      dup5\n        /* \"#utility.yul\":5407:5423   */\n      add\n        /* \"#utility.yul\":5400:5427   */\n      mstore\n        /* \"#utility.yul\":5249:5433   */\n      pop\n        /* \"#utility.yul\":5187:5433   */\n      pop\n      pop\n      pop\n      jump\t// out\n        /* \"#utility.yul\":5439:5816   */\n    tag_114:\n        /* \"#utility.yul\":5527:5530   */\n      0x00\n        /* \"#utility.yul\":5555:5594   */\n      tag_209\n        /* \"#utility.yul\":5588:5593   */\n      dup3\n        /* \"#utility.yul\":5555:5594   */\n      tag_111\n      jump\t// in\n    tag_209:\n        /* \"#utility.yul\":5610:5681   */\n      tag_210\n        /* \"#utility.yul\":5674:5680   */\n      dup2\n        /* \"#utility.yul\":5669:5672   */\n      dup6\n        /* \"#utility.yul\":5610:5681   */\n      tag_112\n      jump\t// in\n    tag_210:\n        /* \"#utility.yul\":5603:5681   */\n      swap4\n      pop\n        /* \"#utility.yul\":5690:5755   */\n      tag_211\n        /* \"#utility.yul\":5748:5754   */\n      dup2\n        /* \"#utility.yul\":5743:5746   */\n      dup6\n        /* \"#utility.yul\":5736:5740   */\n      0x20\n        /* \"#utility.yul\":5729:5734   */\n      dup7\n        /* \"#utility.yul\":5725:5741   */\n      add\n        /* \"#utility.yul\":5690:5755   */\n      tag_113\n      jump\t// in\n    tag_211:\n        /* \"#utility.yul\":5780:5809   */\n      tag_212\n        /* \"#utility.yul\":5802:5808   */\n      dup2\n        /* \"#utility.yul\":5780:5809   */\n      tag_100\n      jump\t// in\n    tag_212:\n        /* \"#utility.yul\":5775:5778   */\n      dup5\n        /* \"#utility.yul\":5771:5810   */\n      add\n        /* \"#utility.yul\":5764:5810   */\n      swap2\n      pop\n        /* \"#utility.yul\":5531:5816   */\n      pop\n        /* \"#utility.yul\":5439:5816   */\n      swap3\n      swap2\n      pop\n      pop\n      jump\t// out\n        /* \"#utility.yul\":5822:6135   */\n    tag_52:\n        /* \"#utility.yul\":5935:5939   */\n      0x00\n        /* \"#utility.yul\":5973:5975   */\n      0x20\n        /* \"#utility.yul\":5962:5971   */\n      dup3\n        /* \"#utility.yul\":5958:5976   */\n      add\n        /* \"#utility.yul\":5950:5976   */\n      swap1\n      pop\n        /* \"#utility.yul\":6022:6031   */\n      dup2\n        /* \"#utility.yul\":6016:6020   */\n      dup2\n        /* \"#utility.yul\":6012:6032   */\n      sub\n        /* \"#utility.yul\":6008:6009   */\n      0x00\n        /* \"#utility.yul\":5997:6006   */\n      dup4\n        /* \"#utility.yul\":5993:6010   */\n      add\n        /* \"#utility.yul\":5986:6033   */\n      mstore\n        /* \"#utility.yul\":6050:6128   */\n      tag_214\n        /* \"#utility.yul\":6123:6127   */\n      dup2\n        /* \"#utility.yul\":6114:6120   */\n      dup5\n        /* \"#utility.yul\":6050:6128   */\n      tag_114\n      jump\t// in\n    tag_214:\n        /* \"#utility.yul\":6042:6128   */\n      swap1\n      pop\n        /* \"#utility.yul\":5822:6135   */\n      swap3\n      swap2\n      pop\n      pop\n      jump\t// out\n        /* \"#utility.yul\":6141:6309   */\n    tag_115:\n        /* \"#utility.yul\":6281:6301   */\n      0x796f7520617265206e6f7420446d7974726f0000000000000000000000000000\n        /* \"#utility.yul\":6277:6278   */\n      0x00\n        /* \"#utility.yul\":6269:6275   */\n      dup3\n        /* \"#utility.yul\":6265:6279   */\n      add\n        /* \"#utility.yul\":6258:6302   */\n      mstore\n        /* \"#utility.yul\":6141:6309   */\n      pop\n      jump\t// out\n        /* \"#utility.yul\":6315:6681   */\n    tag_116:\n        /* \"#utility.yul\":6457:6460   */\n      0x00\n        /* \"#utility.yul\":6478:6545   */\n      tag_217\n        /* \"#utility.yul\":6542:6544   */\n      0x12\n        /* \"#utility.yul\":6537:6540   */\n      dup4\n        /* \"#utility.yul\":6478:6545   */\n      tag_112\n      jump\t// in\n    tag_217:\n        /* \"#utility.yul\":6471:6545   */\n      swap2\n      pop\n        /* \"#utility.yul\":6554:6647   */\n      tag_218\n        /* \"#utility.yul\":6643:6646   */\n      dup3\n        /* \"#utility.yul\":6554:6647   */\n      tag_115\n      jump\t// in\n    tag_218:\n        /* \"#utility.yul\":6672:6674   */\n      0x20\n        /* \"#utility.yul\":6667:6670   */\n      dup3\n        /* \"#utility.yul\":6663:6675   */\n      add\n        /* \"#utility.yul\":6656:6675   */\n      swap1\n      pop\n        /* \"#utility.yul\":6315:6681   */\n      swap2\n      swap1\n      pop\n      jump\t// out\n        /* \"#utility.yul\":6687:7106   */\n    tag_60:\n        /* \"#utility.yul\":6853:6857   */\n      0x00\n        /* \"#utility.yul\":6891:6893   */\n      0x20\n        /* \"#utility.yul\":6880:6889   */\n      dup3\n        /* \"#utility.yul\":6876:6894   */\n      add\n        /* \"#utility.yul\":6868:6894   */\n      swap1\n      pop\n        /* \"#utility.yul\":6940:6949   */\n      dup2\n        /* \"#utility.yul\":6934:6938   */\n      dup2\n        /* \"#utility.yul\":6930:6950   */\n      sub\n        /* \"#utility.yul\":6926:6927   */\n      0x00\n        /* \"#utility.yul\":6915:6924   */\n      dup4\n        /* \"#utility.yul\":6911:6928   */\n      add\n        /* \"#utility.yul\":6904:6951   */\n      mstore\n        /* \"#utility.yul\":6968:7099   */\n      tag_220\n        /* \"#utility.yul\":7094:7098   */\n      dup2\n        /* \"#utility.yul\":6968:7099   */\n      tag_116\n      jump\t// in\n    tag_220:\n        /* \"#utility.yul\":6960:7099   */\n      swap1\n      pop\n        /* \"#utility.yul\":6687:7106   */\n      swap2\n      swap1\n      pop\n      jump\t// out\n        /* \"#utility.yul\":7112:7276   */\n    tag_117:\n        /* \"#utility.yul\":7252:7268   */\n      0x706572696f642065787069726564000000000000000000000000000000000000\n        /* \"#utility.yul\":7248:7249   */\n      0x00\n        /* \"#utility.yul\":7240:7246   */\n      dup3\n        /* \"#utility.yul\":7236:7250   */\n      add\n        /* \"#utility.yul\":7229:7269   */\n      mstore\n        /* \"#utility.yul\":7112:7276   */\n      pop\n      jump\t// out\n        /* \"#utility.yul\":7282:7648   */\n    tag_118:\n        /* \"#utility.yul\":7424:7427   */\n      0x00\n        /* \"#utility.yul\":7445:7512   */\n      tag_223\n        /* \"#utility.yul\":7509:7511   */\n      0x0e\n        /* \"#utility.yul\":7504:7507   */\n      dup4\n        /* \"#utility.yul\":7445:7512   */\n      tag_112\n      jump\t// in\n    tag_223:\n        /* \"#utility.yul\":7438:7512   */\n      swap2\n      pop\n        /* \"#utility.yul\":7521:7614   */\n      tag_224\n        /* \"#utility.yul\":7610:7613   */\n      dup3\n        /* \"#utility.yul\":7521:7614   */\n      tag_117\n      jump\t// in\n    tag_224:\n        /* \"#utility.yul\":7639:7641   */\n      0x20\n        /* \"#utility.yul\":7634:7637   */\n      dup3\n        /* \"#utility.yul\":7630:7642   */\n      add\n        /* \"#utility.yul\":7623:7642   */\n      swap1\n      pop\n        /* \"#utility.yul\":7282:7648   */\n      swap2\n      swap1\n      pop\n      jump\t// out\n        /* \"#utility.yul\":7654:8073   */\n    tag_64:\n        /* \"#utility.yul\":7820:7824   */\n      0x00\n        /* \"#utility.yul\":7858:7860   */\n      0x20\n        /* \"#utility.yul\":7847:7856   */\n      dup3\n        /* \"#utility.yul\":7843:7861   */\n      add\n        /* \"#utility.yul\":7835:7861   */\n      swap1\n      pop\n        /* \"#utility.yul\":7907:7916   */\n      dup2\n        /* \"#utility.yul\":7901:7905   */\n      dup2\n        /* \"#utility.yul\":7897:7917   */\n      sub\n        /* \"#utility.yul\":7893:7894   */\n      0x00\n        /* \"#utility.yul\":7882:7891   */\n      dup4\n        /* \"#utility.yul\":7878:7895   */\n      add\n        /* \"#utility.yul\":7871:7918   */\n      mstore\n        /* \"#utility.yul\":7935:8066   */\n      tag_226\n        /* \"#utility.yul\":8061:8065   */\n      dup2\n        /* \"#utility.yul\":7935:8066   */\n      tag_118\n      jump\t// in\n    tag_226:\n        /* \"#utility.yul\":7927:8066   */\n      swap1\n      pop\n        /* \"#utility.yul\":7654:8073   */\n      swap2\n      swap1\n      pop\n      jump\t// out\n        /* \"#utility.yul\":8079:8227   */\n    tag_119:\n        /* \"#utility.yul\":8181:8192   */\n      0x00\n        /* \"#utility.yul\":8218:8221   */\n      dup2\n        /* \"#utility.yul\":8203:8221   */\n      swap1\n      pop\n        /* \"#utility.yul\":8079:8227   */\n      swap3\n      swap2\n      pop\n      pop\n      jump\t// out\n        /* \"#utility.yul\":8233:8623   */\n    tag_120:\n        /* \"#utility.yul\":8339:8342   */\n      0x00\n        /* \"#utility.yul\":8367:8406   */\n      tag_229\n        /* \"#utility.yul\":8400:8405   */\n      dup3\n        /* \"#utility.yul\":8367:8406   */\n      tag_111\n      jump\t// in\n    tag_229:\n        /* \"#utility.yul\":8422:8511   */\n      tag_230\n        /* \"#utility.yul\":8504:8510   */\n      dup2\n        /* \"#utility.yul\":8499:8502   */\n      dup6\n        /* \"#utility.yul\":8422:8511   */\n      tag_119\n      jump\t// in\n    tag_230:\n        /* \"#utility.yul\":8415:8511   */\n      swap4\n      pop\n        /* \"#utility.yul\":8520:8585   */\n      tag_231\n        /* \"#utility.yul\":8578:8584   */\n      dup2\n        /* \"#utility.yul\":8573:8576   */\n      dup6\n        /* \"#utility.yul\":8566:8570   */\n      0x20\n        /* \"#utility.yul\":8559:8564   */\n      dup7\n        /* \"#utility.yul\":8555:8571   */\n      add\n        /* \"#utility.yul\":8520:8585   */\n      tag_113\n      jump\t// in\n    tag_231:\n        /* \"#utility.yul\":8610:8616   */\n      dup1\n        /* \"#utility.yul\":8605:8608   */\n      dup5\n        /* \"#utility.yul\":8601:8617   */\n      add\n        /* \"#utility.yul\":8594:8617   */\n      swap2\n      pop\n        /* \"#utility.yul\":8343:8623   */\n      pop\n        /* \"#utility.yul\":8233:8623   */\n      swap3\n      swap2\n      pop\n      pop\n      jump\t// out\n        /* \"#utility.yul\":8629:8904   */\n    tag_66:\n        /* \"#utility.yul\":8761:8764   */\n      0x00\n        /* \"#utility.yul\":8783:8878   */\n      tag_233\n        /* \"#utility.yul\":8874:8877   */\n      dup3\n        /* \"#utility.yul\":8865:8871   */\n      dup5\n        /* \"#utility.yul\":8783:8878   */\n      tag_120\n      jump\t// in\n    tag_233:\n        /* \"#utility.yul\":8776:8878   */\n      swap2\n      pop\n        /* \"#utility.yul\":8895:8898   */\n      dup2\n        /* \"#utility.yul\":8888:8898   */\n      swap1\n      pop\n        /* \"#utility.yul\":8629:8904   */\n      swap3\n      swap2\n      pop\n      pop\n      jump\t// out\n        /* \"#utility.yul\":8910:9074   */\n    tag_121:\n        /* \"#utility.yul\":9050:9066   */\n      0x496e76616c696420736563726574000000000000000000000000000000000000\n        /* \"#utility.yul\":9046:9047   */\n      0x00\n        /* \"#utility.yul\":9038:9044   */\n      dup3\n        /* \"#utility.yul\":9034:9048   */\n      add\n        /* \"#utility.yul\":9027:9067   */\n      mstore\n        /* \"#utility.yul\":8910:9074   */\n      pop\n      jump\t// out\n        /* \"#utility.yul\":9080:9446   */\n    tag_122:\n        /* \"#utility.yul\":9222:9225   */\n      0x00\n        /* \"#utility.yul\":9243:9310   */\n      tag_236\n        /* \"#utility.yul\":9307:9309   */\n      0x0e\n        /* \"#utility.yul\":9302:9305   */\n      dup4\n        /* \"#utility.yul\":9243:9310   */\n      tag_112\n      jump\t// in\n    tag_236:\n        /* \"#utility.yul\":9236:9310   */\n      swap2\n      pop\n        /* \"#utility.yul\":9319:9412   */\n      tag_237\n        /* \"#utility.yul\":9408:9411   */\n      dup3\n        /* \"#utility.yul\":9319:9412   */\n      tag_121\n      jump\t// in\n    tag_237:\n        /* \"#utility.yul\":9437:9439   */\n      0x20\n        /* \"#utility.yul\":9432:9435   */\n      dup3\n        /* \"#utility.yul\":9428:9440   */\n      add\n        /* \"#utility.yul\":9421:9440   */\n      swap1\n      pop\n        /* \"#utility.yul\":9080:9446   */\n      swap2\n      swap1\n      pop\n      jump\t// out\n        /* \"#utility.yul\":9452:9871   */\n    tag_69:\n        /* \"#utility.yul\":9618:9622   */\n      0x00\n        /* \"#utility.yul\":9656:9658   */\n      0x20\n        /* \"#utility.yul\":9645:9654   */\n      dup3\n        /* \"#utility.yul\":9641:9659   */\n      add\n        /* \"#utility.yul\":9633:9659   */\n      swap1\n      pop\n        /* \"#utility.yul\":9705:9714   */\n      dup2\n        /* \"#utility.yul\":9699:9703   */\n      dup2\n        /* \"#utility.yul\":9695:9715   */\n      sub\n        /* \"#utility.yul\":9691:9692   */\n      0x00\n        /* \"#utility.yul\":9680:9689   */\n      dup4\n        /* \"#utility.yul\":9676:9693   */\n      add\n        /* \"#utility.yul\":9669:9716   */\n      mstore\n        /* \"#utility.yul\":9733:9864   */\n      tag_239\n        /* \"#utility.yul\":9859:9863   */\n      dup2\n        /* \"#utility.yul\":9733:9864   */\n      tag_122\n      jump\t// in\n    tag_239:\n        /* \"#utility.yul\":9725:9864   */\n      swap1\n      pop\n        /* \"#utility.yul\":9452:9871   */\n      swap2\n      swap1\n      pop\n      jump\t// out\n        /* \"#utility.yul\":9877:10057   */\n    tag_123:\n        /* \"#utility.yul\":9925:10002   */\n      0x4e487b7100000000000000000000000000000000000000000000000000000000\n        /* \"#utility.yul\":9922:9923   */\n      0x00\n        /* \"#utility.yul\":9915:10003   */\n      mstore\n        /* \"#utility.yul\":10022:10026   */\n      0x22\n        /* \"#utility.yul\":10019:10020   */\n      0x04\n        /* \"#utility.yul\":10012:10027   */\n      mstore\n        /* \"#utility.yul\":10046:10050   */\n      0x24\n        /* \"#utility.yul\":10043:10044   */\n      0x00\n        /* \"#utility.yul\":10036:10051   */\n      revert\n        /* \"#utility.yul\":10063:10383   */\n    tag_85:\n        /* \"#utility.yul\":10107:10113   */\n      0x00\n        /* \"#utility.yul\":10144:10145   */\n      0x02\n        /* \"#utility.yul\":10138:10142   */\n      dup3\n        /* \"#utility.yul\":10134:10146   */\n      div\n        /* \"#utility.yul\":10124:10146   */\n      swap1\n      pop\n        /* \"#utility.yul\":10191:10192   */\n      0x01\n        /* \"#utility.yul\":10185:10189   */\n      dup3\n        /* \"#utility.yul\":10181:10193   */\n      and\n        /* \"#utility.yul\":10212:10230   */\n      dup1\n        /* \"#utility.yul\":10202:10283   */\n      tag_242\n      jumpi\n        /* \"#utility.yul\":10268:10272   */\n      0x7f\n        /* \"#utility.yul\":10260:10266   */\n      dup3\n        /* \"#utility.yul\":10256:10273   */\n      and\n        /* \"#utility.yul\":10246:10273   */\n      swap2\n      pop\n        /* \"#utility.yul\":10202:10283   */\n    tag_242:\n        /* \"#utility.yul\":10330:10332   */\n      0x20\n        /* \"#utility.yul\":10322:10328   */\n      dup3\n        /* \"#utility.yul\":10319:10333   */\n      lt\n        /* \"#utility.yul\":10299:10317   */\n      dup2\n        /* \"#utility.yul\":10296:10334   */\n      sub\n        /* \"#utility.yul\":10293:10377   */\n      tag_243\n      jumpi\n        /* \"#utility.yul\":10349:10367   */\n      tag_244\n      tag_123\n      jump\t// in\n    tag_244:\n        /* \"#utility.yul\":10293:10377   */\n    tag_243:\n        /* \"#utility.yul\":10114:10383   */\n      pop\n        /* \"#utility.yul\":10063:10383   */\n      swap2\n      swap1\n      pop\n      jump\t// out\n        /* \"#utility.yul\":10389:10530   */\n    tag_124:\n        /* \"#utility.yul\":10438:10442   */\n      0x00\n        /* \"#utility.yul\":10461:10464   */\n      dup2\n        /* \"#utility.yul\":10453:10464   */\n      swap1\n      pop\n        /* \"#utility.yul\":10484:10487   */\n      dup2\n        /* \"#utility.yul\":10481:10482   */\n      0x00\n        /* \"#utility.yul\":10474:10488   */\n      mstore\n        /* \"#utility.yul\":10518:10522   */\n      0x20\n        /* \"#utility.yul\":10515:10516   */\n      0x00\n        /* \"#utility.yul\":10505:10523   */\n      keccak256\n        /* \"#utility.yul\":10497:10523   */\n      swap1\n      pop\n        /* \"#utility.yul\":10389:10530   */\n      swap2\n      swap1\n      pop\n      jump\t// out\n        /* \"#utility.yul\":10536:10629   */\n    tag_125:\n        /* \"#utility.yul\":10573:10579   */\n      0x00\n        /* \"#utility.yul\":10620:10622   */\n      0x20\n        /* \"#utility.yul\":10615:10617   */\n      0x1f\n        /* \"#utility.yul\":10608:10613   */\n      dup4\n        /* \"#utility.yul\":10604:10618   */\n      add\n        /* \"#utility.yul\":10600:10623   */\n      div\n        /* \"#utility.yul\":10590:10623   */\n      swap1\n      pop\n        /* \"#utility.yul\":10536:10629   */\n      swap2\n      swap1\n      pop\n      jump\t// out\n        /* \"#utility.yul\":10635:10742   */\n    tag_126:\n        /* \"#utility.yul\":10679:10687   */\n      0x00\n        /* \"#utility.yul\":10729:10734   */\n      dup3\n        /* \"#utility.yul\":10723:10727   */\n      dup3\n        /* \"#utility.yul\":10719:10735   */\n      shl\n        /* \"#utility.yul\":10698:10735   */\n      swap1\n      pop\n        /* \"#utility.yul\":10635:10742   */\n      swap3\n      swap2\n      pop\n      pop\n      jump\t// out\n        /* \"#utility.yul\":10748:11141   */\n    tag_127:\n        /* \"#utility.yul\":10817:10823   */\n      0x00\n        /* \"#utility.yul\":10867:10868   */\n      0x08\n        /* \"#utility.yul\":10855:10865   */\n      dup4\n        /* \"#utility.yul\":10851:10869   */\n      mul\n        /* \"#utility.yul\":10890:10987   */\n      tag_249\n        /* \"#utility.yul\":10920:10986   */\n      0xffffffffffffffffffffffffffffffffffffffffffffffffffffffffffffffff\n        /* \"#utility.yul\":10909:10918   */\n      dup3\n        /* \"#utility.yul\":10890:10987   */\n      tag_126\n      jump\t// in\n    tag_249:\n        /* \"#utility.yul\":11008:11047   */\n      tag_250\n        /* \"#utility.yul\":11038:11046   */\n      dup7\n        /* \"#utility.yul\":11027:11036   */\n      dup4\n        /* \"#utility.yul\":11008:11047   */\n      tag_126\n      jump\t// in\n    tag_250:\n        /* \"#utility.yul\":10996:11047   */\n      swap6\n      pop\n        /* \"#utility.yul\":11080:11084   */\n      dup1\n        /* \"#utility.yul\":11076:11085   */\n      not\n        /* \"#utility.yul\":11069:11074   */\n      dup5\n        /* \"#utility.yul\":11065:11086   */\n      and\n        /* \"#utility.yul\":11056:11086   */\n      swap4\n      pop\n        /* \"#utility.yul\":11129:11133   */\n      dup1\n        /* \"#utility.yul\":11119:11127   */\n      dup7\n        /* \"#utility.yul\":11115:11134   */\n      and\n        /* \"#utility.yul\":11108:11113   */\n      dup5\n        /* \"#utility.yul\":11105:11135   */\n      or\n        /* \"#utility.yul\":11095:11135   */\n      swap3\n      pop\n        /* \"#utility.yul\":10824:11141   */\n      pop\n      pop\n        /* \"#utility.yul\":10748:11141   */\n      swap4\n      swap3\n      pop\n      pop\n      pop\n      jump\t// out\n        /* \"#utility.yul\":11147:11207   */\n    tag_128:\n        /* \"#utility.yul\":11175:11178   */\n      0x00\n        /* \"#utility.yul\":11196:11201   */\n      dup2\n        /* \"#utility.yul\":11189:11201   */\n      swap1\n      pop\n        /* \"#utility.yul\":11147:11207   */\n      swap2\n      swap1\n      pop\n      jump\t// out\n        /* \"#utility.yul\":11213:11355   */\n    tag_129:\n        /* \"#utility.yul\":11263:11272   */\n      0x00\n        /* \"#utility.yul\":11296:11349   */\n      tag_253\n        /* \"#utility.yul\":11314:11348   */\n      tag_254\n        /* \"#utility.yul\":11323:11347   */\n      tag_255\n        /* \"#utility.yul\":11341:11346   */\n      dup5\n        /* \"#utility.yul\":11323:11347   */\n      tag_90\n      jump\t// in\n    tag_255:\n        /* \"#utility.yul\":11314:11348   */\n      tag_128\n      jump\t// in\n    tag_254:\n        /* \"#utility.yul\":11296:11349   */\n      tag_90\n      jump\t// in\n    tag_253:\n        /* \"#utility.yul\":11283:11349   */\n      swap1\n      pop\n        /* \"#utility.yul\":11213:11355   */\n      swap2\n      swap1\n      pop\n      jump\t// out\n        /* \"#utility.yul\":11361:11436   */\n    tag_130:\n        /* \"#utility.yul\":11404:11407   */\n      0x00\n        /* \"#utility.yul\":11425:11430   */\n      dup2\n        /* \"#utility.yul\":11418:11430   */\n      swap1\n      pop\n        /* \"#utility.yul\":11361:11436   */\n      swap2\n      swap1\n      pop\n      jump\t// out\n        /* \"#utility.yul\":11442:11711   */\n    tag_131:\n        /* \"#utility.yul\":11552:11591   */\n      tag_258\n        /* \"#utility.yul\":11583:11590   */\n      dup4\n        /* \"#utility.yul\":11552:11591   */\n      tag_129\n      jump\t// in\n    tag_258:\n        /* \"#utility.yul\":11613:11704   */\n      tag_259\n        /* \"#utility.yul\":11662:11703   */\n      tag_260\n        /* \"#utility.yul\":11686:11702   */\n      dup3\n        /* \"#utility.yul\":11662:11703   */\n      tag_130\n      jump\t// in\n    tag_260:\n        /* \"#utility.yul\":11654:11660   */\n      dup5\n        /* \"#utility.yul\":11647:11651   */\n      dup5\n        /* \"#utility.yul\":11641:11652   */\n      sload\n        /* \"#utility.yul\":11613:11704   */\n      tag_127\n      jump\t// in\n    tag_259:\n        /* \"#utility.yul\":11607:11611   */\n      dup3\n        /* \"#utility.yul\":11600:11705   */\n      sstore\n        /* \"#utility.yul\":11518:11711   */\n      pop\n        /* \"#utility.yul\":11442:11711   */\n      pop\n      pop\n      pop\n      jump\t// out\n        /* \"#utility.yul\":11717:11790   */\n    tag_132:\n        /* \"#utility.yul\":11762:11765   */\n      0x00\n        /* \"#utility.yul\":11717:11790   */\n      swap1\n      jump\t// out\n        /* \"#utility.yul\":11796:11985   */\n    tag_133:\n        /* \"#utility.yul\":11873:11905   */\n      tag_263\n      tag_132\n      jump\t// in\n    tag_263:\n        /* \"#utility.yul\":11914:11979   */\n      tag_264\n        /* \"#utility.yul\":11972:11978   */\n      dup2\n        /* \"#utility.yul\":11964:11970   */\n      dup5\n        /* \"#utility.yul\":11958:11962   */\n      dup5\n        /* \"#utility.yul\":11914:11979   */\n      tag_131\n      jump\t// in\n    tag_264:\n        /* \"#utility.yul\":11849:11985   */\n      pop\n        /* \"#utility.yul\":11796:11985   */\n      pop\n      pop\n      jump\t// out\n        /* \"#utility.yul\":11991:12177   */\n    tag_134:\n        /* \"#utility.yul\":12051:12171   */\n    tag_266:\n        /* \"#utility.yul\":12068:12071   */\n      dup2\n        /* \"#utility.yul\":12061:12066   */\n      dup2\n        /* \"#utility.yul\":12058:12072   */\n      lt\n        /* \"#utility.yul\":12051:12171   */\n      iszero\n      tag_268\n      jumpi\n        /* \"#utility.yul\":12122:12161   */\n      tag_269\n        /* \"#utility.yul\":12159:12160   */\n      0x00\n        /* \"#utility.yul\":12152:12157   */\n      dup3\n        /* \"#utility.yul\":12122:12161   */\n      tag_133\n      jump\t// in\n    tag_269:\n        /* \"#utility.yul\":12095:12096   */\n      0x01\n        /* \"#utility.yul\":12088:12093   */\n      dup2\n        /* \"#utility.yul\":12084:12097   */\n      add\n        /* \"#utility.yul\":12075:12097   */\n      swap1\n      pop\n        /* \"#utility.yul\":12051:12171   */\n      jump(tag_266)\n    tag_268:\n        /* \"#utility.yul\":11991:12177   */\n      pop\n      pop\n      jump\t// out\n        /* \"#utility.yul\":12183:12726   */\n    tag_135:\n        /* \"#utility.yul\":12284:12286   */\n      0x1f\n        /* \"#utility.yul\":12279:12282   */\n      dup3\n        /* \"#utility.yul\":12276:12287   */\n      gt\n        /* \"#utility.yul\":12273:12719   */\n      iszero\n      tag_271\n      jumpi\n        /* \"#utility.yul\":12318:12356   */\n      tag_272\n        /* \"#utility.yul\":12350:12355   */\n      dup2\n        /* \"#utility.yul\":12318:12356   */\n      tag_124\n      jump\t// in\n    tag_272:\n        /* \"#utility.yul\":12402:12431   */\n      tag_273\n        /* \"#utility.yul\":12420:12430   */\n      dup5\n        /* \"#utility.yul\":12402:12431   */\n      tag_125\n      jump\t// in\n    tag_273:\n        /* \"#utility.yul\":12392:12400   */\n      dup2\n        /* \"#utility.yul\":12388:12432   */\n      add\n        /* \"#utility.yul\":12585:12587   */\n      0x20\n        /* \"#utility.yul\":12573:12583   */\n      dup6\n        /* \"#utility.yul\":12570:12588   */\n      lt\n        /* \"#utility.yul\":12567:12616   */\n      iszero\n      tag_274\n      jumpi\n        /* \"#utility.yul\":12606:12614   */\n      dup2\n        /* \"#utility.yul\":12591:12614   */\n      swap1\n      pop\n        /* \"#utility.yul\":12567:12616   */\n    tag_274:\n        /* \"#utility.yul\":12629:12709   */\n      tag_275\n        /* \"#utility.yul\":12685:12707   */\n      tag_276\n        /* \"#utility.yul\":12703:12706   */\n      dup6\n        /* \"#utility.yul\":12685:12707   */\n      tag_125\n      jump\t// in\n    tag_276:\n        /* \"#utility.yul\":12675:12683   */\n      dup4\n        /* \"#utility.yul\":12671:12708   */\n      add\n        /* \"#utility.yul\":12658:12669   */\n      dup3\n        /* \"#utility.yul\":12629:12709   */\n      tag_134\n      jump\t// in\n    tag_275:\n        /* \"#utility.yul\":12288:12719   */\n      pop\n      pop\n        /* \"#utility.yul\":12273:12719   */\n    tag_271:\n        /* \"#utility.yul\":12183:12726   */\n      pop\n      pop\n      pop\n      jump\t// out\n        /* \"#utility.yul\":12732:12849   */\n    tag_136:\n        /* \"#utility.yul\":12786:12794   */\n      0x00\n        /* \"#utility.yul\":12836:12841   */\n      dup3\n        /* \"#utility.yul\":12830:12834   */\n      dup3\n        /* \"#utility.yul\":12826:12842   */\n      shr\n        /* \"#utility.yul\":12805:12842   */\n      swap1\n      pop\n        /* \"#utility.yul\":12732:12849   */\n      swap3\n      swap2\n      pop\n      pop\n      jump\t// out\n        /* \"#utility.yul\":12855:13024   */\n    tag_137:\n        /* \"#utility.yul\":12899:12905   */\n      0x00\n        /* \"#utility.yul\":12932:12983   */\n      tag_279\n        /* \"#utility.yul\":12980:12981   */\n      0x00\n        /* \"#utility.yul\":12976:12982   */\n      not\n        /* \"#utility.yul\":12968:12973   */\n      dup5\n        /* \"#utility.yul\":12965:12966   */\n      0x08\n        /* \"#utility.yul\":12961:12974   */\n      mul\n        /* \"#utility.yul\":12932:12983   */\n      tag_136\n      jump\t// in\n    tag_279:\n        /* \"#utility.yul\":12928:12984   */\n      not\n        /* \"#utility.yul\":13013:13017   */\n      dup1\n        /* \"#utility.yul\":13007:13011   */\n      dup4\n        /* \"#utility.yul\":13003:13018   */\n      and\n        /* \"#utility.yul\":12993:13018   */\n      swap2\n      pop\n        /* \"#utility.yul\":12906:13024   */\n      pop\n        /* \"#utility.yul\":12855:13024   */\n      swap3\n      swap2\n      pop\n      pop\n      jump\t// out\n        /* \"#utility.yul\":13029:13324   */\n    tag_138:\n        /* \"#utility.yul\":13105:13109   */\n      0x00\n        /* \"#utility.yul\":13251:13280   */\n      tag_281\n        /* \"#utility.yul\":13276:13279   */\n      dup4\n        /* \"#utility.yul\":13270:13274   */\n      dup4\n        /* \"#utility.yul\":13251:13280   */\n      tag_137\n      jump\t// in\n    tag_281:\n        /* \"#utility.yul\":13243:13280   */\n      swap2\n      pop\n        /* \"#utility.yul\":13313:13316   */\n      dup3\n        /* \"#utility.yul\":13310:13311   */\n      0x02\n        /* \"#utility.yul\":13306:13317   */\n      mul\n        /* \"#utility.yul\":13300:13304   */\n      dup3\n        /* \"#utility.yul\":13297:13318   */\n      or\n        /* \"#utility.yul\":13289:13318   */\n      swap1\n      pop\n        /* \"#utility.yul\":13029:13324   */\n      swap3\n      swap2\n      pop\n      pop\n      jump\t// out\n        /* \"#utility.yul\":13329:14724   */\n    tag_73:\n        /* \"#utility.yul\":13446:13483   */\n      tag_283\n        /* \"#utility.yul\":13479:13482   */\n      dup3\n        /* \"#utility.yul\":13446:13483   */\n      tag_111\n      jump\t// in\n    tag_283:\n        /* \"#utility.yul\":13548:13566   */\n      0xffffffffffffffff\n        /* \"#utility.yul\":13540:13546   */\n      dup2\n        /* \"#utility.yul\":13537:13567   */\n      gt\n        /* \"#utility.yul\":13534:13590   */\n      iszero\n      tag_284\n      jumpi\n        /* \"#utility.yul\":13570:13588   */\n      tag_285\n      tag_101\n      jump\t// in\n    tag_285:\n        /* \"#utility.yul\":13534:13590   */\n    tag_284:\n        /* \"#utility.yul\":13614:13652   */\n      tag_286\n        /* \"#utility.yul\":13646:13650   */\n      dup3\n        /* \"#utility.yul\":13640:13651   */\n      sload\n        /* \"#utility.yul\":13614:13652   */\n      tag_85\n      jump\t// in\n    tag_286:\n        /* \"#utility.yul\":13699:13766   */\n      tag_287\n        /* \"#utility.yul\":13759:13765   */\n      dup3\n        /* \"#utility.yul\":13751:13757   */\n      dup3\n        /* \"#utility.yul\":13745:13749   */\n      dup6\n        /* \"#utility.yul\":13699:13766   */\n      tag_135\n      jump\t// in\n    tag_287:\n        /* \"#utility.yul\":13793:13794   */\n      0x00\n        /* \"#utility.yul\":13817:13821   */\n      0x20\n        /* \"#utility.yul\":13804:13821   */\n      swap1\n      pop\n        /* \"#utility.yul\":13849:13851   */\n      0x1f\n        /* \"#utility.yul\":13841:13847   */\n      dup4\n        /* \"#utility.yul\":13838:13852   */\n      gt\n        /* \"#utility.yul\":13866:13867   */\n      0x01\n        /* \"#utility.yul\":13861:14479   */\n      dup2\n      eq\n      tag_289\n      jumpi\n        /* \"#utility.yul\":14523:14524   */\n      0x00\n        /* \"#utility.yul\":14540:14546   */\n      dup5\n        /* \"#utility.yul\":14537:14614   */\n      iszero\n      tag_290\n      jumpi\n        /* \"#utility.yul\":14589:14598   */\n      dup3\n        /* \"#utility.yul\":14584:14587   */\n      dup8\n        /* \"#utility.yul\":14580:14599   */\n      add\n        /* \"#utility.yul\":14574:14600   */\n      mload\n        /* \"#utility.yul\":14565:14600   */\n      swap1\n      pop\n        /* \"#utility.yul\":14537:14614   */\n    tag_290:\n        /* \"#utility.yul\":14640:14707   */\n      tag_291\n        /* \"#utility.yul\":14700:14706   */\n      dup6\n        /* \"#utility.yul\":14693:14698   */\n      dup3\n        /* \"#utility.yul\":14640:14707   */\n      tag_138\n      jump\t// in\n    tag_291:\n        /* \"#utility.yul\":14634:14638   */\n      dup7\n        /* \"#utility.yul\":14627:14708   */\n      sstore\n        /* \"#utility.yul\":14496:14718   */\n      pop\n        /* \"#utility.yul\":13831:14718   */\n      jump(tag_288)\n        /* \"#utility.yul\":13861:14479   */\n    tag_289:\n        /* \"#utility.yul\":13913:13917   */\n      0x1f\n        /* \"#utility.yul\":13909:13918   */\n      not\n        /* \"#utility.yul\":13901:13907   */\n      dup5\n        /* \"#utility.yul\":13897:13919   */\n      and\n        /* \"#utility.yul\":13947:13984   */\n      tag_292\n        /* \"#utility.yul\":13979:13983   */\n      dup7\n        /* \"#utility.yul\":13947:13984   */\n      tag_124\n      jump\t// in\n    tag_292:\n        /* \"#utility.yul\":14006:14007   */\n      0x00\n        /* \"#utility.yul\":14020:14228   */\n    tag_293:\n        /* \"#utility.yul\":14034:14041   */\n      dup3\n        /* \"#utility.yul\":14031:14032   */\n      dup2\n        /* \"#utility.yul\":14028:14042   */\n      lt\n        /* \"#utility.yul\":14020:14228   */\n      iszero\n      tag_295\n      jumpi\n        /* \"#utility.yul\":14113:14122   */\n      dup5\n        /* \"#utility.yul\":14108:14111   */\n      dup10\n        /* \"#utility.yul\":14104:14123   */\n      add\n        /* \"#utility.yul\":14098:14124   */\n      mload\n        /* \"#utility.yul\":14090:14096   */\n      dup3\n        /* \"#utility.yul\":14083:14125   */\n      sstore\n        /* \"#utility.yul\":14164:14165   */\n      0x01\n        /* \"#utility.yul\":14156:14162   */\n      dup3\n        /* \"#utility.yul\":14152:14166   */\n      add\n        /* \"#utility.yul\":14142:14166   */\n      swap2\n      pop\n        /* \"#utility.yul\":14211:14213   */\n      0x20\n        /* \"#utility.yul\":14200:14209   */\n      dup6\n        /* \"#utility.yul\":14196:14214   */\n      add\n        /* \"#utility.yul\":14183:14214   */\n      swap5\n      pop\n        /* \"#utility.yul\":14057:14061   */\n      0x20\n        /* \"#utility.yul\":14054:14055   */\n      dup2\n        /* \"#utility.yul\":14050:14062   */\n      add\n        /* \"#utility.yul\":14045:14062   */\n      swap1\n      pop\n        /* \"#utility.yul\":14020:14228   */\n      jump(tag_293)\n    tag_295:\n        /* \"#utility.yul\":14256:14262   */\n      dup7\n        /* \"#utility.yul\":14247:14254   */\n      dup4\n        /* \"#utility.yul\":14244:14263   */\n      lt\n        /* \"#utility.yul\":14241:14420   */\n      iszero\n      tag_296\n      jumpi\n        /* \"#utility.yul\":14314:14323   */\n      dup5\n        /* \"#utility.yul\":14309:14312   */\n      dup10\n        /* \"#utility.yul\":14305:14324   */\n      add\n        /* \"#utility.yul\":14299:14325   */\n      mload\n        /* \"#utility.yul\":14357:14405   */\n      tag_297\n        /* \"#utility.yul\":14399:14403   */\n      0x1f\n        /* \"#utility.yul\":14391:14397   */\n      dup10\n        /* \"#utility.yul\":14387:14404   */\n      and\n        /* \"#utility.yul\":14376:14385   */\n      dup3\n        /* \"#utility.yul\":14357:14405   */\n      tag_137\n      jump\t// in\n    tag_297:\n        /* \"#utility.yul\":14349:14355   */\n      dup4\n        /* \"#utility.yul\":14342:14406   */\n      sstore\n        /* \"#utility.yul\":14264:14420   */\n      pop\n        /* \"#utility.yul\":14241:14420   */\n    tag_296:\n        /* \"#utility.yul\":14466:14467   */\n      0x01\n        /* \"#utility.yul\":14462:14463   */\n      0x02\n        /* \"#utility.yul\":14454:14460   */\n      dup9\n        /* \"#utility.yul\":14450:14464   */\n      mul\n        /* \"#utility.yul\":14446:14468   */\n      add\n        /* \"#utility.yul\":14440:14444   */\n      dup9\n        /* \"#utility.yul\":14433:14469   */\n      sstore\n        /* \"#utility.yul\":13868:14479   */\n      pop\n      pop\n      pop\n        /* \"#utility.yul\":13831:14718   */\n    tag_288:\n      pop\n        /* \"#utility.yul\":13421:14724   */\n      pop\n      pop\n      pop\n        /* \"#utility.yul\":13329:14724   */\n      pop\n      pop\n      jump\t// out\n        /* \"#utility.yul\":14730:14897   */\n    tag_139:\n        /* \"#utility.yul\":14870:14889   */\n      0x796f7520617265206e6f7420506574726f000000000000000000000000000000\n        /* \"#utility.yul\":14866:14867   */\n      0x00\n        /* \"#utility.yul\":14858:14864   */\n      dup3\n        /* \"#utility.yul\":14854:14868   */\n      add\n        /* \"#utility.yul\":14847:14890   */\n      mstore\n        /* \"#utility.yul\":14730:14897   */\n      pop\n      jump\t// out\n        /* \"#utility.yul\":14903:15269   */\n    tag_140:\n        /* \"#utility.yul\":15045:15048   */\n      0x00\n        /* \"#utility.yul\":15066:15133   */\n      tag_300\n        /* \"#utility.yul\":15130:15132   */\n      0x11\n        /* \"#utility.yul\":15125:15128   */\n      dup4\n        /* \"#utility.yul\":15066:15133   */\n      tag_112\n      jump\t// in\n    tag_300:\n        /* \"#utility.yul\":15059:15133   */\n      swap2\n      pop\n        /* \"#utility.yul\":15142:15235   */\n      tag_301\n        /* \"#utility.yul\":15231:15234   */\n      dup3\n        /* \"#utility.yul\":15142:15235   */\n      tag_139\n      jump\t// in\n    tag_301:\n        /* \"#utility.yul\":15260:15262   */\n      0x20\n        /* \"#utility.yul\":15255:15258   */\n      dup3\n        /* \"#utility.yul\":15251:15263   */\n      add\n        /* \"#utility.yul\":15244:15263   */\n      swap1\n      pop\n        /* \"#utility.yul\":14903:15269   */\n      swap2\n      swap1\n      pop\n      jump\t// out\n        /* \"#utility.yul\":15275:15694   */\n    tag_77:\n        /* \"#utility.yul\":15441:15445   */\n      0x00\n        /* \"#utility.yul\":15479:15481   */\n      0x20\n        /* \"#utility.yul\":15468:15477   */\n      dup3\n        /* \"#utility.yul\":15464:15482   */\n      add\n        /* \"#utility.yul\":15456:15482   */\n      swap1\n      pop\n        /* \"#utility.yul\":15528:15537   */\n      dup2\n        /* \"#utility.yul\":15522:15526   */\n      dup2\n        /* \"#utility.yul\":15518:15538   */\n      sub\n        /* \"#utility.yul\":15514:15515   */\n      0x00\n        /* \"#utility.yul\":15503:15512   */\n      dup4\n        /* \"#utility.yul\":15499:15516   */\n      add\n        /* \"#utility.yul\":15492:15539   */\n      mstore\n        /* \"#utility.yul\":15556:15687   */\n      tag_303\n        /* \"#utility.yul\":15682:15686   */\n      dup2\n        /* \"#utility.yul\":15556:15687   */\n      tag_140\n      jump\t// in\n    tag_303:\n        /* \"#utility.yul\":15548:15687   */\n      swap1\n      pop\n        /* \"#utility.yul\":15275:15694   */\n      swap2\n      swap1\n      pop\n      jump\t// out\n        /* \"#utility.yul\":15700:15868   */\n    tag_141:\n        /* \"#utility.yul\":15840:15860   */\n      0x6974206973206e6f742074696d65207965740000000000000000000000000000\n        /* \"#utility.yul\":15836:15837   */\n      0x00\n        /* \"#utility.yul\":15828:15834   */\n      dup3\n        /* \"#utility.yul\":15824:15838   */\n      add\n        /* \"#utility.yul\":15817:15861   */\n      mstore\n        /* \"#utility.yul\":15700:15868   */\n      pop\n      jump\t// out\n        /* \"#utility.yul\":15874:16240   */\n    tag_142:\n        /* \"#utility.yul\":16016:16019   */\n      0x00\n        /* \"#utility.yul\":16037:16104   */\n      tag_306\n        /* \"#utility.yul\":16101:16103   */\n      0x12\n        /* \"#utility.yul\":16096:16099   */\n      dup4\n        /* \"#utility.yul\":16037:16104   */\n      tag_112\n      jump\t// in\n    tag_306:\n        /* \"#utility.yul\":16030:16104   */\n      swap2\n      pop\n        /* \"#utility.yul\":16113:16206   */\n      tag_307\n        /* \"#utility.yul\":16202:16205   */\n      dup3\n        /* \"#utility.yul\":16113:16206   */\n      tag_141\n      jump\t// in\n    tag_307:\n        /* \"#utility.yul\":16231:16233   */\n      0x20\n        /* \"#utility.yul\":16226:16229   */\n      dup3\n        /* \"#utility.yul\":16222:16234   */\n      add\n        /* \"#utility.yul\":16215:16234   */\n      swap1\n      pop\n        /* \"#utility.yul\":15874:16240   */\n      swap2\n      swap1\n      pop\n      jump\t// out\n        /* \"#utility.yul\":16246:16665   */\n    tag_81:\n        /* \"#utility.yul\":16412:16416   */\n      0x00\n        /* \"#utility.yul\":16450:16452   */\n      0x20\n        /* \"#utility.yul\":16439:16448   */\n      dup3\n        /* \"#utility.yul\":16435:16453   */\n      add\n        /* \"#utility.yul\":16427:16453   */\n      swap1\n      pop\n        /* \"#utility.yul\":16499:16508   */\n      dup2\n        /* \"#utility.yul\":16493:16497   */\n      dup2\n        /* \"#utility.yul\":16489:16509   */\n      sub\n        /* \"#utility.yul\":16485:16486   */\n      0x00\n        /* \"#utility.yul\":16474:16483   */\n      dup4\n        /* \"#utility.yul\":16470:16487   */\n      add\n        /* \"#utility.yul\":16463:16510   */\n      mstore\n        /* \"#utility.yul\":16527:16658   */\n      tag_309\n        /* \"#utility.yul\":16653:16657   */\n      dup2\n        /* \"#utility.yul\":16527:16658   */\n      tag_142\n      jump\t// in\n    tag_309:\n        /* \"#utility.yul\":16519:16658   */\n      swap1\n      pop\n        /* \"#utility.yul\":16246:16665   */\n      swap2\n      swap1\n      pop\n      jump\t// out\n\n    auxdata: 0xa2646970667358221220557aa59a169669cf70d6fac97a309cb18b9708451b0f4d54705ecb71f99b82ab64736f6c63430008110033\n}\n",
				"bytecode": {
					"linkReferences": {},
					"object": "6080604052670de0b6b3a764000060005561a8c06001553480156200002357600080fd5b50604051620010c5380380620010c583398181016040528101906200004991906200017f565b33600460006101000a81548173ffffffffffffffffffffffffffffffffffffffff021916908373ffffffffffffffffffffffffffffffffffffffff16021790555081600560006101000a81548173ffffffffffffffffffffffffffffffffffffffff021916908373ffffffffffffffffffffffffffffffffffffffff160217905550806003819055505050620001c6565b600080fd5b600073ffffffffffffffffffffffffffffffffffffffff82169050919050565b60006200010c82620000df565b9050919050565b6200011e81620000ff565b81146200012a57600080fd5b50565b6000815190506200013e8162000113565b92915050565b6000819050919050565b620001598162000144565b81146200016557600080fd5b50565b60008151905062000179816200014e565b92915050565b60008060408385031215620001995762000198620000da565b5b6000620001a9858286016200012d565b9250506020620001bc8582860162000168565b9150509250929050565b610eef80620001d66000396000f3fe60806040526004361061008a5760003560e01c80635b889ab8116100595780635b889ab81461013f5780638bfafd8b1461016a578063ae4af21714610195578063d1efd30d146101c0578063da1d55e1146101eb576100a4565b806309bd5a60146100a95780630d668087146100d457806331fb67c2146100ff578063590e1ae314610128576100a4565b366100a4576001544261009d919061063a565b6006819055005b600080fd5b3480156100b557600080fd5b506100be610216565b6040516100cb9190610687565b60405180910390f35b3480156100e057600080fd5b506100e961021c565b6040516100f691906106b1565b60405180910390f35b34801561010b57600080fd5b5061012660048036038101906101219190610826565b610222565b005b34801561013457600080fd5b5061013d6103dc565b005b34801561014b57600080fd5b5061015461051b565b60405161016191906106b1565b60405180910390f35b34801561017657600080fd5b5061017f610521565b60405161018c91906106b1565b60405180910390f35b3480156101a157600080fd5b506101aa610527565b6040516101b791906108b0565b60405180910390f35b3480156101cc57600080fd5b506101d561054d565b6040516101e2919061094a565b60405180910390f35b3480156101f757600080fd5b506102006105db565b60405161020d91906108b0565b60405180910390f35b60035481565b60015481565b600560009054906101000a900473ffffffffffffffffffffffffffffffffffffffff1673ffffffffffffffffffffffffffffffffffffffff163373ffffffffffffffffffffffffffffffffffffffff16146102b2576040517f08c379a00000000000000000000000000000000000000000000000000000000081526004016102a9906109b8565b60405180910390fd5b60065442106102f6576040517f08c379a00000000000000000000000000000000000000000000000000000000081526004016102ed90610a24565b60405180910390fd5b6003548160405160200161030a9190610a80565b6040516020818303038152906040528051906020012014610360576040517f08c379a000000000000000000000000000000000000000000000000000000000815260040161035790610ae3565b60405180910390fd5b600560009054906101000a900473ffffffffffffffffffffffffffffffffffffffff1673ffffffffffffffffffffffffffffffffffffffff166108fc479081150290604051600060405180830381858888f193505050501580156103c8573d6000803e3d6000fd5b5080600290816103d89190610d0f565b5050565b600460009054906101000a900473ffffffffffffffffffffffffffffffffffffffff1673ffffffffffffffffffffffffffffffffffffffff163373ffffffffffffffffffffffffffffffffffffffff161461046c576040517f08c379a000000000000000000000000000000000000000000000000000000000815260040161046390610e2d565b60405180910390fd5b60065442116104b0576040517f08c379a00000000000000000000000000000000000000000000000000000000081526004016104a790610e99565b60405180910390fd5b600560009054906101000a900473ffffffffffffffffffffffffffffffffffffffff1673ffffffffffffffffffffffffffffffffffffffff166108fc479081150290604051600060405180830381858888f19350505050158015610518573d6000803e3d6000fd5b50565b60005481565b60065481565b600560009054906101000a900473ffffffffffffffffffffffffffffffffffffffff1681565b6002805461055a90610b32565b80601f016020809104026020016040519081016040528092919081815260200182805461058690610b32565b80156105d35780601f106105a8576101008083540402835291602001916105d3565b820191906000526020600020905b8154815290600101906020018083116105b657829003601f168201915b505050505081565b600460009054906101000a900473ffffffffffffffffffffffffffffffffffffffff1681565b6000819050919050565b7f4e487b7100000000000000000000000000000000000000000000000000000000600052601160045260246000fd5b600061064582610601565b915061065083610601565b92508282019050808211156106685761066761060b565b5b92915050565b6000819050919050565b6106818161066e565b82525050565b600060208201905061069c6000830184610678565b92915050565b6106ab81610601565b82525050565b60006020820190506106c660008301846106a2565b92915050565b6000604051905090565b600080fd5b600080fd5b600080fd5b600080fd5b6000601f19601f8301169050919050565b7f4e487b7100000000000000000000000000000000000000000000000000000000600052604160045260246000fd5b610733826106ea565b810181811067ffffffffffffffff82111715610752576107516106fb565b5b80604052505050565b60006107656106cc565b9050610771828261072a565b919050565b600067ffffffffffffffff821115610791576107906106fb565b5b61079a826106ea565b9050602081019050919050565b82818337600083830152505050565b60006107c96107c484610776565b61075b565b9050828152602081018484840111156107e5576107e46106e5565b5b6107f08482856107a7565b509392505050565b600082601f83011261080d5761080c6106e0565b5b813561081d8482602086016107b6565b91505092915050565b60006020828403121561083c5761083b6106d6565b5b600082013567ffffffffffffffff81111561085a576108596106db565b5b610866848285016107f8565b91505092915050565b600073ffffffffffffffffffffffffffffffffffffffff82169050919050565b600061089a8261086f565b9050919050565b6108aa8161088f565b82525050565b60006020820190506108c560008301846108a1565b92915050565b600081519050919050565b600082825260208201905092915050565b60005b838110156109055780820151818401526020810190506108ea565b60008484015250505050565b600061091c826108cb565b61092681856108d6565b93506109368185602086016108e7565b61093f816106ea565b840191505092915050565b600060208201905081810360008301526109648184610911565b905092915050565b7f796f7520617265206e6f7420446d7974726f0000000000000000000000000000600082015250565b60006109a26012836108d6565b91506109ad8261096c565b602082019050919050565b600060208201905081810360008301526109d181610995565b9050919050565b7f706572696f642065787069726564000000000000000000000000000000000000600082015250565b6000610a0e600e836108d6565b9150610a19826109d8565b602082019050919050565b60006020820190508181036000830152610a3d81610a01565b9050919050565b600081905092915050565b6000610a5a826108cb565b610a648185610a44565b9350610a748185602086016108e7565b80840191505092915050565b6000610a8c8284610a4f565b915081905092915050565b7f496e76616c696420736563726574000000000000000000000000000000000000600082015250565b6000610acd600e836108d6565b9150610ad882610a97565b602082019050919050565b60006020820190508181036000830152610afc81610ac0565b9050919050565b7f4e487b7100000000000000000000000000000000000000000000000000000000600052602260045260246000fd5b60006002820490506001821680610b4a57607f821691505b602082108103610b5d57610b5c610b03565b5b50919050565b60008190508160005260206000209050919050565b60006020601f8301049050919050565b600082821b905092915050565b600060088302610bc57fffffffffffffffffffffffffffffffffffffffffffffffffffffffffffffffff82610b88565b610bcf8683610b88565b95508019841693508086168417925050509392505050565b6000819050919050565b6000610c0c610c07610c0284610601565b610be7565b610601565b9050919050565b6000819050919050565b610c2683610bf1565b610c3a610c3282610c13565b848454610b95565b825550505050565b600090565b610c4f610c42565b610c5a818484610c1d565b505050565b5b81811015610c7e57610c73600082610c47565b600181019050610c60565b5050565b601f821115610cc357610c9481610b63565b610c9d84610b78565b81016020851015610cac578190505b610cc0610cb885610b78565b830182610c5f565b50505b505050565b600082821c905092915050565b6000610ce660001984600802610cc8565b1980831691505092915050565b6000610cff8383610cd5565b9150826002028217905092915050565b610d18826108cb565b67ffffffffffffffff811115610d3157610d306106fb565b5b610d3b8254610b32565b610d46828285610c82565b600060209050601f831160018114610d795760008415610d67578287015190505b610d718582610cf3565b865550610dd9565b601f198416610d8786610b63565b60005b82811015610daf57848901518255600182019150602085019450602081019050610d8a565b86831015610dcc5784890151610dc8601f891682610cd5565b8355505b6001600288020188555050505b505050505050565b7f796f7520617265206e6f7420506574726f000000000000000000000000000000600082015250565b6000610e176011836108d6565b9150610e2282610de1565b602082019050919050565b60006020820190508181036000830152610e4681610e0a565b9050919050565b7f6974206973206e6f742074696d65207965740000000000000000000000000000600082015250565b6000610e836012836108d6565b9150610e8e82610e4d565b602082019050919050565b60006020820190508181036000830152610eb281610e76565b905091905056fea2646970667358221220557aa59a169669cf70d6fac97a309cb18b9708451b0f4d54705ecb71f99b82ab64736f6c63430008110033",
					"opcodes": "PUSH1 0x80 PUSH1 0x40 MSTORE PUSH8 0xDE0B6B3A7640000 PUSH1 0x0 SSTORE PUSH2 0xA8C0 PUSH1 0x1 SSTORE CALLVALUE DUP1 ISZERO PUSH3 0x23 JUMPI PUSH1 0x0 DUP1 REVERT JUMPDEST POP PUSH1 0x40 MLOAD PUSH3 0x10C5 CODESIZE SUB DUP1 PUSH3 0x10C5 DUP4 CODECOPY DUP2 DUP2 ADD PUSH1 0x40 MSTORE DUP2 ADD SWAP1 PUSH3 0x49 SWAP2 SWAP1 PUSH3 0x17F JUMP JUMPDEST CALLER PUSH1 0x4 PUSH1 0x0 PUSH2 0x100 EXP DUP2 SLOAD DUP2 PUSH20 0xFFFFFFFFFFFFFFFFFFFFFFFFFFFFFFFFFFFFFFFF MUL NOT AND SWAP1 DUP4 PUSH20 0xFFFFFFFFFFFFFFFFFFFFFFFFFFFFFFFFFFFFFFFF AND MUL OR SWAP1 SSTORE POP DUP2 PUSH1 0x5 PUSH1 0x0 PUSH2 0x100 EXP DUP2 SLOAD DUP2 PUSH20 0xFFFFFFFFFFFFFFFFFFFFFFFFFFFFFFFFFFFFFFFF MUL NOT AND SWAP1 DUP4 PUSH20 0xFFFFFFFFFFFFFFFFFFFFFFFFFFFFFFFFFFFFFFFF AND MUL OR SWAP1 SSTORE POP DUP1 PUSH1 0x3 DUP2 SWAP1 SSTORE POP POP POP PUSH3 0x1C6 JUMP JUMPDEST PUSH1 0x0 DUP1 REVERT JUMPDEST PUSH1 0x0 PUSH20 0xFFFFFFFFFFFFFFFFFFFFFFFFFFFFFFFFFFFFFFFF DUP3 AND SWAP1 POP SWAP2 SWAP1 POP JUMP JUMPDEST PUSH1 0x0 PUSH3 0x10C DUP3 PUSH3 0xDF JUMP JUMPDEST SWAP1 POP SWAP2 SWAP1 POP JUMP JUMPDEST PUSH3 0x11E DUP2 PUSH3 0xFF JUMP JUMPDEST DUP2 EQ PUSH3 0x12A JUMPI PUSH1 0x0 DUP1 REVERT JUMPDEST POP JUMP JUMPDEST PUSH1 0x0 DUP2 MLOAD SWAP1 POP PUSH3 0x13E DUP2 PUSH3 0x113 JUMP JUMPDEST SWAP3 SWAP2 POP POP JUMP JUMPDEST PUSH1 0x0 DUP2 SWAP1 POP SWAP2 SWAP1 POP JUMP JUMPDEST PUSH3 0x159 DUP2 PUSH3 0x144 JUMP JUMPDEST DUP2 EQ PUSH3 0x165 JUMPI PUSH1 0x0 DUP1 REVERT JUMPDEST POP JUMP JUMPDEST PUSH1 0x0 DUP2 MLOAD SWAP1 POP PUSH3 0x179 DUP2 PUSH3 0x14E JUMP JUMPDEST SWAP3 SWAP2 POP POP JUMP JUMPDEST PUSH1 0x0 DUP1 PUSH1 0x40 DUP4 DUP6 SUB SLT ISZERO PUSH3 0x199 JUMPI PUSH3 0x198 PUSH3 0xDA JUMP JUMPDEST JUMPDEST PUSH1 0x0 PUSH3 0x1A9 DUP6 DUP3 DUP7 ADD PUSH3 0x12D JUMP JUMPDEST SWAP3 POP POP PUSH1 0x20 PUSH3 0x1BC DUP6 DUP3 DUP7 ADD PUSH3 0x168 JUMP JUMPDEST SWAP2 POP POP SWAP3 POP SWAP3 SWAP1 POP JUMP JUMPDEST PUSH2 0xEEF DUP1 PUSH3 0x1D6 PUSH1 0x0 CODECOPY PUSH1 0x0 RETURN INVALID PUSH1 0x80 PUSH1 0x40 MSTORE PUSH1 0x4 CALLDATASIZE LT PUSH2 0x8A JUMPI PUSH1 0x0 CALLDATALOAD PUSH1 0xE0 SHR DUP1 PUSH4 0x5B889AB8 GT PUSH2 0x59 JUMPI DUP1 PUSH4 0x5B889AB8 EQ PUSH2 0x13F JUMPI DUP1 PUSH4 0x8BFAFD8B EQ PUSH2 0x16A JUMPI DUP1 PUSH4 0xAE4AF217 EQ PUSH2 0x195 JUMPI DUP1 PUSH4 0xD1EFD30D EQ PUSH2 0x1C0 JUMPI DUP1 PUSH4 0xDA1D55E1 EQ PUSH2 0x1EB JUMPI PUSH2 0xA4 JUMP JUMPDEST DUP1 PUSH4 0x9BD5A60 EQ PUSH2 0xA9 JUMPI DUP1 PUSH4 0xD668087 EQ PUSH2 0xD4 JUMPI DUP1 PUSH4 0x31FB67C2 EQ PUSH2 0xFF JUMPI DUP1 PUSH4 0x590E1AE3 EQ PUSH2 0x128 JUMPI PUSH2 0xA4 JUMP JUMPDEST CALLDATASIZE PUSH2 0xA4 JUMPI PUSH1 0x1 SLOAD TIMESTAMP PUSH2 0x9D SWAP2 SWAP1 PUSH2 0x63A JUMP JUMPDEST PUSH1 0x6 DUP2 SWAP1 SSTORE STOP JUMPDEST PUSH1 0x0 DUP1 REVERT JUMPDEST CALLVALUE DUP1 ISZERO PUSH2 0xB5 JUMPI PUSH1 0x0 DUP1 REVERT JUMPDEST POP PUSH2 0xBE PUSH2 0x216 JUMP JUMPDEST PUSH1 0x40 MLOAD PUSH2 0xCB SWAP2 SWAP1 PUSH2 0x687 JUMP JUMPDEST PUSH1 0x40 MLOAD DUP1 SWAP2 SUB SWAP1 RETURN JUMPDEST CALLVALUE DUP1 ISZERO PUSH2 0xE0 JUMPI PUSH1 0x0 DUP1 REVERT JUMPDEST POP PUSH2 0xE9 PUSH2 0x21C JUMP JUMPDEST PUSH1 0x40 MLOAD PUSH2 0xF6 SWAP2 SWAP1 PUSH2 0x6B1 JUMP JUMPDEST PUSH1 0x40 MLOAD DUP1 SWAP2 SUB SWAP1 RETURN JUMPDEST CALLVALUE DUP1 ISZERO PUSH2 0x10B JUMPI PUSH1 0x0 DUP1 REVERT JUMPDEST POP PUSH2 0x126 PUSH1 0x4 DUP1 CALLDATASIZE SUB DUP2 ADD SWAP1 PUSH2 0x121 SWAP2 SWAP1 PUSH2 0x826 JUMP JUMPDEST PUSH2 0x222 JUMP JUMPDEST STOP JUMPDEST CALLVALUE DUP1 ISZERO PUSH2 0x134 JUMPI PUSH1 0x0 DUP1 REVERT JUMPDEST POP PUSH2 0x13D PUSH2 0x3DC JUMP JUMPDEST STOP JUMPDEST CALLVALUE DUP1 ISZERO PUSH2 0x14B JUMPI PUSH1 0x0 DUP1 REVERT JUMPDEST POP PUSH2 0x154 PUSH2 0x51B JUMP JUMPDEST PUSH1 0x40 MLOAD PUSH2 0x161 SWAP2 SWAP1 PUSH2 0x6B1 JUMP JUMPDEST PUSH1 0x40 MLOAD DUP1 SWAP2 SUB SWAP1 RETURN JUMPDEST CALLVALUE DUP1 ISZERO PUSH2 0x176 JUMPI PUSH1 0x0 DUP1 REVERT JUMPDEST POP PUSH2 0x17F PUSH2 0x521 JUMP JUMPDEST PUSH1 0x40 MLOAD PUSH2 0x18C SWAP2 SWAP1 PUSH2 0x6B1 JUMP JUMPDEST PUSH1 0x40 MLOAD DUP1 SWAP2 SUB SWAP1 RETURN JUMPDEST CALLVALUE DUP1 ISZERO PUSH2 0x1A1 JUMPI PUSH1 0x0 DUP1 REVERT JUMPDEST POP PUSH2 0x1AA PUSH2 0x527 JUMP JUMPDEST PUSH1 0x40 MLOAD PUSH2 0x1B7 SWAP2 SWAP1 PUSH2 0x8B0 JUMP JUMPDEST PUSH1 0x40 MLOAD DUP1 SWAP2 SUB SWAP1 RETURN JUMPDEST CALLVALUE DUP1 ISZERO PUSH2 0x1CC JUMPI PUSH1 0x0 DUP1 REVERT JUMPDEST POP PUSH2 0x1D5 PUSH2 0x54D JUMP JUMPDEST PUSH1 0x40 MLOAD PUSH2 0x1E2 SWAP2 SWAP1 PUSH2 0x94A JUMP JUMPDEST PUSH1 0x40 MLOAD DUP1 SWAP2 SUB SWAP1 RETURN JUMPDEST CALLVALUE DUP1 ISZERO PUSH2 0x1F7 JUMPI PUSH1 0x0 DUP1 REVERT JUMPDEST POP PUSH2 0x200 PUSH2 0x5DB JUMP JUMPDEST PUSH1 0x40 MLOAD PUSH2 0x20D SWAP2 SWAP1 PUSH2 0x8B0 JUMP JUMPDEST PUSH1 0x40 MLOAD DUP1 SWAP2 SUB SWAP1 RETURN JUMPDEST PUSH1 0x3 SLOAD DUP2 JUMP JUMPDEST PUSH1 0x1 SLOAD DUP2 JUMP JUMPDEST PUSH1 0x5 PUSH1 0x0 SWAP1 SLOAD SWAP1 PUSH2 0x100 EXP SWAP1 DIV PUSH20 0xFFFFFFFFFFFFFFFFFFFFFFFFFFFFFFFFFFFFFFFF AND PUSH20 0xFFFFFFFFFFFFFFFFFFFFFFFFFFFFFFFFFFFFFFFF AND CALLER PUSH20 0xFFFFFFFFFFFFFFFFFFFFFFFFFFFFFFFFFFFFFFFF AND EQ PUSH2 0x2B2 JUMPI PUSH1 0x40 MLOAD PUSH32 0x8C379A000000000000000000000000000000000000000000000000000000000 DUP2 MSTORE PUSH1 0x4 ADD PUSH2 0x2A9 SWAP1 PUSH2 0x9B8 JUMP JUMPDEST PUSH1 0x40 MLOAD DUP1 SWAP2 SUB SWAP1 REVERT JUMPDEST PUSH1 0x6 SLOAD TIMESTAMP LT PUSH2 0x2F6 JUMPI PUSH1 0x40 MLOAD PUSH32 0x8C379A000000000000000000000000000000000000000000000000000000000 DUP2 MSTORE PUSH1 0x4 ADD PUSH2 0x2ED SWAP1 PUSH2 0xA24 JUMP JUMPDEST PUSH1 0x40 MLOAD DUP1 SWAP2 SUB SWAP1 REVERT JUMPDEST PUSH1 0x3 SLOAD DUP2 PUSH1 0x40 MLOAD PUSH1 0x20 ADD PUSH2 0x30A SWAP2 SWAP1 PUSH2 0xA80 JUMP JUMPDEST PUSH1 0x40 MLOAD PUSH1 0x20 DUP2 DUP4 SUB SUB DUP2 MSTORE SWAP1 PUSH1 0x40 MSTORE DUP1 MLOAD SWAP1 PUSH1 0x20 ADD KECCAK256 EQ PUSH2 0x360 JUMPI PUSH1 0x40 MLOAD PUSH32 0x8C379A000000000000000000000000000000000000000000000000000000000 DUP2 MSTORE PUSH1 0x4 ADD PUSH2 0x357 SWAP1 PUSH2 0xAE3 JUMP JUMPDEST PUSH1 0x40 MLOAD DUP1 SWAP2 SUB SWAP1 REVERT JUMPDEST PUSH1 0x5 PUSH1 0x0 SWAP1 SLOAD SWAP1 PUSH2 0x100 EXP SWAP1 DIV PUSH20 0xFFFFFFFFFFFFFFFFFFFFFFFFFFFFFFFFFFFFFFFF AND PUSH20 0xFFFFFFFFFFFFFFFFFFFFFFFFFFFFFFFFFFFFFFFF AND PUSH2 0x8FC SELFBALANCE SWAP1 DUP2 ISZERO MUL SWAP1 PUSH1 0x40 MLOAD PUSH1 0x0 PUSH1 0x40 MLOAD DUP1 DUP4 SUB DUP2 DUP6 DUP9 DUP9 CALL SWAP4 POP POP POP POP ISZERO DUP1 ISZERO PUSH2 0x3C8 JUMPI RETURNDATASIZE PUSH1 0x0 DUP1 RETURNDATACOPY RETURNDATASIZE PUSH1 0x0 REVERT JUMPDEST POP DUP1 PUSH1 0x2 SWAP1 DUP2 PUSH2 0x3D8 SWAP2 SWAP1 PUSH2 0xD0F JUMP JUMPDEST POP POP JUMP JUMPDEST PUSH1 0x4 PUSH1 0x0 SWAP1 SLOAD SWAP1 PUSH2 0x100 EXP SWAP1 DIV PUSH20 0xFFFFFFFFFFFFFFFFFFFFFFFFFFFFFFFFFFFFFFFF AND PUSH20 0xFFFFFFFFFFFFFFFFFFFFFFFFFFFFFFFFFFFFFFFF AND CALLER PUSH20 0xFFFFFFFFFFFFFFFFFFFFFFFFFFFFFFFFFFFFFFFF AND EQ PUSH2 0x46C JUMPI PUSH1 0x40 MLOAD PUSH32 0x8C379A000000000000000000000000000000000000000000000000000000000 DUP2 MSTORE PUSH1 0x4 ADD PUSH2 0x463 SWAP1 PUSH2 0xE2D JUMP JUMPDEST PUSH1 0x40 MLOAD DUP1 SWAP2 SUB SWAP1 REVERT JUMPDEST PUSH1 0x6 SLOAD TIMESTAMP GT PUSH2 0x4B0 JUMPI PUSH1 0x40 MLOAD PUSH32 0x8C379A000000000000000000000000000000000000000000000000000000000 DUP2 MSTORE PUSH1 0x4 ADD PUSH2 0x4A7 SWAP1 PUSH2 0xE99 JUMP JUMPDEST PUSH1 0x40 MLOAD DUP1 SWAP2 SUB SWAP1 REVERT JUMPDEST PUSH1 0x5 PUSH1 0x0 SWAP1 SLOAD SWAP1 PUSH2 0x100 EXP SWAP1 DIV PUSH20 0xFFFFFFFFFFFFFFFFFFFFFFFFFFFFFFFFFFFFFFFF AND PUSH20 0xFFFFFFFFFFFFFFFFFFFFFFFFFFFFFFFFFFFFFFFF AND PUSH2 0x8FC SELFBALANCE SWAP1 DUP2 ISZERO MUL SWAP1 PUSH1 0x40 MLOAD PUSH1 0x0 PUSH1 0x40 MLOAD DUP1 DUP4 SUB DUP2 DUP6 DUP9 DUP9 CALL SWAP4 POP POP POP POP ISZERO DUP1 ISZERO PUSH2 0x518 JUMPI RETURNDATASIZE PUSH1 0x0 DUP1 RETURNDATACOPY RETURNDATASIZE PUSH1 0x0 REVERT JUMPDEST POP JUMP JUMPDEST PUSH1 0x0 SLOAD DUP2 JUMP JUMPDEST PUSH1 0x6 SLOAD DUP2 JUMP JUMPDEST PUSH1 0x5 PUSH1 0x0 SWAP1 SLOAD SWAP1 PUSH2 0x100 EXP SWAP1 DIV PUSH20 0xFFFFFFFFFFFFFFFFFFFFFFFFFFFFFFFFFFFFFFFF AND DUP2 JUMP JUMPDEST PUSH1 0x2 DUP1 SLOAD PUSH2 0x55A SWAP1 PUSH2 0xB32 JUMP JUMPDEST DUP1 PUSH1 0x1F ADD PUSH1 0x20 DUP1 SWAP2 DIV MUL PUSH1 0x20 ADD PUSH1 0x40 MLOAD SWAP1 DUP2 ADD PUSH1 0x40 MSTORE DUP1 SWAP3 SWAP2 SWAP1 DUP2 DUP2 MSTORE PUSH1 0x20 ADD DUP3 DUP1 SLOAD PUSH2 0x586 SWAP1 PUSH2 0xB32 JUMP JUMPDEST DUP1 ISZERO PUSH2 0x5D3 JUMPI DUP1 PUSH1 0x1F LT PUSH2 0x5A8 JUMPI PUSH2 0x100 DUP1 DUP4 SLOAD DIV MUL DUP4 MSTORE SWAP2 PUSH1 0x20 ADD SWAP2 PUSH2 0x5D3 JUMP JUMPDEST DUP3 ADD SWAP2 SWAP1 PUSH1 0x0 MSTORE PUSH1 0x20 PUSH1 0x0 KECCAK256 SWAP1 JUMPDEST DUP2 SLOAD DUP2 MSTORE SWAP1 PUSH1 0x1 ADD SWAP1 PUSH1 0x20 ADD DUP1 DUP4 GT PUSH2 0x5B6 JUMPI DUP3 SWAP1 SUB PUSH1 0x1F AND DUP3 ADD SWAP2 JUMPDEST POP POP POP POP POP DUP2 JUMP JUMPDEST PUSH1 0x4 PUSH1 0x0 SWAP1 SLOAD SWAP1 PUSH2 0x100 EXP SWAP1 DIV PUSH20 0xFFFFFFFFFFFFFFFFFFFFFFFFFFFFFFFFFFFFFFFF AND DUP2 JUMP JUMPDEST PUSH1 0x0 DUP2 SWAP1 POP SWAP2 SWAP1 POP JUMP JUMPDEST PUSH32 0x4E487B7100000000000000000000000000000000000000000000000000000000 PUSH1 0x0 MSTORE PUSH1 0x11 PUSH1 0x4 MSTORE PUSH1 0x24 PUSH1 0x0 REVERT JUMPDEST PUSH1 0x0 PUSH2 0x645 DUP3 PUSH2 0x601 JUMP JUMPDEST SWAP2 POP PUSH2 0x650 DUP4 PUSH2 0x601 JUMP JUMPDEST SWAP3 POP DUP3 DUP3 ADD SWAP1 POP DUP1 DUP3 GT ISZERO PUSH2 0x668 JUMPI PUSH2 0x667 PUSH2 0x60B JUMP JUMPDEST JUMPDEST SWAP3 SWAP2 POP POP JUMP JUMPDEST PUSH1 0x0 DUP2 SWAP1 POP SWAP2 SWAP1 POP JUMP JUMPDEST PUSH2 0x681 DUP2 PUSH2 0x66E JUMP JUMPDEST DUP3 MSTORE POP POP JUMP JUMPDEST PUSH1 0x0 PUSH1 0x20 DUP3 ADD SWAP1 POP PUSH2 0x69C PUSH1 0x0 DUP4 ADD DUP5 PUSH2 0x678 JUMP JUMPDEST SWAP3 SWAP2 POP POP JUMP JUMPDEST PUSH2 0x6AB DUP2 PUSH2 0x601 JUMP JUMPDEST DUP3 MSTORE POP POP JUMP JUMPDEST PUSH1 0x0 PUSH1 0x20 DUP3 ADD SWAP1 POP PUSH2 0x6C6 PUSH1 0x0 DUP4 ADD DUP5 PUSH2 0x6A2 JUMP JUMPDEST SWAP3 SWAP2 POP POP JUMP JUMPDEST PUSH1 0x0 PUSH1 0x40 MLOAD SWAP1 POP SWAP1 JUMP JUMPDEST PUSH1 0x0 DUP1 REVERT JUMPDEST PUSH1 0x0 DUP1 REVERT JUMPDEST PUSH1 0x0 DUP1 REVERT JUMPDEST PUSH1 0x0 DUP1 REVERT JUMPDEST PUSH1 0x0 PUSH1 0x1F NOT PUSH1 0x1F DUP4 ADD AND SWAP1 POP SWAP2 SWAP1 POP JUMP JUMPDEST PUSH32 0x4E487B7100000000000000000000000000000000000000000000000000000000 PUSH1 0x0 MSTORE PUSH1 0x41 PUSH1 0x4 MSTORE PUSH1 0x24 PUSH1 0x0 REVERT JUMPDEST PUSH2 0x733 DUP3 PUSH2 0x6EA JUMP JUMPDEST DUP2 ADD DUP2 DUP2 LT PUSH8 0xFFFFFFFFFFFFFFFF DUP3 GT OR ISZERO PUSH2 0x752 JUMPI PUSH2 0x751 PUSH2 0x6FB JUMP JUMPDEST JUMPDEST DUP1 PUSH1 0x40 MSTORE POP POP POP JUMP JUMPDEST PUSH1 0x0 PUSH2 0x765 PUSH2 0x6CC JUMP JUMPDEST SWAP1 POP PUSH2 0x771 DUP3 DUP3 PUSH2 0x72A JUMP JUMPDEST SWAP2 SWAP1 POP JUMP JUMPDEST PUSH1 0x0 PUSH8 0xFFFFFFFFFFFFFFFF DUP3 GT ISZERO PUSH2 0x791 JUMPI PUSH2 0x790 PUSH2 0x6FB JUMP JUMPDEST JUMPDEST PUSH2 0x79A DUP3 PUSH2 0x6EA JUMP JUMPDEST SWAP1 POP PUSH1 0x20 DUP2 ADD SWAP1 POP SWAP2 SWAP1 POP JUMP JUMPDEST DUP3 DUP2 DUP4 CALLDATACOPY PUSH1 0x0 DUP4 DUP4 ADD MSTORE POP POP POP JUMP JUMPDEST PUSH1 0x0 PUSH2 0x7C9 PUSH2 0x7C4 DUP5 PUSH2 0x776 JUMP JUMPDEST PUSH2 0x75B JUMP JUMPDEST SWAP1 POP DUP3 DUP2 MSTORE PUSH1 0x20 DUP2 ADD DUP5 DUP5 DUP5 ADD GT ISZERO PUSH2 0x7E5 JUMPI PUSH2 0x7E4 PUSH2 0x6E5 JUMP JUMPDEST JUMPDEST PUSH2 0x7F0 DUP5 DUP3 DUP6 PUSH2 0x7A7 JUMP JUMPDEST POP SWAP4 SWAP3 POP POP POP JUMP JUMPDEST PUSH1 0x0 DUP3 PUSH1 0x1F DUP4 ADD SLT PUSH2 0x80D JUMPI PUSH2 0x80C PUSH2 0x6E0 JUMP JUMPDEST JUMPDEST DUP2 CALLDATALOAD PUSH2 0x81D DUP5 DUP3 PUSH1 0x20 DUP7 ADD PUSH2 0x7B6 JUMP JUMPDEST SWAP2 POP POP SWAP3 SWAP2 POP POP JUMP JUMPDEST PUSH1 0x0 PUSH1 0x20 DUP3 DUP5 SUB SLT ISZERO PUSH2 0x83C JUMPI PUSH2 0x83B PUSH2 0x6D6 JUMP JUMPDEST JUMPDEST PUSH1 0x0 DUP3 ADD CALLDATALOAD PUSH8 0xFFFFFFFFFFFFFFFF DUP2 GT ISZERO PUSH2 0x85A JUMPI PUSH2 0x859 PUSH2 0x6DB JUMP JUMPDEST JUMPDEST PUSH2 0x866 DUP5 DUP3 DUP6 ADD PUSH2 0x7F8 JUMP JUMPDEST SWAP2 POP POP SWAP3 SWAP2 POP POP JUMP JUMPDEST PUSH1 0x0 PUSH20 0xFFFFFFFFFFFFFFFFFFFFFFFFFFFFFFFFFFFFFFFF DUP3 AND SWAP1 POP SWAP2 SWAP1 POP JUMP JUMPDEST PUSH1 0x0 PUSH2 0x89A DUP3 PUSH2 0x86F JUMP JUMPDEST SWAP1 POP SWAP2 SWAP1 POP JUMP JUMPDEST PUSH2 0x8AA DUP2 PUSH2 0x88F JUMP JUMPDEST DUP3 MSTORE POP POP JUMP JUMPDEST PUSH1 0x0 PUSH1 0x20 DUP3 ADD SWAP1 POP PUSH2 0x8C5 PUSH1 0x0 DUP4 ADD DUP5 PUSH2 0x8A1 JUMP JUMPDEST SWAP3 SWAP2 POP POP JUMP JUMPDEST PUSH1 0x0 DUP2 MLOAD SWAP1 POP SWAP2 SWAP1 POP JUMP JUMPDEST PUSH1 0x0 DUP3 DUP3 MSTORE PUSH1 0x20 DUP3 ADD SWAP1 POP SWAP3 SWAP2 POP POP JUMP JUMPDEST PUSH1 0x0 JUMPDEST DUP4 DUP2 LT ISZERO PUSH2 0x905 JUMPI DUP1 DUP3 ADD MLOAD DUP2 DUP5 ADD MSTORE PUSH1 0x20 DUP2 ADD SWAP1 POP PUSH2 0x8EA JUMP JUMPDEST PUSH1 0x0 DUP5 DUP5 ADD MSTORE POP POP POP POP JUMP JUMPDEST PUSH1 0x0 PUSH2 0x91C DUP3 PUSH2 0x8CB JUMP JUMPDEST PUSH2 0x926 DUP2 DUP6 PUSH2 0x8D6 JUMP JUMPDEST SWAP4 POP PUSH2 0x936 DUP2 DUP6 PUSH1 0x20 DUP7 ADD PUSH2 0x8E7 JUMP JUMPDEST PUSH2 0x93F DUP2 PUSH2 0x6EA JUMP JUMPDEST DUP5 ADD SWAP2 POP POP SWAP3 SWAP2 POP POP JUMP JUMPDEST PUSH1 0x0 PUSH1 0x20 DUP3 ADD SWAP1 POP DUP2 DUP2 SUB PUSH1 0x0 DUP4 ADD MSTORE PUSH2 0x964 DUP2 DUP5 PUSH2 0x911 JUMP JUMPDEST SWAP1 POP SWAP3 SWAP2 POP POP JUMP JUMPDEST PUSH32 0x796F7520617265206E6F7420446D7974726F0000000000000000000000000000 PUSH1 0x0 DUP3 ADD MSTORE POP JUMP JUMPDEST PUSH1 0x0 PUSH2 0x9A2 PUSH1 0x12 DUP4 PUSH2 0x8D6 JUMP JUMPDEST SWAP2 POP PUSH2 0x9AD DUP3 PUSH2 0x96C JUMP JUMPDEST PUSH1 0x20 DUP3 ADD SWAP1 POP SWAP2 SWAP1 POP JUMP JUMPDEST PUSH1 0x0 PUSH1 0x20 DUP3 ADD SWAP1 POP DUP2 DUP2 SUB PUSH1 0x0 DUP4 ADD MSTORE PUSH2 0x9D1 DUP2 PUSH2 0x995 JUMP JUMPDEST SWAP1 POP SWAP2 SWAP1 POP JUMP JUMPDEST PUSH32 0x706572696F642065787069726564000000000000000000000000000000000000 PUSH1 0x0 DUP3 ADD MSTORE POP JUMP JUMPDEST PUSH1 0x0 PUSH2 0xA0E PUSH1 0xE DUP4 PUSH2 0x8D6 JUMP JUMPDEST SWAP2 POP PUSH2 0xA19 DUP3 PUSH2 0x9D8 JUMP JUMPDEST PUSH1 0x20 DUP3 ADD SWAP1 POP SWAP2 SWAP1 POP JUMP JUMPDEST PUSH1 0x0 PUSH1 0x20 DUP3 ADD SWAP1 POP DUP2 DUP2 SUB PUSH1 0x0 DUP4 ADD MSTORE PUSH2 0xA3D DUP2 PUSH2 0xA01 JUMP JUMPDEST SWAP1 POP SWAP2 SWAP1 POP JUMP JUMPDEST PUSH1 0x0 DUP2 SWAP1 POP SWAP3 SWAP2 POP POP JUMP JUMPDEST PUSH1 0x0 PUSH2 0xA5A DUP3 PUSH2 0x8CB JUMP JUMPDEST PUSH2 0xA64 DUP2 DUP6 PUSH2 0xA44 JUMP JUMPDEST SWAP4 POP PUSH2 0xA74 DUP2 DUP6 PUSH1 0x20 DUP7 ADD PUSH2 0x8E7 JUMP JUMPDEST DUP1 DUP5 ADD SWAP2 POP POP SWAP3 SWAP2 POP POP JUMP JUMPDEST PUSH1 0x0 PUSH2 0xA8C DUP3 DUP5 PUSH2 0xA4F JUMP JUMPDEST SWAP2 POP DUP2 SWAP1 POP SWAP3 SWAP2 POP POP JUMP JUMPDEST PUSH32 0x496E76616C696420736563726574000000000000000000000000000000000000 PUSH1 0x0 DUP3 ADD MSTORE POP JUMP JUMPDEST PUSH1 0x0 PUSH2 0xACD PUSH1 0xE DUP4 PUSH2 0x8D6 JUMP JUMPDEST SWAP2 POP PUSH2 0xAD8 DUP3 PUSH2 0xA97 JUMP JUMPDEST PUSH1 0x20 DUP3 ADD SWAP1 POP SWAP2 SWAP1 POP JUMP JUMPDEST PUSH1 0x0 PUSH1 0x20 DUP3 ADD SWAP1 POP DUP2 DUP2 SUB PUSH1 0x0 DUP4 ADD MSTORE PUSH2 0xAFC DUP2 PUSH2 0xAC0 JUMP JUMPDEST SWAP1 POP SWAP2 SWAP1 POP JUMP JUMPDEST PUSH32 0x4E487B7100000000000000000000000000000000000000000000000000000000 PUSH1 0x0 MSTORE PUSH1 0x22 PUSH1 0x4 MSTORE PUSH1 0x24 PUSH1 0x0 REVERT JUMPDEST PUSH1 0x0 PUSH1 0x2 DUP3 DIV SWAP1 POP PUSH1 0x1 DUP3 AND DUP1 PUSH2 0xB4A JUMPI PUSH1 0x7F DUP3 AND SWAP2 POP JUMPDEST PUSH1 0x20 DUP3 LT DUP2 SUB PUSH2 0xB5D JUMPI PUSH2 0xB5C PUSH2 0xB03 JUMP JUMPDEST JUMPDEST POP SWAP2 SWAP1 POP JUMP JUMPDEST PUSH1 0x0 DUP2 SWAP1 POP DUP2 PUSH1 0x0 MSTORE PUSH1 0x20 PUSH1 0x0 KECCAK256 SWAP1 POP SWAP2 SWAP1 POP JUMP JUMPDEST PUSH1 0x0 PUSH1 0x20 PUSH1 0x1F DUP4 ADD DIV SWAP1 POP SWAP2 SWAP1 POP JUMP JUMPDEST PUSH1 0x0 DUP3 DUP3 SHL SWAP1 POP SWAP3 SWAP2 POP POP JUMP JUMPDEST PUSH1 0x0 PUSH1 0x8 DUP4 MUL PUSH2 0xBC5 PUSH32 0xFFFFFFFFFFFFFFFFFFFFFFFFFFFFFFFFFFFFFFFFFFFFFFFFFFFFFFFFFFFFFFFF DUP3 PUSH2 0xB88 JUMP JUMPDEST PUSH2 0xBCF DUP7 DUP4 PUSH2 0xB88 JUMP JUMPDEST SWAP6 POP DUP1 NOT DUP5 AND SWAP4 POP DUP1 DUP7 AND DUP5 OR SWAP3 POP POP POP SWAP4 SWAP3 POP POP POP JUMP JUMPDEST PUSH1 0x0 DUP2 SWAP1 POP SWAP2 SWAP1 POP JUMP JUMPDEST PUSH1 0x0 PUSH2 0xC0C PUSH2 0xC07 PUSH2 0xC02 DUP5 PUSH2 0x601 JUMP JUMPDEST PUSH2 0xBE7 JUMP JUMPDEST PUSH2 0x601 JUMP JUMPDEST SWAP1 POP SWAP2 SWAP1 POP JUMP JUMPDEST PUSH1 0x0 DUP2 SWAP1 POP SWAP2 SWAP1 POP JUMP JUMPDEST PUSH2 0xC26 DUP4 PUSH2 0xBF1 JUMP JUMPDEST PUSH2 0xC3A PUSH2 0xC32 DUP3 PUSH2 0xC13 JUMP JUMPDEST DUP5 DUP5 SLOAD PUSH2 0xB95 JUMP JUMPDEST DUP3 SSTORE POP POP POP POP JUMP JUMPDEST PUSH1 0x0 SWAP1 JUMP JUMPDEST PUSH2 0xC4F PUSH2 0xC42 JUMP JUMPDEST PUSH2 0xC5A DUP2 DUP5 DUP5 PUSH2 0xC1D JUMP JUMPDEST POP POP POP JUMP JUMPDEST JUMPDEST DUP2 DUP2 LT ISZERO PUSH2 0xC7E JUMPI PUSH2 0xC73 PUSH1 0x0 DUP3 PUSH2 0xC47 JUMP JUMPDEST PUSH1 0x1 DUP2 ADD SWAP1 POP PUSH2 0xC60 JUMP JUMPDEST POP POP JUMP JUMPDEST PUSH1 0x1F DUP3 GT ISZERO PUSH2 0xCC3 JUMPI PUSH2 0xC94 DUP2 PUSH2 0xB63 JUMP JUMPDEST PUSH2 0xC9D DUP5 PUSH2 0xB78 JUMP JUMPDEST DUP2 ADD PUSH1 0x20 DUP6 LT ISZERO PUSH2 0xCAC JUMPI DUP2 SWAP1 POP JUMPDEST PUSH2 0xCC0 PUSH2 0xCB8 DUP6 PUSH2 0xB78 JUMP JUMPDEST DUP4 ADD DUP3 PUSH2 0xC5F JUMP JUMPDEST POP POP JUMPDEST POP POP POP JUMP JUMPDEST PUSH1 0x0 DUP3 DUP3 SHR SWAP1 POP SWAP3 SWAP2 POP POP JUMP JUMPDEST PUSH1 0x0 PUSH2 0xCE6 PUSH1 0x0 NOT DUP5 PUSH1 0x8 MUL PUSH2 0xCC8 JUMP JUMPDEST NOT DUP1 DUP4 AND SWAP2 POP POP SWAP3 SWAP2 POP POP JUMP JUMPDEST PUSH1 0x0 PUSH2 0xCFF DUP4 DUP4 PUSH2 0xCD5 JUMP JUMPDEST SWAP2 POP DUP3 PUSH1 0x2 MUL DUP3 OR SWAP1 POP SWAP3 SWAP2 POP POP JUMP JUMPDEST PUSH2 0xD18 DUP3 PUSH2 0x8CB JUMP JUMPDEST PUSH8 0xFFFFFFFFFFFFFFFF DUP2 GT ISZERO PUSH2 0xD31 JUMPI PUSH2 0xD30 PUSH2 0x6FB JUMP JUMPDEST JUMPDEST PUSH2 0xD3B DUP3 SLOAD PUSH2 0xB32 JUMP JUMPDEST PUSH2 0xD46 DUP3 DUP3 DUP6 PUSH2 0xC82 JUMP JUMPDEST PUSH1 0x0 PUSH1 0x20 SWAP1 POP PUSH1 0x1F DUP4 GT PUSH1 0x1 DUP2 EQ PUSH2 0xD79 JUMPI PUSH1 0x0 DUP5 ISZERO PUSH2 0xD67 JUMPI DUP3 DUP8 ADD MLOAD SWAP1 POP JUMPDEST PUSH2 0xD71 DUP6 DUP3 PUSH2 0xCF3 JUMP JUMPDEST DUP7 SSTORE POP PUSH2 0xDD9 JUMP JUMPDEST PUSH1 0x1F NOT DUP5 AND PUSH2 0xD87 DUP7 PUSH2 0xB63 JUMP JUMPDEST PUSH1 0x0 JUMPDEST DUP3 DUP2 LT ISZERO PUSH2 0xDAF JUMPI DUP5 DUP10 ADD MLOAD DUP3 SSTORE PUSH1 0x1 DUP3 ADD SWAP2 POP PUSH1 0x20 DUP6 ADD SWAP5 POP PUSH1 0x20 DUP2 ADD SWAP1 POP PUSH2 0xD8A JUMP JUMPDEST DUP7 DUP4 LT ISZERO PUSH2 0xDCC JUMPI DUP5 DUP10 ADD MLOAD PUSH2 0xDC8 PUSH1 0x1F DUP10 AND DUP3 PUSH2 0xCD5 JUMP JUMPDEST DUP4 SSTORE POP JUMPDEST PUSH1 0x1 PUSH1 0x2 DUP9 MUL ADD DUP9 SSTORE POP POP POP JUMPDEST POP POP POP POP POP POP JUMP JUMPDEST PUSH32 0x796F7520617265206E6F7420506574726F000000000000000000000000000000 PUSH1 0x0 DUP3 ADD MSTORE POP JUMP JUMPDEST PUSH1 0x0 PUSH2 0xE17 PUSH1 0x11 DUP4 PUSH2 0x8D6 JUMP JUMPDEST SWAP2 POP PUSH2 0xE22 DUP3 PUSH2 0xDE1 JUMP JUMPDEST PUSH1 0x20 DUP3 ADD SWAP1 POP SWAP2 SWAP1 POP JUMP JUMPDEST PUSH1 0x0 PUSH1 0x20 DUP3 ADD SWAP1 POP DUP2 DUP2 SUB PUSH1 0x0 DUP4 ADD MSTORE PUSH2 0xE46 DUP2 PUSH2 0xE0A JUMP JUMPDEST SWAP1 POP SWAP2 SWAP1 POP JUMP JUMPDEST PUSH32 0x6974206973206E6F742074696D65207965740000000000000000000000000000 PUSH1 0x0 DUP3 ADD MSTORE POP JUMP JUMPDEST PUSH1 0x0 PUSH2 0xE83 PUSH1 0x12 DUP4 PUSH2 0x8D6 JUMP JUMPDEST SWAP2 POP PUSH2 0xE8E DUP3 PUSH2 0xE4D JUMP JUMPDEST PUSH1 0x20 DUP3 ADD SWAP1 POP SWAP2 SWAP1 POP JUMP JUMPDEST PUSH1 0x0 PUSH1 0x20 DUP3 ADD SWAP1 POP DUP2 DUP2 SUB PUSH1 0x0 DUP4 ADD MSTORE PUSH2 0xEB2 DUP2 PUSH2 0xE76 JUMP JUMPDEST SWAP1 POP SWAP2 SWAP1 POP JUMP INVALID LOG2 PUSH5 0x6970667358 0x22 SLT KECCAK256 SSTORE PUSH27 0xA59A169669CF70D6FAC97A309CB18B9708451B0F4D54705ECB71F9 SWAP12 DUP3 0xAB PUSH5 0x736F6C6343 STOP ADDMOD GT STOP CALLER "
				},
				"gasEstimates": {
					"creation": {
						"codeDepositCost": "764600",
						"executionCost": "infinite",
						"totalCost": "infinite"
					},
					"external": {
						"ammount()": "2429",
						"dmytroAddress()": "2558",
						"hash()": "2430",
						"lockTime()": "2452",
						"petroAddress()": "2602",
						"refund()": "infinite",
						"secret()": "infinite",
						"timeTo()": "2451",
						"withdraw(string)": "infinite"
					}
				},
				"methodIdentifiers": {
					"ammount()": "5b889ab8",
					"dmytroAddress()": "ae4af217",
					"hash()": "09bd5a60",
					"lockTime()": "0d668087",
					"petroAddress()": "da1d55e1",
					"refund()": "590e1ae3",
					"secret()": "d1efd30d",
					"timeTo()": "8bfafd8b",
					"withdraw(string)": "31fb67c2"
				}
			},
			"storageLayout": {
				"storage": [
					{
						"astId": 4,
						"contract": "Proga/Solidity/AtomicSwap/contracts/Petro.sol:Petro",
						"label": "ammount",
						"offset": 0,
						"slot": "0",
						"type": "t_uint256"
					},
					{
						"astId": 7,
						"contract": "Proga/Solidity/AtomicSwap/contracts/Petro.sol:Petro",
						"label": "lockTime",
						"offset": 0,
						"slot": "1",
						"type": "t_uint256"
					},
					{
						"astId": 9,
						"contract": "Proga/Solidity/AtomicSwap/contracts/Petro.sol:Petro",
						"label": "secret",
						"offset": 0,
						"slot": "2",
						"type": "t_string_storage"
					},
					{
						"astId": 11,
						"contract": "Proga/Solidity/AtomicSwap/contracts/Petro.sol:Petro",
						"label": "hash",
						"offset": 0,
						"slot": "3",
						"type": "t_bytes32"
					},
					{
						"astId": 13,
						"contract": "Proga/Solidity/AtomicSwap/contracts/Petro.sol:Petro",
						"label": "petroAddress",
						"offset": 0,
						"slot": "4",
						"type": "t_address"
					},
					{
						"astId": 15,
						"contract": "Proga/Solidity/AtomicSwap/contracts/Petro.sol:Petro",
						"label": "dmytroAddress",
						"offset": 0,
						"slot": "5",
						"type": "t_address"
					},
					{
						"astId": 17,
						"contract": "Proga/Solidity/AtomicSwap/contracts/Petro.sol:Petro",
						"label": "timeTo",
						"offset": 0,
						"slot": "6",
						"type": "t_uint256"
					}
				],
				"types": {
					"t_address": {
						"encoding": "inplace",
						"label": "address",
						"numberOfBytes": "20"
					},
					"t_bytes32": {
						"encoding": "inplace",
						"label": "bytes32",
						"numberOfBytes": "32"
					},
					"t_string_storage": {
						"encoding": "bytes",
						"label": "string",
						"numberOfBytes": "32"
					},
					"t_uint256": {
						"encoding": "inplace",
						"label": "uint256",
						"numberOfBytes": "32"
					}
				}
			},
			"userdoc": {
				"kind": "user",
				"methods": {},
				"version": 1
			}
		}
	}
}