{
  "contractName": "Dmetro",
  "abi": [
    {
      "inputs": [],
      "stateMutability": "nonpayable",
      "type": "constructor"
    },
    {
      "inputs": [],
      "name": "ammount",
      "outputs": [
        {
          "internalType": "uint256",
          "name": "",
          "type": "uint256"
        }
      ],
      "stateMutability": "view",
      "type": "function"
    },
    {
      "inputs": [],
      "name": "lockTime",
      "outputs": [
        {
          "internalType": "uint256",
          "name": "",
          "type": "uint256"
        }
      ],
      "stateMutability": "view",
      "type": "function"
    },
    {
      "inputs": [],
      "name": "owner",
      "outputs": [
        {
          "internalType": "address",
          "name": "",
          "type": "address"
        }
      ],
      "stateMutability": "view",
      "type": "function"
    },
    {
      "inputs": [],
      "name": "recipient",
      "outputs": [
        {
          "internalType": "address",
          "name": "",
          "type": "address"
        }
      ],
      "stateMutability": "view",
      "type": "function"
    },
    {
      "inputs": [],
      "name": "secret",
      "outputs": [
        {
          "internalType": "string",
          "name": "",
          "type": "string"
        }
      ],
      "stateMutability": "view",
      "type": "function"
    },
    {
      "inputs": [],
      "name": "timeTo",
      "outputs": [
        {
          "internalType": "uint256",
          "name": "",
          "type": "uint256"
        }
      ],
      "stateMutability": "view",
      "type": "function"
    },
    {
      "stateMutability": "payable",
      "type": "receive"
    }
  ],
  "bytecode": "0x60806040526706f05b59d3b200006000556201518060015534801561002357600080fd5b5033600460006101000a81548173ffffffffffffffffffffffffffffffffffffffff021916908373ffffffffffffffffffffffffffffffffffffffff16021790555061007361007860201b60201c565b610144565b600154426100869190610110565b6005819055503073ffffffffffffffffffffffffffffffffffffffff166108fc6000549081150290604051600060405180830381858888f193505050501580156100d4573d6000803e3d6000fd5b50565b6000819050919050565b7f4e487b7100000000000000000000000000000000000000000000000000000000600052601160045260246000fd5b600061011b826100d7565b9150610126836100d7565b925082820190508082111561013e5761013d6100e1565b5b92915050565b61042b806101536000396000f3fe6080604052600436106100595760003560e01c80630d668087146100655780635b889ab81461009057806366d003ac146100bb5780638bfafd8b146100e65780638da5cb5b14610111578063d1efd30d1461013c57610060565b3661006057005b600080fd5b34801561007157600080fd5b5061007a610167565b604051610087919061026c565b60405180910390f35b34801561009c57600080fd5b506100a561016d565b6040516100b2919061026c565b60405180910390f35b3480156100c757600080fd5b506100d0610173565b6040516100dd91906102c8565b60405180910390f35b3480156100f257600080fd5b506100fb610199565b604051610108919061026c565b60405180910390f35b34801561011d57600080fd5b5061012661019f565b60405161013391906102c8565b60405180910390f35b34801561014857600080fd5b506101516101c5565b60405161015e9190610373565b60405180910390f35b60015481565b60005481565b600360009054906101000a900473ffffffffffffffffffffffffffffffffffffffff1681565b60055481565b600460009054906101000a900473ffffffffffffffffffffffffffffffffffffffff1681565b600280546101d2906103c4565b80601f01602080910402602001604051908101604052809291908181526020018280546101fe906103c4565b801561024b5780601f106102205761010080835404028352916020019161024b565b820191906000526020600020905b81548152906001019060200180831161022e57829003601f168201915b505050505081565b6000819050919050565b61026681610253565b82525050565b6000602082019050610281600083018461025d565b92915050565b600073ffffffffffffffffffffffffffffffffffffffff82169050919050565b60006102b282610287565b9050919050565b6102c2816102a7565b82525050565b60006020820190506102dd60008301846102b9565b92915050565b600081519050919050565b600082825260208201905092915050565b60005b8381101561031d578082015181840152602081019050610302565b60008484015250505050565b6000601f19601f8301169050919050565b6000610345826102e3565b61034f81856102ee565b935061035f8185602086016102ff565b61036881610329565b840191505092915050565b6000602082019050818103600083015261038d818461033a565b905092915050565b7f4e487b7100000000000000000000000000000000000000000000000000000000600052602260045260246000fd5b600060028204905060018216806103dc57607f821691505b6020821081036103ef576103ee610395565b5b5091905056fea2646970667358221220a657d589d8594e2a98e535a4349d05e940991c9c5955ab128a18fa12675db33e64736f6c63430008110033",
  "immutableReferences": {},
  "source": "//SPDX-License-Identifier: MIT\npragma solidity ^0.8.17;\n\ncontract Dmetro {\n\t\n\tuint256 public ammount = 0.5 ether;\n\tuint256 public lockTime = 86400; //1 day\n\t\n\tstring public secret;\n\taddress public recipient;\n\taddress public owner;\n\tuint256 public timeTo;\n\n\treceive() external payable {\n\n\t}\t\n\n\n\tconstructor() {\n\t\towner = msg.sender;\n\t\tfund();\n\t}\n\n\n\tfunction fund() internal {\n\t\ttimeTo = block.timestamp + lockTime;\n\t\tpayable(address(this)).transfer(ammount);\n\t}\n\n/*\n\tfunction withdraw() {\n\n\t}\n\n\tfunction refund() {\n\n\t}\n*/\n\n}",
  "sourcePath": "/home/allinone/Proga/Solidity/AtomicSwap/contracts/Dmetro.sol",
  "compiler": {
    "name": "solc",
    "version": "0.8.17+commit.8df45f5f.Emscripten.clang"
  },
  "schemaVersion": "3.3.4",
  "updatedAt": "2022-09-26T19:17:48.843Z",
  "devdoc": {
    "kind": "dev",
    "methods": {},
    "version": 1
  },
  "userdoc": {
    "kind": "user",
    "methods": {},
    "version": 1
  }
}