{
  "contractName": "Dmetro",
  "abi": [
    {
      "inputs": [],
      "stateMutability": "nonpayable",
      "type": "constructor"
    },
    {
      "inputs": [],
      "name": "owner",
      "outputs": [
        {
          "internalType": "address",
          "name": "",
          "type": "address"
        }
      ],
      "stateMutability": "view",
      "type": "function"
    },
    {
      "inputs": [],
      "name": "recipient",
      "outputs": [
        {
          "internalType": "address",
          "name": "",
          "type": "address"
        }
      ],
      "stateMutability": "view",
      "type": "function"
    },
    {
      "inputs": [],
      "name": "secret",
      "outputs": [
        {
          "internalType": "string",
          "name": "",
          "type": "string"
        }
      ],
      "stateMutability": "view",
      "type": "function"
    },
    {
      "stateMutability": "payable",
      "type": "receive"
    }
  ],
  "bytecode": "0x60806040526706f05b59d3b2000060045534801561001c57600080fd5b5033600360006101000a81548173ffffffffffffffffffffffffffffffffffffffff021916908373ffffffffffffffffffffffffffffffffffffffff16021790555061006c61007160201b60201c565b6100bc565b3073ffffffffffffffffffffffffffffffffffffffff166108fc6004549081150290604051600060405180830381858888f193505050501580156100b9573d6000803e3d6000fd5b50565b610343806100cb6000396000f3fe6080604052600436106100385760003560e01c806366d003ac146100445780638da5cb5b1461006f578063d1efd30d1461009a5761003f565b3661003f57005b600080fd5b34801561005057600080fd5b506100596100c5565b60405161006691906101e0565b60405180910390f35b34801561007b57600080fd5b506100846100eb565b60405161009191906101e0565b60405180910390f35b3480156100a657600080fd5b506100af610111565b6040516100bc919061028b565b60405180910390f35b600260009054906101000a900473ffffffffffffffffffffffffffffffffffffffff1681565b600360009054906101000a900473ffffffffffffffffffffffffffffffffffffffff1681565b6001805461011e906102dc565b80601f016020809104026020016040519081016040528092919081815260200182805461014a906102dc565b80156101975780601f1061016c57610100808354040283529160200191610197565b820191906000526020600020905b81548152906001019060200180831161017a57829003601f168201915b505050505081565b600073ffffffffffffffffffffffffffffffffffffffff82169050919050565b60006101ca8261019f565b9050919050565b6101da816101bf565b82525050565b60006020820190506101f560008301846101d1565b92915050565b600081519050919050565b600082825260208201905092915050565b60005b8381101561023557808201518184015260208101905061021a565b60008484015250505050565b6000601f19601f8301169050919050565b600061025d826101fb565b6102678185610206565b9350610277818560208601610217565b61028081610241565b840191505092915050565b600060208201905081810360008301526102a58184610252565b905092915050565b7f4e487b7100000000000000000000000000000000000000000000000000000000600052602260045260246000fd5b600060028204905060018216806102f457607f821691505b602082108103610307576103066102ad565b5b5091905056fea2646970667358221220be69d24ad43873277f5498f20412cf91937abfac6a60a7d11137afb92ca9b12064736f6c63430008110033",
  "immutableReferences": {},
  "source": "//SPDX-License-Identifier: MIT\npragma solidity ^0.8.17;\n\ncontract Dmetro {\n\t\n\tuint256 lockTime;\n\tstring public secret;\n\n\taddress public recipient;\n\taddress public owner;\n\tuint256 ammount = 0.5 ether;\n\n\treceive() external payable {\n\n\t}\t\n\n\tconstructor() {\n\t\towner = msg.sender;\n\t\tfund();\n\t}\n\n\tfunction fund() internal{\n\t\tpayable(address(this)).transfer(ammount);\n\t}\n\n\n\n/*\n\n\tfunction withdraw() {\n\n\t}\n\n\tfunction refund() {\n\n\t}\n*/\n\n}",
  "sourcePath": "/home/allinone/Proga/Solidity/AtomicSwap/contracts/Dmetro.sol",
  "compiler": {
    "name": "solc",
    "version": "0.8.17+commit.8df45f5f.Emscripten.clang"
  },
  "schemaVersion": "3.3.4",
  "updatedAt": "2022-09-26T11:34:11.910Z",
  "devdoc": {
    "kind": "dev",
    "methods": {},
    "version": 1
  },
  "userdoc": {
    "kind": "user",
    "methods": {},
    "version": 1
  }
}